:020000040800F2
:10000000D8140020010200087B4D0008EF480008CA
:10001000794D0008DD1D00088D600008000000001B
:100020000000000000000000000000006D4E00080D
:10003000BD1F0008000000007D4D00086F4E000845
:100040001B0200081B0200081B0200081B0200081C
:100050001B0200081B0200081B0200081B0200080C
:100060001B0200081B0200081B020008F91D000803
:10007000051E0008111E00081D1E0008291E00088C
:100080001B0200081B0200081B0200080D56000896
:1000900019560008E11D0008ED1D00081B020008AC
:1000A0001B020008F14E00081B0200081B0200089A
:1000B0001B020008FD4E0008094F00081B02000843
:1000C0001B0200081B0200081B0200081B0200089C
:1000D0001B020008ED5500081B020008F955000836
:1000E0001B0200081B0200081B0200081B0200087C
:1000F0001B0200081B0200081B0200081B0200086C
:100100001B0200081B0200081B0200081B0200085B
:100110001B0200081B0200081B0200081B0200084B
:100120001B0200081B0200081B0200081B0200083B
:1001300000F002F800F055F80AA090E8000C8244A4
:100140008344AAF10107DA4501D100F04AF8AFF281
:10015000090EBAE80F0013F0010F18BFFB1A43F0A5
:100160000103184780710000A0710000103A24BFFD
:1001700078C878C1FAD8520724BF30C830C144BF0C
:1001800004680C607047000000230024002500264E
:10019000103A28BF78C1FBD8520728BF30C148BFEA
:1001A0000B607047662906F01384642900F0908084
:1001B000752900F08D80002070471FB59DE8030071
:1001C00000F064FF00F03AFD04000020002106F07A
:1001D00031F9E06000F062FC1FBD10B500F0C7FC13
:1001E00010BD00F012FF1146FFF7E7FF06F0DAF846
:1001F00001F09EF803B4FFF7F0FF03BC01F020F913
:100200000948804709480047FEE7FEE7FEE7FEE7AA
:10021000FEE7FEE7FEE7FEE7FEE7FEE704480549E6
:10022000054A064B70470000ED4E000831010008FA
:10023000D80E0020D8140020D8100020D81000209C
:10024000B2F120030AD5C2F1200320FA02F001FA2C
:1002500003F321FA02F140EA0300704721FA03F0A8
:100260004FF00001704700000FB4044910B503AA15
:10027000029800F001FC10BC5DF814FBD00D0020CA
:1002800070B5044685690068C10601D5302600E0D6
:100290002026C00707D070BDD4E901213046904721
:1002A000206A401C20626D1EF6D570BD70B50446F4
:1002B00085690078C00707D170BDD4E901212020ED
:1002C0009047206A401C20626D1EF6D570BD00006C
:1002D0002DE9F0410646002410687529314616A51F
:1002E00010D0AFF30080002802DA404213A507E0E7
:1002F00031688A0701D512A502E0490704D511A586
:10030000012401E0AFF3008000210A2206F1240756
:1003100009E0B0FBF2FCB0FBF2F302FB1C00303052
:1003200078541846491C0028F3D123462A46304603
:10033000BDE8F04100F037B9000000002D000000DA
:100340002B000000200000002DE9F0474FF0000ACC
:1003500089460446C0F820A02046E1688847002866
:1003600076D0252806D0D4E901219047206A401C88
:100370002062F1E7E168204600268847C4F81CA007
:1003800005460027C4F818A02A2D09D0284605F0F4
:10039000A2FE38B304EB8708303DC8F8185019E0C6
:1003A00059F8041B204604EB87029161E1688847F5
:1003B000012F054618D1E069002820DA26F0200632
:1003C0001DE0D8F8180000EB800005EB4000303845
:1003D000C8F818002046E1688847054605F07BFE0E
:1003E0000028EED1012F0AD02E2D08D12046E16839
:1003F00088477F1C0546022F46F02006C4DBA06913
:10040000002803DA404246F00106A061F00701D05F
:1004100026F010066C2D0AD0682D08D04C2D39D04E
:100420006A2D35D0742D35D07A2D33D016E0E168A1
:100430002F4620468847B84205460AD16C2F27D060
:100440004FF48060E168064320468847054605E092
:1004500027E06C2F1AD04FF4807006430DB3A5F13E
:100460004100192802D8203546F400664A4629463C
:10047000204626604E46FFF795FE80B101280BD03E
:10048000F61D26F0070000F1080965E74020E4E7C3
:100490008020D7E70020D5E706F104095CE728466D
:1004A00061E7206ABDE8F08770B5C468A50713D07E
:1004B000650211D4B2F5807F09D0B2F5007F06D075
:1004C000B2F5806F08D1012300F1240106E05D1E22
:1004D0006FF07F46B54201D3012070BD0161C36159
:1004E000416024F470611143C160002070BD10B5FB
:1004F000203AC0F00B80B1E81850203AA0E818501C
:10050000B1E81850A0E81850BFF4F5AF5FEA027CDC
:1005100024BFB1E81850A0E8185044BF18C918C04B
:10052000BDE810405FEA827C24BF51F8043B40F8EC
:10053000043B08BF7047D20728BF31F8023B48BFD1
:1005400011F8012B28BF20F8023B48BF00F8012B0F
:1005500070474FF0000200B5134694469646203986
:1005600022BFA0E80C50A0E80C50B1F12001BFF46C
:10057000F7AF090728BFA0E80C5048BF0CC05DF8D2
:1005800004EB890028BF40F8042B08BF704748BF20
:1005900020F8022B11F0804F18BF00F8012B704794
:1005A0007047704770472DE9F0470D4699469246CF
:1005B000044600F124080168880604D5E06921F0AA
:1005C0001001216000E00120A84201DD471B00E08E
:1005D0000027A1697A1902EB0900081AA0612078A6
:1005E000C00602D42046FFF74BFE002608E0D4E9FF
:1005F00001211AF806009047206A401C761C2062F0
:100600004E45F4DB2078C0060AD52046FFF738FEB9
:1006100006E0D4E9012130209047206A401C206286
:10062000381EA7F10107F4DC07E0D4E9012118F82E
:1006300005009047206A401C2062281EA5F1010594
:10064000F3DC2046FFF732FE2078000602D50220B8
:10065000BDE8F0870120FBE770472DE9FF4F0C460E
:100660001E464FF0FF378BB0D2E90001DDF8608005
:100670000A908A46C1F30A5505B93D46002108464D
:100680004FF00000BAF1000F00F4400005DA00EB73
:1006900080004FF4400101EA50004FEA9059B9F14F
:1006A000010F00DDB9460A9850EA4A000ED044F620
:1006B0001050A5F2FF3545432F14B8F1000F1ED09E
:1006C0007542291E1EDDC9F100021CE0B8F1010FC0
:1006D0004FF0000001D0302103E0F24305E0215447
:1006E000401CB042FBDB30460022002121540B9914
:1006F000C1F80880C1E900200FB0BDE8F08FBD1B34
:100700006D1CDEE74A4600DA694206A800F05EFB8F
:1007100006AB93E8070003AB83E8070050460A994D
:1007200000F02AFF8DE80700A0F500501F38009068
:100730000398002D0ADD42F21F014A4608440023B7
:1007400003A90390684601F093F909E0A0F5005071
:100750004A461F38002303A90390684601F09DF91B
:100760008DE807000004000C03D04FF0FF30410873
:1007700000E01046B8F1000F03D0002200921546A9
:100780001EE0751E05D400F084FA303262556D1EED
:10079000F9D5B3460122084302D000227F1C04E0B1
:1007A0002078302801D100227F1E002A099784D0AA
:1007B0001DE0112D07DA00F06CFA303262556D1C25
:1007C00050EA0102F5D1084302D00098C8B10EE00A
:1007D0000021681E05E0235C625C63542254401EC5
:1007E000491C8142F7DBAB46A81B401E0990002044
:1007F00004F80B000B98099AC0F80880C0E9002B98
:100800007AE711264FF0000857E72DE9F04F8846A8
:100810000446D21D22F0070191B0D1E90001CDE9D3
:100820000A0105F034FC02460B98C00F01D02D20C0
:1008300007E02068810701D52B2002E0202101EA92
:10084000C000032A099001D0072A05DB0346414670
:10085000204600F07BFA0BE12078800601D5E069A4
:1008600000E00620B8F1650F814606D0B8F1660FAA
:1008700018D0B8F1670F70D131E00020B9F1110F35
:10088000009001DB112301E009F101030AAA01A98B
:100890000CA8FFF7E2FEDDE90C70002609F1010566
:1008A000834647E001204B4600904FF000470AAADC
:1008B00001A90CA8FFF7D1FEDDE90DB00C995D464A
:1008C000002610B909F101000D18B9EB050003D499
:1008D000C0F1FF3609F10105A5EB09002BE0B9F1E4
:1008E000010F01DA4FF001090020B9F1110F00905A
:1008F000484601DD112300E003460AAA01A90CA81D
:10090000FFF7ABFEDDE90C704D46002683462078EC
:1009100000070AD4AB4500DA5D4601A8012D04DDCD
:10092000411911F8011C302907D04F4502DA17F19F
:10093000040F04DA012082460FE06D1EEEE7002F5F
:1009400002DCED1B3E4403E0781CA84200DD7D1C68
:10095000B81B00F1010A4FF000472078000703D4CC
:10096000AA4501DB4FF0FF3A0021B7F1004F0DF12E
:1009700043088DF8431024D002202B23002F01DAE6
:100980007F422D230A21021EA0F1010000DC5FB18D
:1009900097FBF1FC97FBF1F201FB1C7C17460CF175
:1009A000300C08F801CDEEE7A8F1010003702188B2
:1009B000090501D5452100E06521A0F1010800F8F5
:1009C000011C09980FA9A1EB0807FF1D00B1012028
:1009D000411901EBEA70A1693844081A401EA06170
:1009E0002078C00602D42046FFF74AFC099828B1B7
:1009F000D4E901219047206A401C20622078C0067B
:100A000022D52046FFF73CFC1EE0002E04DBB34558
:100A100002DD01A8805D00E03020D4E9012190478B
:100A2000206A401C2062761CAAF101005FEA000ADD
:100A30000AD100F003F9C0680168405CD4E90121E3
:100A40009047206A401C2062281EA5F10105DCDCCD
:100A500007E0D4E9012118F8010B9047206A401CF7
:100A60002062381EA7F10107F3DC2046FFF71EFCC9
:100A7000032011B041E60000074B70B50D467B44E2
:100A800000F051F90446284600F012FA10B14FF078
:100A9000FF3070BD204670BD0B59000010B54248B4
:100AA0005421FFF756FD41485421FFF752FD4048BD
:100AB0005421FFF74EFD3F493B483C4A3F4B0860FD
:100AC0003D490A603A491960531C0365481C10658A
:100AD000012008653B48344A39A1784400F0ECF91C
:100AE00020B9384878440A3800F082FA37482F4A4B
:100AF00035A1784400F0E0F920B9344878440A3848
:100B000000F076FA32482A4A2FA1784400F0D4F94E
:100B100020B92F4878440A3800F06AFA4023224866
:100B2000DC0000212246FFF7BFFC20B125487844B5
:100B3000543800F05DFA1D48224640230021FFF79B
:100B4000B3FC20B121487844543800F051FA1848D9
:100B5000224610230021FFF7A7FC002806D01C48DE
:100B60007844BDE81040563800F042BA10BD104835
:100B700070B5006D20F001040B4800F013FA0B482B
:100B800000F010FA0A4800F00DFA09E0206D20F09C
:100B90000105204600F006FA204600F053F82C46E6
:100BA000002CF3D170BD00007C0D0020D00D002082
:100BB000240E002064000020680000206C0000204B
:100BC00072000000666700007700000052670000B6
:100BD0003E6700000EB5CDE9000100F0D1FB0290A8
:100BE00069460120ABBE0EBD08B5694600900220E3
:100BF000ABBE08BD1FB58DE8070069460520ABBE3A
:100C000004B010BD1FB58DE80F0069460620ABBECD
:100C1000F6E708B5694600900920ABBE08BD1CB5D3
:100C2000CDE9000169460A20ABBE1CBD704708B57E
:100C3000694600900C20ABBE08BD0000004870471C
:100C4000980E002070B50446051F00F003FA0068F6
:100C5000002C14BF446870BD002C18BFAC423CBFD0
:100C600020466468F8D301680A18AA4218BF456094
:100C700003D12A6805461144016028684119A14240
:100C80001CBF6C6070BD61686960216808442860A1
:100C900070BD30B5B0F10A024FEA900E71F1000359
:100CA0004EEA817EB0EB0E0061EB91014FEA101E1F
:100CB0004EEA017E10EB0E0041EB11114FEA102EAF
:100CC0004EEA016E10EB0E0041EB11214FEA104E7F
:100CD0004EEA014E10EB0E0041EB1141401841F17C
:100CE00000014FEAD00040EA41704FEAD10110EB19
:100CF00080054FEA810444EA907444EB01046D19C5
:100D000044EB0404521BA3414FF0000348BF0A32D6
:100D100000D530BD401C41F1000130BD01694A1CC5
:100D200002610878704700B58FB0CDE9013100212C
:100D3000059105497944CDE9031011466846FFF74E
:100D400003FB0FB000BD0000E5FFFFFF2DE9F04100
:100D50001F46044603260168072A01F4006004DBED
:100D600008B116A505E016A503E008B115A500E039
:100D700015A521F010002060A069C01EA0610FB170
:100D8000401EA0612046FFF77BFA4FB1D4E9012154
:100D900038469047206A401C2062C01C206206E052
:100DA000206AFAE7D4E9012115F8010B9047761E75
:100DB000F8D22046FFF77AFABDE8F0814E414E00A6
:100DC0006E616E00494E4600696E66002DE9F0477F
:100DD000814616468AB0354878440DC88DE80D0026
:100DE00032487844801C03AC0DC884E80D0041F6FD
:100DF0009B300844372190FBF1F290FBF1F5A5F10F
:100E0000800501FB12041B3C02D56442012000E076
:100E10000020DFF898A080460027FA44AAF1BE0A15
:100E20000EE0E0070AD03246684607EB470101238F
:100E30000AEB810100F031FE8DE8070064107F1C91
:100E4000002CEED1194F7F44AE3F19E0E80715D0D2
:100E500007EB04100DF1180A90E80E008AE80E0066
:100E6000C068F04201D1981908903246012306A9C2
:100E700003A800F012FE03AB83E807006D10641CAA
:100E8000002DE3D14FF0010332466946B8F1000F5F
:100E900003A802D000F0ECFD01E000F0FEFDC9E97E
:100EA0000001C9F808200AB0BDE8F087F06400002E
:100EB000007B00F0800070472DE9F0410C460746AA
:100EC0001646104600F06EF82078611C61280AD0A2
:100ED000722802D077283CD102E00125002405E0E9
:100EE0000225042402E0082448F2020511F8010B4F
:100EF0002B2806D0622809D011F8010C74280AD0DA
:100F00000BE045F0030544F00204EFE745F004056B
:100F100044F00104EAE744F0100438462146FFF7A4
:100F200059FE411C15D00021316171604FF40071F0
:100F3000F560F1617061200704D53046022200217E
:100F400000F002F9306D40F0010030653046BDE838
:100F5000F0810020FBE72DE9F0410D460646104CDC
:100F6000206DC10704D0410804D020F00104F7E748
:100F700022460EE0542000F0B8F807000ED0206D95
:100F800047F001010843542120653846FFF7E1FA94
:100F90003A4629463046BDE8F0418DE70020D6E7C5
:100FA0007C0D00202DE9F04704464FF000094FF07A
:100FB000FF37C568D4E90486A80707D0204600F0AB
:100FC00073F93046FFF710FE002802DA3846BDE814
:100FD000F087280502D54046FFF734FE4C21204615
:100FE000FFF7B7FA206D20F0010020654846EEE7D4
:100FF00010B500F0ABF9BDE8104000F0A2B9000058
:1010000000487047780E002070477546FFF7F8FFDC
:10101000AE4605006946534620F00700854618B0E5
:1010200020B5FFF7FBF8BDE820404FF000064FF079
:1010300000074FF000084FF0000B21F00701AC460D
:10104000ACE8C009ACE8C009ACE8C009ACE8C0092C
:101050008D46704700487047800E002070477047EB
:101060007047704738B504460A4600206946AFF31A
:101070000080002808BF38BD02460099204600F0D5
:10108000ECF9012038BD012000F03BBAF8B5AFF310
:101090000080054600200C46102000BF0646A81917
:1010A000A0420DD9324669460020AFF30080070008
:1010B00008BF00F026FA0098A04218BF0546C419E0
:1010C000FFF7C8FF05600746F01D20F0070046192E
:1010D000284600F0BBF9B44208BFF8BDA21B314658
:1010E0003868BDE8F84000F0B8B970B50646FFF7BB
:1010F000B1FF056806F10B0020F00704B4429CBF65
:10110000002070BD2B466A68BAB11068A04210D3A7
:1011100004F1080188423CBF5068586007D3516809
:10112000101941601168091B016058601460101D9E
:1011300070BD13465268002AE7D121462846FFF7C2
:1011400091FF0028DED170BD2DE9F041044616461E
:101150000D464769007B80072ED03846FFF759FDC2
:1011600050BB3EB3012E02D0022E25D104E0204612
:1011700000F08DF905441DE03846FFF758FDE168A1
:10118000002841F01001E16005DA204600F058F82F
:101190000120BDE8F081C9030BD56268E16A914284
:1011A00000D81146A26911442269891A814200DDE2
:1011B00008460544002D01DA0220EAE7E16A60688A
:1011C000E268814206D29103E06203D522F4003145
:1011D00041F01002A6690027AE4213DCE16A8142A9
:1011E00001D90B4600E0034603EB060C2369ACEB88
:1011F000030CAC4506DD814201D98C4600E08446F3
:101200009C4505D1A760276042F02000A5620DE053
:10121000AD1BE669AE1B8142A66000D90846C01A24
:10122000281A20605819606022F020000349084005
:10123000E060002084F84870ABE70000BFCFD7FF24
:10124000C16821F4001141F08001C160002181607A
:10125000016070472DE9F047814614460E464FF075
:10126000FF383248D5685769054209D03846A16928
:10127000FFF7D5FC002811DB2C48C0430540E56092
:101280002B46324649463846FFF7B4FCA16920F0A8
:101290000042B21A11440028A16103D02046FFF792
:1012A000CFFF4046BDE8F08770B504460569C06AC7
:1012B0006168884200D80846E16821F42011E160A5
:1012C000C90312D5A84208D02246411B2846FFF781
:1012D000C1FF10B14FF0FF3070BD0020E562C4E9DE
:1012E0000150E06820F48030E060002070BD10B54F
:1012F0000446C06820F02000E060A16AA06988422E
:101300000DD02046FFF7D0FFE06820F4405040F0B9
:101310001000E060A06AA0612069E062606044F2B1
:101320004001E0688843E06010BD0000100002004A
:1013300010B50446AFF300802046BDE81040FEF72C
:1013400059BF002801D000F07BB8704710B50146A6
:1013500002A000F0BDF8012010BD00005349475223
:10136000545245443A2052656469726563743A2068
:1013700063616E2774206F70656E3A200000000074
:1013800010B5431C02E010F8011B71B18107FAD1BE
:101390004FF0013202C88C1A8C4314EAC211F9D002
:1013A000C01A0A0603D0C01E10BDC01A10BD0A0420
:1013B00001D0801E10BD0902FCD0401E10BD0000EF
:1013C0004FF0013C50F8042B51F8043B9A4221D1D4
:1013D000A2EB0C03934313EACC1317D150F8042B60
:1013E00051F8043B9A4215D1A2EB0C03934313EA44
:1013F000CC130BD150F8042B51F8043B9A4209D17D
:10140000A2EB0C03934313EACC13DBD04FF00000A4
:10141000704700BFD01A01BAB1FA81F101F018018A
:1014200022FA01F0CB40C1F12001DBB2C0B2C01AF8
:101430002CFA01F3D11A914311EAC311E6D1704796
:1014400001491820ABBEFEE7260002000021016022
:10145000C0E90110704710207047034640688C4671
:10146000002818BF88423CBF03464068F8D318687C
:101470001844884207D00CF1030020F00700001D3B
:10148000411A521A0146081D0A60FFF7DBBB10B56E
:101490000146C268900703D0900607D5886A0AE023
:1014A00000F03EF801210160881E10BD8B6948687C
:1014B00018440B69C01A91F848301BB191F84910D3
:1014C000401A10BD1103FCD50028FADD401E10BDE6
:1014D00070B505460C460A2000E06D1C00F018F8B7
:1014E00035B128780028F8D102E0641C00F010F82B
:1014F00014B120780028F8D1BDE870400A2000F02F
:1015000007B810B500F010F8BDE81040FFF719BF9C
:1015100008B569468DF800000320ABBE08BD000089
:1015200000487047780E002010B5012805D0002132
:1015300003A0FFF7CDFF012010BD09A1F8E70000CF
:1015400053494752544D454D3A204F7574206F66AC
:101550002068656170206D656D6F72790000000014
:101560003A2048656170206D656D6F727920636FF8
:1015700072727570746564005FEA400C08BF91F088
:10158000000F4FEA8C234FEAC12243EA51514FEA40
:101590001C5018BF00F5F0404FEA300018BF41F072
:1015A00000415FEA6C5C00F02980BCF1FF3F08BF9E
:1015B00040F080407047130C06BF12044FF0100C2F
:1015C0004FF0000C130E04BF12020CF1080C130FA5
:1015D00004BF12010CF1040C930F04BF92000CF134
:1015E000020CD30F04BF52000CF1010C11464FF056
:1015F0000002A0F11F00A0EB0C00704711F0004F9B
:1016000008BF704731F000413FF4D5AF0B0C06BF67
:1016100009044FF0100C4FF0000C0B0E04BF090230
:101620000CF1080C0B0F04BF09010CF1040C8B0F1B
:1016300004BF89000CF1020CCB0F04BF49000CF170
:10164000010CCCF12003A0EB0C0022FA03F302FA08
:101650000CF241EA030100F10100704720F07F4CD9
:1016600080EA030023F07F47ACEB070303F57C53CC
:1016700000F0004003F1FF032DE980494FEA154BCC
:1016800009B44FEA144325EA0B4E24EA03480FF24B
:10169000042606EB132749083E785FEA320203FB73
:1016A0000667C7F5000707FB06F64FEA54374FEA0F
:1016B000D64606F1020607FB066CCCF1005C4FEA49
:1016C0001C472CEA074C07FB06F40CFB06F504EB61
:1016D00015464FEA961634BF00204FF000404FEAFF
:1016E000D13706FB07FC4FEA1C4C0CFB0BF7D21B57
:1016F00003FB0CF761EB07010CFB0EF7B0EB0740A7
:1017000072EB17420CFB08F734BFA2EB0742B2EBB7
:10171000074261EB17414FEA0C444FEA910706FB81
:1017200007FC4FEA1C4C0CFB0BF7B0EBC74072EB0D
:10173000573203FB0CF734BFA2EBC742B2EBC742F0
:1017400061EB57310CFB0EF7B0EBC70072EB577231
:101750000CFB08F734BFA2EBC702B2EBC70261EB88
:101760005771039F4FEA816141EA921104EBCC0467
:101770004FEAD1374FEA826206FB07FC42EA901239
:101780004FEA80604FEA1C4C0CFB0BF7D21B03FBAB
:101790000CF761EB07010CFB0EF7B0EB074072EBA7
:1017A00017420CFB08F734BFA2EB0742B2EB07422B
:1017B00061EB17414FEA8C554FEA910704EB9C24EB
:1017C00006FB07FC4FEA1C4C0CFB0BF7B0EBC740C9
:1017D00072EB573203FB0CF734BFA2EBC742B2EBFC
:1017E000C74261EB57310CFB0EF7B0EBC70072EB51
:1017F00057720CFB08F734BFA2EBC702B2EBC7026B
:1018000061EB577115EB4C254FEA816141EA92116A
:101810004FEA82624FEAD13742EA901206FB07FC98
:1018200044F100044FEA80604FEA1C4C0CFB0BF7BC
:10183000D21B03FB0CF761EB07010CFB0EF7B0EBBF
:10184000074072EB17420CFB08F734BFA2EB0742CC
:10185000B2EB074261EB174115EB1C154FEA8131E2
:1018600041EA92414FEA823242EA90424FEA8030A6
:101870004FEA0C7644F1000448EA03434EEA0B4871
:101880004FF0000EB2EB080C71EB030724BF624669
:1018900039464EEB0E0E4FF0000B001852414941F5
:1018A0004BEB0B0BB2EB080C71EB03077BF1000B5E
:1018B00024BF624639464EEB0E0E4FF0000B001867
:1018C000524149414BEB0B0BB2EB080C71EB030798
:1018D0007BF1000B24BF624639464EEB0E0E51EAF7
:1018E000020718BF46F0010616EB0E7655F100020E
:1018F00054F1000103D5BDE88901BDE80088BDE8C9
:101900008901BDE80048B619524141EB0101A3F13C
:101910000103704780807F7E7D7C7B7A7978777643
:1019200076757473727171706F6E6E6D6C6C6B6ABC
:101930006A6968686766666564646363626161605A
:10194000605F5F5E5E5D5D5C5C5B5B5A5A595958D7
:101950005857575656555555545453535252525141
:10196000515050504F4F4F4E4E4D4D4D4C4C4C4B97
:101970004B4B4A4A4A4949494848484747474746DE
:10198000464645454544444444434343434242421A
:1019900042414141002B9C4630D477002BD01CB5EE
:1019A0004FEA370703B44FF010004FF01001BAF1BF
:1019B000000F06D0BCF1000FDCBF40F0080040F083
:1019C00008014FF000000FBCBDE810400BF1010B07
:1019D000BBF1010F08BF5FEA170722BF12F1010236
:1019E00011F101014FF0004143F1000300F000400C
:1019F00043EA00007047F9D35708D0E746EA0646A5
:101A000013F1400F4FEA16461FDD13F1200FDFBF21
:101A100016430A46002120335B42BED0C3F12007A3
:101A200046EA064602FA07F74FEA164646EA07066E
:101A3000C3F1200722FA03F201FA07F721FA03F1B2
:101A40004FF0000342EA0702A7E746EA020646EA29
:101A500006464FEA164646EA0106BCBF46EA064677
:101A6000360C4FF000034FF000024FF0000194E7F6
:101A70002DE9804C9A46934670B491E8380007C827
:101A800031EA400C48BF34EA430C03D5FFF7E6FDCA
:101A9000FFF780FFF0BCBDE8008C2DE9804C9A4632
:101AA000934670B491E8380007C810F0804F08BF23
:101AB00013F0804F03D100F005F8FFF76BFFF0BC87
:101AC000BDE8008C20F07F4780EA030023F07F4CC4
:101AD00007EB0C03A3F57C5300F00040A3F1FE03D9
:101AE00092F0000F00F0B38095F0000F00F07780C7
:101AF0002DE901494FEA11404FEA144621EA004816
:101B000000FB06FC24EA064708FB06F607FB08F87C
:101B100000FB07F718EB06484CEB164C4FEA124B4C
:101B200018EB07484FEA15464CEB174022EA0B4EDC
:101B30000BFB06FC25EA06470EFB06F607FB0EFE2E
:101B40000BFB07F71EEB064E4CEB164C4FF0000656
:101B50001EEB074E4CEB174B18EB0B0840F1000047
:101B600018EB0E0B58EB000840F100008F1A4FF0F5
:101B700000013CBFC943661B14BFB5EB040C002138
:101B80003CBFC943F61B4FEA17444EEA8E0E27EAC4
:101B900004454FEA1C4704FB07622CEA074C05FB8F
:101BA00007F70CFB05F604FB0CFC16EB074642EBB3
:101BB000174216EB0C4642EB1C421BEB060658EB99
:101BC0000202414146EA9E0601D5BDE80189B619E7
:101BD000524141EB0101A3F10103BDE801894FEA44
:101BE00014454FEA114724EA054621EA074C05FB54
:101BF00007F406FB07F70CFB06F105FB0CFC11EBE9
:101C0000074144EB17444FEA124711EB0C4144EBF8
:101C10001C4422EA074C05FB07F206FB07F70CFB06
:101C200006F605FB0CFC16EB074642EB174216EBDB
:101C30000C4642EB1C456A1854F1000148BF70473E
:101C4000B619524141EB0101A3F10103704795F030
:101C5000000F37D04FEA11424FEA144721EA0246FB
:101C600024EA074C02FB07F106FB07F70CFB06F41E
:101C700002FB0CFC14EB074441EB17414FEA1547FC
:101C800014EB0C4441EB1C4125EA074C02FB07F521
:101C900006FB07F70CFB06F602FB0CFC16EB0746EF
:101CA00045EB174516EB0C4645EB1C42121951F15A
:101CB000000148BF7047B619524141EB0101A3F141
:101CC000010370474FEA14454FEA114724EA0546DD
:101CD00021EA074C05FB07F106FB07F70CFB06F2B0
:101CE0004FF0000605FB0CFC12EB074241EB1741DD
:101CF00012EB0C4251EB1C4148BF7047921841EB6C
:101D00000101A3F10103704770B5044600688168C2
:101D1000C943C90717D1816821F00101816001F031
:101D20004BFA05460AE000BF01F046FA401B0228C4
:101D300004D920688068C043C00706D02068806846
:101D4000C043C007F0D0002070BDA06A40F0100072
:101D5000A062E06A40F00100E062012070BD000076
:101D6000F8B500260446009600688168C943C90793
:101D70002DD0816841F00101816016481649006844
:101D8000B0FBF1F000E0401E00900028FBD101F014
:101D900013FA054616E000BF01F00EFA401B0228B8
:101DA00010D920688068C043C0070BD0A06A40F0FB
:101DB0001000A062E06A40F00100E06284F8246054
:101DC0000120F8BD20688068C043C007E4D100202E
:101DD000F8BD00000C00002040420F00FEE70000AC
:101DE000014800F0EEBB0000E4000020014800F0D4
:101DF000E8BB0000E4000020014800F08BBE0000BA
:101E0000A0000020014800F085BE0000E003002093
:101E1000014800F07FBE00009C030020014800F054
:101E200079BE000058030020014800F073BE000096
:101E30001403002030B590F840500124AC40C56B2D
:101E40006C60046863604368102B036803D099607A
:101E50000068C26030BD9A600068C16030BD00009B
:101E600010B5084A012802D0022807D101E002215A
:101E700000E00421104601F095F908B1002010BDE2
:101E8000012010BD000C014001221021014801F089
:101E90008EB900000008014011B583B000200D4C40
:101EA000ADF8040002461021204601F080F94FF001
:101EB000FF300090012301AA03A9074801F0EAFDC1
:101EC00001221021204601F072F9BDF8040004B08F
:101ED00010BD0000000801400C01002010B50024D6
:101EE000094800F0F3FA08B1002010BD0A210648A5
:101EF00000F04EFA18B9044800F06CF984B20248B8
:101F000000F044FB204610BD70000020F0B585B005
:101F1000054601F037F8002601272C680BE0CDE9D3
:101F2000024704A96846009600F08EFF08B100F051
:101F300046F8A86804446868A042F0D805B0BDE837
:101F4000F04000F0D5BF000070B50A4D0C4608B156
:101F5000012200E000220221284601F028F90CB1FC
:101F6000012200E000222846BDE87040042101F073
:101F70001EB900000008014070B50A4D0C4608B1BA
:101F8000012200E000220421284601F010F90CB1E2
:101F9000012200E000222846BDE87040082101F03F
:101FA00006B90000001001408208034803681A6463
:101FB00000688908C1637047AC010020704772B6A1
:101FC000FEE7000006490020C8610648016941F0AB
:101FD00004010161016941F04001016170470000A5
:101FE0002804002000200240064A0021D161064951
:101FF0000A6942F002020A614861086940F0400043
:10200000086170472804002000200240044B002291
:10201000DA61044A136943F00103136101807047D8
:10202000280400200020024014480022C168CB068A
:10203000134904D5CA6942F00202CA611022C3687A
:102040005B0705D5CB6943F00103CB6142F0040285
:10205000C369DB0707D0CB6943F00403CB61C169D7
:1020600021F00101C161A2F58071013901D0C26086
:102070007047C16921F00101C16170470020024031
:102080002804002070B5054601F096F80646114C6C
:1020900009E0681C07D025B101F08EF8801BA8422A
:1020A00001D9032070BDE068C007F2D1E068800666
:1020B00001D52020E060E068C00605D4E069C007D3
:1020C00002D1E068400703D5FFF7AEFF012070BDE5
:1020D000002070BD00200240F8B50024009490F864
:1020E00024202546012A12D0012280F824204A68A3
:1020F0001F23072A0DD20668776B521E02EB82025D
:1021000093409F430B6893401F43776319E002207D
:10211000F8BD06680D2A0AD2376BD21F02EB820285
:1021200093409F430B6893401F43376309E0F76A6E
:102130000D3A02EB820293409F430B6893401F438A
:10214000F7620A68072306680A2A0AD3F7680A3A78
:1021500002EB420293409F438B6893401F43F7601A
:1021600008E0376902EB420293409F438B6893403B
:102170001F4337610A68102A01D0112A20D1124B5F
:1021800002689A4217D193681B0219D4936843F4EA
:10219000000393600968102912D10C490C4A0968A0
:1021A000B1FBF2F101EB8101490000E0491E009111
:1021B0000029FBD104E0816A41F020018162012401
:1021C00080F824502046F8BD002401400C00002077
:1021D00040420F000068C06C704700002DE9F041DC
:1021E00004004FF000057FD0A06A002628B9E662FF
:1021F00084F82460204600F081F82046FFF784FD33
:10220000A16AC90600D420B1A06A40F01000A06203
:102210006AE0A16A21F4885141F00201A1623349C8
:1022200023688B42E16904D1B1F5402F01D14FF40D
:102230000021277B4FF4807C41EA470261680A4312
:10224000A168614508D0012906D0002194F814E066
:10225000BEF1010F02D00AE06146F7E7C7B1A76AF5
:1022600047F02007A762E76A47F00107E7625F6867
:1022700027F469470F435F60236899681C4F394012
:1022800011439960A16861450BD0012909D00CE088
:10229000DFF860E0A7690EEB47370F4347F40061B2
:1022A000E5E7218A0D05A5F580152168CB6A23F4A1
:1022B00070032B43CB62216889680F4B1940914210
:1022C00008D1E662A16A21F0020141F00101A16298
:1022D000BDE8F081A06A20F0020040F01000A0628A
:1022E000E06A40F00100E0620120F1E7003C0140BB
:1022F000FDF7E1FF00E0FFFFFE0E1FFF70B586B0A7
:1023000000260546009601960296039600681B4932
:10231000884230D11A49886940F400708861886920
:1023200000F400700490886940F0040088618869B6
:10233000694600F004000490012000900320019001
:10234000104800F033FE114C0F48C4E9000680200D
:10235000C4E9026040002061800060612020A0612B
:102360004FF44050E061204600F0F8FC08B1FFF760
:1023700026FE2C62656206B070BD0000002401409C
:10238000001002400008014008000240A0000020A8
:102390002DE9F84300270D460446009700F00CFF96
:1023A000804620688168C90508D5A06A40F02000F1
:1023B000A06284F824700120BDE8F8834168C90553
:1023C00003D4C06A10F4700F2AD0022000F092FFEC
:1023D0003B490968B1FBF0F62068036939490B42B3
:1023E0004FEA61014FEAA1121FD1C3684FEA611C95
:1023F00013EA0C0F19D103690B4225D1C0681042B2
:1024000022D1142023E0681C0AD02DB100F0D4FEA4
:10241000A0EB0800A84203D920680068800725D5F2
:10242000206800688007EED52DE003690B4202D1D9
:10243000C168114206D0026923490A4206D1C06828
:10244000084203D1542002E0292000E0FC2046434A
:10245000009816E0681C11D02DB100F0ADFEA0EB85
:102460000800A8420AD90098B04207D2A06A40F0FA
:102470000400A06284F8247003209DE70098401CAB
:102480000090B042E6D321686FF012000860A06AA5
:1024900040F40070A06220688068C0F342400728C2
:1024A0000CD1207B50B9A06A20F48070A062A06A91
:1024B000C00403D4A06A40F00100A06200207BE7C2
:1024C0000C000020244992244992240070B504464F
:1024D00090F8240001280DD0012084F82400204623
:1024E000FFF73EFC02004FF0000005D084F8240006
:1024F000104670BD022070BDA16A40F201239943CD
:1025000041F48071A1621F4D23681F49AB4218D16D
:102510000E6816F4702F14D0A66A46F48016A662D0
:102520000E68760505D5A66A26F4005646F4805650
:10253000A662A66AF6040AD5E66A26F00606E662F0
:1025400006E0A66A26F48016A6625E68E9E7E06205
:1025500084F824006FF00200186020688368C3F3D9
:102560004243072B05D1A84208D1096811F4702F06
:1025700004D0816841F480118160B9E7816841F439
:10258000A001F9E7002801400424014010B50446E9
:1025900090F82400012807D0012084F82400204668
:1025A000FFF7B2FB10B107E0022010BDA16A21F4D1
:1025B000885141F00101A162002184F8241010BD6E
:1025C00070472DE9F05F0546006800244669D0F8A1
:1025D00004908768D0F80CB0D0F810A0D0F818801C
:1025E000F10748D0F90714D001218160B80703D55D
:1025F000284600F0CDF90CE0780702D54FF40064CE
:1026000007E0380702D54FF4805402E0284600F076
:10261000BEF9F80516D529684FF480708860B805B2
:1026200003D5284600F0B6F90CE0780502D544F44D
:10263000005407E0380502D544F4804402E02846FF
:1026400000F0A7F9F80316D529684FF480308860A8
:10265000B80303D5284600F09FF90CE0780302D5B3
:1026600044F4004407E0380302D544F4803402E027
:10267000284600F090F9300707D55FEACB6004D513
:102680002968102044F40074C86070074FF00807F0
:1026900007D55FEA0B7004D52868C760284600F0AC
:1026A00071F9B00706D52868C068800702D02846AF
:1026B00000F069F9700607D55FEACA6004D5296899
:1026C000102044F480640861B00607D55FEA0A7000
:1026D00004D528680761284600F056F9F00606D5AB
:1026E00028680069800702D0284600F04EF9B00340
:1026F00008D55FEAC96005D52968102048602846DA
:1027000000F044F9F00307D55FEA097004D52868A2
:102710004760284600F041F9300446D55FEA497029
:1027200040D5F00504D55FEAC87001D044F001043B
:10273000B00504D55FEA887001D544F00204700545
:1027400004D55FEA487001D544F00404300529D56A
:1027500018F0700F26D008F07000402815D006DC65
:10276000102809D020280AD0302816D10AE0502895
:102770000ED0602811D10EE044F008040DE044F0C2
:1027800010040AE044F0200407E044F0400404E0B0
:1027900044F0800401E044F480742868816921F0E9
:1027A00070018161296804204860002C05D0686AA6
:1027B000204368622846FFF703FFBDE8F09F70B52D
:1027C000040003D094F8200010B104E0012070BD93
:1027D000204600F081F82068016841F001010160A5
:1027E00000F0EAFC0546052604E000F0E5FC401B8D
:1027F0000A2811D820684068C007F6D02068016810
:1028000021F00201016000F0D7FC05460BE000F06A
:10281000D3FC401B0A2806D9606A40F4003060628D
:1028200084F82060D2E7206840688007EFD4207EDB
:102830000128206801683DD021F080010160607EA0
:1028400001282068016838D021F040010160A07E95
:1028500001282068016833D021F020010160E07E6A
:102860000128206801682ED041F010010160207F0E
:1028700001282068016829D021F008010160607FEB
:1028800001282068016824D021F004010160D4E906
:1028900002010843D4E90412114308436168491E48
:1028A00008432168C86100206062012084F820008C
:1028B000002070BD41F08001C0E741F04001C5E754
:1028C00041F02001CAE721F01001CFE741F00801F3
:1028D000D4E741F00401D9E710B586B0002100919A
:1028E00001910291039100682349884242D1234813
:1028F000C16941F00071C161C16901F000710491C9
:10290000816941F00401816180691D4C00F004007F
:1029100004904FF4006000906946204600F046FBAA
:10292000A0140090022001900320039069462046E5
:1029300000F03CFB00221146132000F0A9FC1320FC
:1029400000F098FC00221146142000F0A1FC142095
:1029500000F090FC00221146152000F099FC152093
:1029600000F088FC00221146162000F091FC162091
:1029700000F080FC06B010BD006400400010024072
:1029800000080140704770477047704770477047B4
:1029900070477047704770477047704710B590F8A0
:1029A00021100022022905D00421816380F8202013
:1029B000012010BD01680B6823F00E030B60016855
:1029C0000B6823F001030B6090F84030C46B0121C9
:1029D00001FA03F3636080F8211080F8202010468C
:1029E00010BD00002DE9F05F90F8211000240229AD
:1029F00003D004218163012485E001680A6822F084
:102A00000E020A6001680A6822F001020A603F4E65
:102A10003E4FB215DFF8F4C0DFF8F090DFF8ECA01D
:102A2000DFF8E8B0DFF8E4E00168783F1301150251
:102A3000ACF1640CA9F15009AAF13C0AABF1280BE6
:102A4000AEF1140E4FF48018B14227D9B9420ED01E
:102A5000614512D049451DD0514518D0594518D06F
:102A6000714501D1424615E0294EB14201D1012202
:102A700010E0274E1436B14201D110220AE0244E54
:102A80002836B14206D0224A3C32914201D11A4640
:102A900000E02A461E49091F0A602BE0B94213D004
:102AA000614517D0494522D051451DD059451DD00B
:102AB000714501D142461AE0B14202D14FF0807215
:102AC00015E0134EB14201D1012210E0104E143630
:102AD000B14201D110220AE00D4E2836B14206D093
:102AE0000B4A3C32914201D11A4600E02A4607497E
:102AF00080394A60012180F82110002180F82010DF
:102B0000416B01B188472046BDE8F09F800002403C
:102B1000080402402DE9F05FC16B0A6801680B6888
:102B2000046C4FF0040808FA04F8844D844E854F75
:102B3000DFF814C2DFF81492DFF814A2DFF814B241
:102B4000DFF814E218EA020F65D05FEA437862D535
:102B50000A68920603D40A6822F004020A60DFF8C9
:102B6000F0814FF48062016808F114081301140227
:102B7000414524D9A9420DD0B1420FD0B9421AD053
:102B8000614515D0494515D0514501D1120312E0D8
:102B9000594501D104220EE0714501D140220AE0DD
:102BA0006D4D1435A94206D06B4A2832914201D1AD
:102BB0001A4600E022466749091F0A6029E0A94237
:102BC00013D0B14215D0B94220D061451BD0494540
:102BD0001BD0514502D14FF4800217E0414502D18C
:102BE0004FF0806212E0594501D104220EE0714598
:102BF00001D140220AE0584D1435A94206D0564A68
:102C00002832914201D11A4600E022464B49083948
:102C10004A60C16A71E04FF0020808FA04F818EA45
:102C2000020F70D05FEA83786DD50A68920606D4E9
:102C30000A6822F00A020A60012180F82110DFF8F8
:102C400010814FF40072016808F114081301140296
:102C5000414524D9A9420DD0B1420FD0B9421AD072
:102C6000614515D0494515D0514501D1120312E0F7
:102C7000594501D102220EE0714501D120220AE01E
:102C8000354D1435A94206D0334A2832914201D13C
:102C90001A4600E022462F49091F0A6029E0A9428E
:102CA00013D0B14215D0B94220D061451BD049455F
:102CB0001BD0514502D14FF4001217E0414502D11B
:102CC0004FF0007212E0594501D102220EE0714529
:102CD00001D120220AE0204D1435A94206D01E4A17
:102CE0002832914201D11A4600E0224613490839A0
:102CF0004A60002180F82010816A00291CD0BDE8BC
:102D0000F05F0847FFE70825A540154214D01A07D1
:102D100012D50A6822F00E020A6090F84020C36BB8
:102D2000012101FA02F25A60816380F8211000212A
:102D300080F82010016BE0E7BDE8F09F080002403A
:102D40001C00024030000240440002405800024093
:102D50006C000240080402401C04024030B560B11F
:102D60001A4B026814219A4209D2194B1344B3FB3F
:102D7000F1F18900016417490AE0012030BD134BCD
:102D80005B421344B3FBF1F1890001640F49083938
:102D9000C163022180F82110136843F6F0718B4360
:102DA000F0E901142143D0E902452C432143046991
:102DB000214344692143846921431943116000215F
:102DC0004163012242770177084630BD0804024082
:102DD000F8FFFDBF0000024070B5044690F82000E7
:102DE000002501280CD0012084F8200094F82160EF
:102DF0000020012E06D084F820000225284670BD50
:102E0000022070BD022684F82160A0632068066855
:102E100026F0010606602046FFF70CF8E06A00285D
:102E20002068016802D041F00E0106E021F00401A3
:102E300001602068016841F00A01016020680168B2
:102E400041F001010160D9E72DE9F0470546264828
:102E50000F460126017E01290FD00121814601760E
:102E60002868DFF888804CF25034022808D0A24647
:102E70002046FFF707F9A8B131E00220BDE8F0874E
:102E80002046FFF7FFF808BB0120FFF79BF820461C
:102E9000FFF7F8F8D8F81010064621F00401C8F83A
:102EA00010101CE04FF0FF303860AC6811E0204695
:102EB000FFF79AF85046FFF7E5F8D8F8101006002B
:102EC00021F00201C8F8101001D03C6007E004F5C1
:102ED0000064D5E9020100EBC120A042E7D800213F
:102EE00089F818103046C9E7280400200020024065
:102EF0000348016941F08001016100207047000032
:102F0000002002402DE9F05F07461C488846002457
:102F1000017E15461E46012909D001218146017610
:102F20004CF2503A5046FFF7ADF818B122E00220BB
:102F3000BDE8F09F012F02D0022F00D00427D34616
:102F4000DFF83CA0220128463146FDF779F981B22D
:102F500008EB4400FFF75AF85846FFF793F8DAF801
:102F6000102022F00102CAF8102018B9641CE4B243
:102F7000BC42E7D3002289F81820D9E728040020B2
:102F800000200240064900200A69120607D5054ABA
:102F90004A60054A4A600969090600D50120704760
:102FA0000020024023016745AB89EFCD2DE9F84FA2
:102FB000DFF8C8910024A9F1040B23460F2709F17B
:102FC000040AABF1040ED1E00125A54006EA050292
:102FD000AA4276D1DFF8A8C14E68A6EB0C08664578
:102FE0002BD00DDC032E34D005DC36B3012E19D0E6
:102FF000022E2FD11BE0112E16D0122E2AD119E04D
:10300000B8F5881F19D006DCB8F5803F15D0B8F5A3
:10301000801F1FD111E0B8F5001F0ED0B8F5041FB6
:1030200018D10AE0CB6815E0CB681B1D12E0CB6815
:1030300008330FE0CB680C330CE08B682BB1012B0D
:103040004FF0080303D0456104E0042302E005616A
:1030500000E00023FF2A01D8064601E000F1040643
:103060004FEA840501D9A5F12005D6F8008007FABA
:1030700005FC28EA0C0803FA05F548EA0508C6F835
:1030800000804D68ED0070D53E4DAE6946F00106FA
:10309000AE61AD6924F0030605F0010500953A4DD7
:1030A00006EB050CDCF80850A607360F07FA06F801
:1030B00025EA0805DFF8D480404503D14FF0000829
:1030C00025E052E0DFF8C880404502D14FF001080A
:1030D0001DE0DFF8C080404502D14FF0020816E045
:1030E000DFF8B480404502D14FF003080FE0DFF86D
:1030F000AC80404502D14FF0040808E0DFF8A08022
:10310000404502D14FF0050801E04FF0060808FAEB
:1031100006F848EA0508CCF808804D68D9F8006040
:10312000ED024D4601D5164300E096432E604D68F2
:10313000DAF80060AD02554601D5164300E096432B
:103140002E604D68DBF80060AD035D4601D5164387
:1031500000E096432E604D68DEF80060ED03754692
:1031600001D5164300E096432E60641C0A6816469B
:10317000E2407FF429AFBDE8F88F00000804014069
:103180000000111000100240000001400008014042
:10319000000C0140001001400014014000180140E3
:1031A000001C01408068084000D0012070470AB12F
:1031B000016170470904FBE701488068704700001F
:1031C0000000002002488168027811448160704745
:1031D00000000020074810B5016841F010010160AF
:1031E000032000F075F80F2000F006F800F024F836
:1031F000002010BD0020024070B50D4D04464FF474
:103200007A712878B1FBF0F00A490968B1FBF0F057
:1032100000F038FD48B9102C07D200222146501E7C
:1032200000F036F800206C6070BD012070BD000019
:10323000000000200C0000200C4808B5816941F016
:1032400001018161816901F001010091C16941F0D1
:103250008051C161C06900F080500090044841680D
:1032600021F0E06141F00071416008BD00100240B2
:1032700000000140002809DB00F01F0201219140FD
:103280004009800000F1E020C0F800117047000004
:10329000F0B40E4B1B680C46C3F30223C3F10705C1
:1032A000042D00D90425191D072901D2002300E0AF
:1032B000DB1E012606FA05F1491E214099409E4079
:1032C000761E16403143F0BC02F0F5BE0CED00E076
:1032D000064900F0070208684FF6FF03184040EA6D
:1032E0000220034A10430860704700000CED00E024
:1032F0000000FA0510B501460020284C04292FD003
:103300000BDC012930D0022929D100F06BF961686A
:10331000C1F38131491C49001FE0082920D0102940
:103320001DD161682268D20119D51D48C1F38342BD
:10333000C903805C0AD56168194AC1F34041921EF5
:10334000515C184AB2FBF1F1484301E01649484389
:103350006168490203D440000321B0FBF1F010BDC5
:10336000BDE8104000F04EB9226AC2F301210129E4
:1033700003D1920701D5C80310BD022905D1626AA5
:10338000920702D549F6404010BD0329FCD12168BF
:103390008903F9D54FF2244010BD0000001002400F
:1033A000E869000800127A0000093D002DE9F843A1
:1033B00005460078354CC00754D0E0690026C000AF
:1033C00008D4E06940F08050E061E069012600F037
:1033D000805000902E480168C90512D401688046CB
:1033E00041F480710160FFF7E7FE074605E000BF8A
:1033F000FFF7E2FEC01B642823D8D8F80000C00500
:10340000F6D5206A10F4407021D0A98801F44071EB
:1034100081421CD0206A1F49012220F440700A60BA
:1034200000220A602062C00711D0FFF7C5FE0746E0
:1034300041F2883808E000BFFFF7BEFEC11B4145DE
:1034400002D90320BDE8F883206A8007F4D5206AFA
:10345000696820F44070084320621EB1E06920F0E2
:103460008050E0612878800705D56068A96820F45D
:103470004040084360602878C00605D560686969E7
:1034800020F48000084360600020DBE70010024069
:1034900000700040400442422DE9F0470F4605000D
:1034A00061D0434E306800F00700B84209D230685E
:1034B00020F0070038433060306800F00700B84261
:1034C00051D128683B4C810712D5400703D560686D
:1034D00040F4E06060602878000703D5606840F43D
:1034E000605060606068A96820F0F0000843606088
:1034F0002878C00728D06868012810D021680228E1
:1035000010D0890700292EDA616821F003010143F8
:103510006160FFF751FE804641F288390DE0216875
:103520008903EFE78901EDE7FFF746FEA0EB08010D
:10353000494502D90320BDE8F0876068696800F05A
:103540000C00B0EB810FEFD1306800F00700B842FB
:103550000BD9306820F0070038433060306800F045
:103560000700B84201D00120E5E72878400705D5DB
:103570006068E96820F4E06008436060287800072C
:1035800006D56068296920F4605040EAC100606097
:1035900000F038F86168084AC1F30311515CC84073
:1035A0000649086006480068FFF726FE0020C2E7CB
:1035B0000020024000100240F86900080C000020C2
:1035C000040000200448054900684968044AC1F322
:1035D0000221515CC84070470C00002000100240DE
:1035E000086A00080448054900684968044AC1F3AC
:1035F000C221515CC84070470C00002000100240FE
:10360000086A00080E4A51680E4801F00C03042BAA
:1036100011D0082B0FD10C48C1F38343C903C05C00
:103620000AD55168084AC1F34041921E515C054ACF
:103630005043B0FBF1F07047044948437047000025
:103640000010024000127A00D669000800093D000F
:103650002DE9F84F040070D02078C04DC00749D044
:103660006868C0F38100012807D06868C0F3810052
:10367000022809D16868C00306D52868800339D5B7
:1036800060680028E7D035E06068B0F5803F0BD077
:1036900010B1B0F5A02F11D0286820F48030286038
:1036A000286820F4802002E0286840F480302860F8
:1036B000606890B1FFF780FD06460AE0286840F494
:1036C00080202860F0E700BFFFF776FD801B6428AC
:1036D00073D828688003F7D50CE0FFF76DFD064628
:1036E00005E000BFFFF768FD801B6428F0D828685C
:1036F0008003F7D420789A4E80074FF001094FF0ED
:10370000000839D5686810F00C0F07D06868C0F35E
:103710008100022809D16868C00306D428688007A0
:1037200014D52069012808D110E02069B0B1C6F88D
:103730000090FFF741FD074605E00AE1FFF73CFD79
:10374000C01B0228C4D828688007F7D5286861699B
:1037500020F0F80040EAC10028600DE0C6F80080C3
:10376000FFF72AFD074604E0FFF726FDC01B0228ED
:1037700023D828688007F7D4207800072CD579480B
:10378000A169D9B1C0F80090FFF716FD074604E023
:10379000FFF712FDC01B02280FD8686A8007F7D513
:1037A00071484FF4FA510068B0FBF1F0009000BF8F
:1037B0000098411E0091FAD20EE080E0C0F800802F
:1037C000FFF7FAFC074604E0FFF7F6FCC01B0228EF
:1037D00075D8686A8007F7D42078400760D5E86913
:1037E0000027C00008D4E86940F08050E861E8692B
:1037F000012700F0805000905C480168C90513D48F
:103800000168834641F480710160FFF7D5FC824670
:1038100006E000BFFFF7D0FCA0EB0A0064284ED8FA
:10382000DBF80000C005F5D5E06801280AD008B132
:10383000052813D0286A20F001002862286A20F0A9
:10384000040002E0286A40F001002862E06841F2CA
:10385000883B98B1FFF7B0FC82460BE0286A40F045
:1038600004002862EEE700BFFFF7A6FCA0EB0A0108
:1038700059455AD8286A8007F6D50CE0FFF79CFC1A
:10388000824605E0FFF798FCA0EB0A0159454CD8A9
:10389000286A8007F6D41FB1E86920F08050E861FB
:1038A000E06988B36968C1F38101022944D0022824
:1038B000C6F8608004D0FFF77FFC044638E034E0AF
:1038C000FFF77AFC074604E0FFF776FCC01B0228EE
:1038D0002BD828688001F7D4206AB0F5803F05D145
:1038E0006868A16820F4003008436860D4E90801E2
:1038F0000843696821F4741108436860C6F8609051
:10390000FFF75AFC044606E025E000BFFFF754FC31
:10391000001B022809D828688001F7D51BE000BFEA
:10392000FFF74AFC001B022802D90320BDE8F88FEC
:1039300028688001F4D40EE00128F7D06868226A74
:1039400000F48031914204D1616A00F47010884221
:1039500001D00120EAE70020E8E700000010024063
:1039600000004242800442420C00002000700040EF
:1039700070B5040009D0606A002540B12561656119
:10398000A56294F8510040B10CE0012070BD606860
:10399000B0F5827FF4D0E561F2E784F8505020461C
:1039A00000F040F8022084F851002068016821F0FE
:1039B00040010160A088218900F4827001F4044173
:1039C0000843A18901F400610843217C01F0020150
:1039D0000843217D01F001010843218B01F40071AE
:1039E0000843217F01F03801084394F8201001F0CA
:1039F00080010843218D01F40051084321680860CB
:103A0000A069042101EA1040216848602068C1696A
:103A100021F40061C1616565012084F85100002036
:103A200070BD000030B585B000240094019402946C
:103A3000039400681449884223D11448816941F4F1
:103A400080518161816901F480510491816941F063
:103A50000401816180690E4D00F004000490A020F3
:103A60000090022001900320039069462846FFF74A
:103A70009DFA4020CDE90004694628460294FFF7EC
:103A800095FA05B030BD0000003001400010024042
:103A9000000801402DE9FF4F81B01D4693460446C2
:103AA0004FF001090E9EFFF787FB074694F851007F
:103AB0006168012806D0B1F5827F3CD1A168C9BBFD
:103AC000042838D10298002871D0BBF1000FFBD038
:103AD000002DF9D094F8500001282CD04FF0010AA5
:103AE00084F850A094F85100042802D0052084F8EE
:103AF00051004FF00008C4F85480C4F838B0E5878E
:103B0000A58702992163E586A586C4F84080C4F89C
:103B1000448020680168490603D4016841F04001EF
:103B20000160E068B0F5006F606808D0F0B3012D67
:103B300049D081E0FFE7022005B0BDE8F08F08B171
:103B4000012D39D1206B21680088C860206B801C52
:103B50002063E08E401EE0862EE0206881688907A1
:103B60000FD5E18E69B1B9F1010F0AD1216B098836
:103B7000C160206B801C2063E08E401EE0864FF009
:103B8000000920688168C9070CD0E18F51B1C06875
:103B9000A16B0880A06B801CA063E08F401EE087B3
:103BA0004FF00109FFF708FBC01B01E00BE067E0E5
:103BB000B04201D3701C50D1E08E0028CDD1E08FEF
:103BC0000028CAD13EE0206B216800780873206B82
:103BD000401C2063E08E401EE0862DE02068816856
:103BE00089070FD5E18E69B1B9F1010F0AD1216BB7
:103BF00009780173206B401C2063E08E401EE08634
:103C00004FF0000920688168C9070CD0E18F51B1DD
:103C1000C068A16B0870A06B401CA063E08F401EC1
:103C2000E0874FF00109FFF7C7FAC01BB04202D38B
:103C3000701C01D011E086B1E08E0028CED1E08F5B
:103C40000028CBD13A463146204601F098F850B1D1
:103C50002020606584F8508012E084F851A084F838
:103C60005080032068E7A06818B92068C1688068A0
:103C7000009084F851A084F85080606D0028F1D045
:103C8000012059E710B5401EB0F1807F01D301201B
:103C900010BD4FF0E02460610F21601702F00BFAB5
:103CA0000020A06107202061002010BD70477047F0
:103CB00070B590F83C20012A2CD0012480F83C40BB
:103CC000022280F83D2003685A689D6822F0700641
:103CD0000A6832435A60104B02689A420ED00F4B6A
:103CE0009A420BD0B2F1804F08D00D4B9A4205D0CA
:103CF0000C4B9A4202D00C4B9A4204D1496825F0F1
:103D000080031943916080F83D40002180F83C1009
:103D1000084670BD022070BD002C014000340140F7
:103D20000004004000080040000C004010B50400F2
:103D300003D094F83D0010B107E0012010BD002031
:103D400084F83C00204600F01FF8022084F83D0073
:103D5000211D206801F0DEF8012084F8460084F877
:103D60003E0084F83F0084F8400084F8410084F865
:103D7000420084F8430084F8440084F8450084F845
:103D80003D00002010BD000008B5234A016823480B
:103D900091420ED1816941F4006181618069002204
:103DA00000F40060009011461920FFF771FA192005
:103DB0002EE0B1F1804F11D0194A914217D1C1695B
:103DC00041F00201C161C069002200F002000090D0
:103DD00002211D20FFF75CFA1D2019E0C16941F0A6
:103DE0000101C161C06900F00100009008BD0D4AE9
:103DF0009142FBD1C16941F00401C161C069002257
:103E000000F00400009011461E20FFF741FA1E202A
:103E1000BDE80840FFF72EBA002C01400010024018
:103E2000000400400008004090F83D10012901D036
:103E300001207047022180F83D100168CA6842F0F5
:103E40000102CA6000680E4988420ED00D498842BE
:103E50000BD0B0F1804F08D00B49884205D00B49F8
:103E6000884202D00A49884204D1816801F00701E2
:103E7000062903D0016841F001010160002070476C
:103E8000002C0140003401400004004000080040C4
:103E9000000C004070B5044690F83C000025012855
:103EA00017D0012684F83C60022084F83D00206889
:103EB000826822F0770222F47F42826008685028EC
:103EC00038D00DDC20284FD005DC90B3102811D15C
:103ED0004AE0022070BD302846D040280AD13BE09D
:103EE00060282FD070280DD0B0F5805F03D0B0F5DA
:103EF000005F12D0012584F83D60002084F83C006A
:103F0000284670BDCB68D1E90121206801F05DF839
:103F10002068816841F0770109E0CB68D1E901218F
:103F2000206801F052F82068816841F48041816086
:103F3000E1E719E0CA684968206801F01BF95021DF
:103F4000206806E0CA684968206801F024F9602109
:103F5000206801F044F8CEE7CA684968206801F09B
:103F600009F940212068F4E7226801461046F0E78D
:103F700070472DE9F04104460068C66805694FF0B6
:103F80000007A90713D5B10711D5F91E016101205A
:103F90002077206880698007204602D0FFF7E8FF7D
:103FA00004E000F0AFF8204600F041F927776807F9
:103FB00016D5700714D521686FF00400086102203F
:103FC00020772068806910F4407F204602D0FFF7F8
:103FD000CFFF04E000F096F8204600F028F927779C
:103FE000280715D5300713D521686FF00800086140
:103FF000042020772068C0698007204602D0FFF7A0
:10400000B7FF04E000F07EF8204600F010F92777B3
:10401000E80616D5F00614D521686FF01000086187
:10402000082020772068C06910F4407F204602D025
:10403000FFF79EFF04E000F065F8204600F0F7F877
:104040002777E80708D0F00706D021686FF0010055
:104050000861204600F046F9280608D5300606D546
:1040600021686FF0800008612046FFF71FFE680698
:1040700008D5700606D521686FF04000086120461B
:1040800000F040F9A8060AD5B00608D521686FF0FF
:10409000200008612046BDE8F041FFF708BEBDE8FA
:1040A000F081000000B585B00021009101910291DE
:1040B00003910068B0F1804F1BD10F48816941F036
:1040C000080181618069694600F0080004904FF49E
:1040D000406000900220019003900848FEF766FFC0
:1040E0000748416821F4407141F0E06141F40071FA
:1040F000416005B000BD000000100240000C01400E
:1041000000000140704770B5044690F83C0000265E
:104110000D4601280FD0012084F83C006AB1042A22
:104120001DD0082A2FD00C2A3FD00126002084F869
:104130003C00304670BD022070BD206800F058FF82
:104140002068816941F0080181612068816921F05E
:1041500004018161206881692A69114311E02068A6
:1041600000F076FF2068816941F400618161206878
:10417000816921F480618161206881692A6941EA4D
:1041800002218161D2E7206800F098FF2068C169B0
:1041900041F00801C1612068C16921F00401C161D9
:1041A0002068C1692A69114311E0206800F0BAFF54
:1041B0002068C16941F40061C1612068C16921F4CE
:1041C0008061C1612068C1692A6941EA0221C16137
:1041D000ACE710B5040003D094F83D0010B107E03F
:1041E000012010BD002084F83C00204600F01EF89D
:1041F000022084F83D00211D206800F08BFE012084
:1042000084F8460084F83E0084F83F0084F84000BB
:1042100084F8410084F8420084F8430084F84400A4
:1042200084F8450084F83D00002010BD70477047B9
:1042300010B50446022249B104290ED0082913D032
:1042400094F84100012816D0012010BD94F83E00DA
:104250000128F9D184F83E200FE094F83F000128AE
:10426000F2D184F83F2008E094F840000128EBD117
:1042700084F8402001E084F841200122206800F009
:1042800097FE13492068134A884201D0904203D117
:10429000436C43F400434364206888420DD090424D
:1042A0000BD0B0F1804F08D00B49884205D00B49A4
:1042B000884202D00A49884204D1816801F007018E
:1042C000062903D0016841F001010160002010BD02
:1042D000002C014000340140000400400008004070
:1042E000000C00400549814206D10548007808B11C
:1042F00001F032BA01F0BCBC704700003C02002063
:10430000480400207047704770470000F8B5016806
:1043100004460868CA684B6910F00F0F4FF000059B
:1043200059D003F0010602F49077374365D0C107F6
:1043300005D0D10503D5616C41F0010161644107ED
:1043400005D5D90703D0616C41F002016164810792
:1043500005D5D90703D0616C41F004016164010700
:1043600007D502F02001314303D0616C41F0080110
:104370006164616C00293AD0800604D5900602D5AC
:10438000204600F0F4FF20684069616CC0F38010A3
:10439000090700D460B3204600F0B4FF20684069EC
:1043A000400621D52068143050E8001F21F040015C
:1043B00040E80012002AF5D1E06BA8B16D494163D5
:1043C000E06BFEF70FFB002811D0E06B416B01B0F2
:1043D000BDE8F040084783060FD593060DD520466B
:1043E000BDE8F84000F0C3BF2046FFF78DFFF8BDE1
:1043F0002046FFF789FF6564F8BD266B2023012E58
:104400007CD1C6067AD5D60678D50868486800906B
:1044100048694FF00206400640D5E16B08684068E5
:104420000004000CE8D0A28D8242E5D9E0858869BD
:1044300020282DD020680C3050E8001F21F4807116
:1044400040E80012002AF5D12068143050E8001F1F
:1044500021F0010140E80012002AF5D12068143053
:1044600050E8001F21F0400140E80012002AF5D179
:1044700084F84230256320680C3050E8001F21F09A
:10448000100140E80012002AF5D1E06BFEF786FA31
:104490006663A08DE18D401A81B22AE0A08DE18D86
:1044A000401A81B2E08D0028A6D00029A4D022684D
:1044B0000C3252E8000F20F4907042E80007002F01
:1044C000F5D12068143050E8002F22F0010240E8B6
:1044D0000027002FF5D184F84230256320680C3086
:1044E00050E8002F22F0100240E80023002BF5D105
:1044F00066632046FFF707FFF8BDFFE705062BD5EB
:10450000150629D594F841002128F5D1A068B0F509
:10451000805F01D12069B0B1206A411C216221680D
:1045200000784860E08C401E0004000CE084E3D179
:104530002068C16821F08001C1602068C16841F035
:104540004001C160D8E7206A0088C0F308004860D5
:10455000206A801C2062E5E74006CDD55006CBD509
:10456000CA68204622F04002CA6084F8413000F058
:10457000ADF9C1E7BB51000870B5040004D094F850
:104580004100002510B106E0012070BD84F84050C4
:10459000204600F023F8242084F841002068C168F8
:1045A00021F40051C160204600F042FF20680169FB
:1045B00021F4904101612068416921F02A014161A3
:1045C0002068C16841F40051C1606564202084F80E
:1045D000410084F842006563002070BD2DE9F04F72
:1045E00085B0002500950195029503950446036862
:1045F0006148DFF880C102210322061580274FF0B1
:1046000020094FF0100A4FF4005B634550D18369D5
:1046100043F480438361836903F480430493836993
:1046200043F0040383618069DFF8508100F00400E7
:1046300004900802CDE90001039269464046FEF766
:10464000B5FCCDE90065694640460295FEF7AEFC33
:104650004C4E4B48B846C6E90005C6E90257C6F8B5
:104660001CB03561C6E905595F463046FEF776FB5A
:1046700008B1FDF7A4FCE6637462424E404844363C
:104680001438C6E9025835617561C6E9000AC6E901
:1046900006573046FEF762FB08B1FDF790FCA663B3
:1046A0000022114625207462FEF7F2FD25205CE011
:1046B000DFF8D4C063455AD1C36943F48023C36192
:1046C000C36903F480230493836943F01003836177
:1046D0008069CDE9006100F01000CDE903202B4E88
:1046E00069463046FEF762FCF014CDE900056946E4
:1046F00030460295FEF75AFC2548416821F030010A
:1047000041F0E06141F0100141601E4E1C488836C6
:104710002838C6E90005C6E9025735614FF4405014
:104720007561C6E906903046FEF718FB08B1FDF743
:1047300046FCE6637462134E1148CC363C38C6E939
:10474000025735617561C6E9000AC6E9065B304665
:10475000FEF704FB08B1FDF732FCA6630022114608
:1047600027207462FEF794FD2720FEF783FD05B035
:10477000BDE8F08F00380140001002400008014001
:10478000580002401403002000480040001001407F
:104790000000014090F84230202B01D002207047E9
:1047A00021B11AB10023036300F09EBE01207047BF
:1047B000704770472DE9F843044690F84100984649
:1047C00016460D46202802D00220BDE8F88385B1A8
:1047D0007EB100206064212084F84100FEF7ECFCEB
:1047E000A6848146E684A0682027B0F5805F02D0C9
:1047F00003E00120E9E7206910B12E4600250EE014
:1048000000260CE08021204600F0B6FEA8B9C6B113
:1048100016F8010B21684860E08C401EE084E08CB3
:104820004B464FF00002CDF800800028EAD14FF04F
:104830004001204600F0A0FE40B184F84170032002
:10484000C3E735F8020BC0F30800E3E784F84170D2
:104850000020BAE770B5044690F84100202801D046
:10486000022070BD49B342B32162A284E2840020D9
:104870006064212384F84130A56B114BAB62A56BBA
:10488000104BEB62A56B104B2B63A36B5863256831
:1048900013462A1DA06BFEF79FFA21686FF04000B7
:1048A00008602068143050E8001F41F0800140E8A3
:1048B0000012002AF5D1002070BD012070BD00005B
:1048C000B9520008FB520008CB51000800680549A6
:1048D000884205D10449002081F8060101F05CBB43
:1048E0007047000000480040720B00207047FEE750
:1048F0003EB5002410480094019402940D49846050
:10490000016004730475012505614FF46021446062
:10491000C161FDF763FC08B1FDF751FBCDE900452E
:10492000694605480294FDF7D7FB002801D0FDF742
:1049300046FB3EBD00240140700000200F4810B52A
:104940000D4901600621416000214FF40022816081
:10495000C0E9031252004261017641768176C17648
:1049600001774177FDF72BFF002803D0BDE8104009
:10497000FDF725BB10BD000000640040E4000020EE
:10498000194808B5416941F00101416140690022BF
:1049900000F00100009011460B20FEF779FC0B207F
:1049A000FEF768FC002211460C20FEF771FC0C207B
:1049B000FEF760FC002211460D20FEF769FC0D2079
:1049C000FEF758FC002211460E20FEF761FC0E2077
:1049D000FEF750FC002211460F20FEF759FCBDE8FF
:1049E00008400F20FEF746BC001002402DE9F047BA
:1049F00086B00024354800940194029403948169A0
:104A000041F020018161816901F0200104918169F7
:104A100041F010018161816901F010010491816907
:104A200041F004018161816901F00401049181690F
:104A300041F0080181618069254F00F00800049071
:104A400000220C213846FEF7B2FBDFF888900022E6
:104A500016214846FEF7ABFBDFF87CA04FF4405828
:104A6000002241465046FEF7A2FB0C2001250226FB
:104A7000CDE90005CDE9024669463846FEF796FACB
:104A8000062700970396CDE9015469464846FEF78C
:104A90008DFA1020CDE900050320CDE902406946DA
:104AA0004846FEF783FACDE9007469465046029401
:104AB000FEF77CFACDF800800396CDE901546946F3
:104AC0005046FEF773FA06B0BDE8F08700100240CA
:104AD0000010014000080140000C0140114810B5D1
:104AE0000F4901604FF48271416000214FF4006270
:104AF000C0E9021202220261012242615202826175
:104B00001022C0E90721416281620A21C162FEF7D9
:104B10002FFF002803D0BDE81040FDF750BA10BDAC
:104B2000003001400C01002010B586B00024184868
:104B30000094019402940394049414490594016030
:104B40004721C0E9011442F20F71C0E9031480212A
:104B5000C0E90541FFF7EAF808B1FDF730FA4FF474
:104B60008050009069460A48FFF794F908B1FDF7B4
:104B700026FA049404A906480594FFF799F800283A
:104B800001D0FDF71CFA06B010BD0000002C01405A
:104B90006401002010B58EB0002407940894099495
:104BA0000A940B941C2168460C94FBF7D2FC214814
:104BB0004FF08041C0E9001440F2FF31C0E90241EA
:104BC00004618461FFF7B2F808B1FDF7F8F94FF41A
:104BD0008050079007A91748FFF75CF908B1FDF767
:104BE000EEF91448FFF7F5FA08B1FDF7E8F90B9470
:104BF0000BA910480C94FFF75BF808B1FDF7DFF93B
:104C00006020CDE900040294082269460948049412
:104C1000FFF779FA08B1FDF7D2F90C226946054889
:104C2000FFF771FA08B1FDF7CAF90248FFF73AFA3F
:104C30000EB010BDAC01002010B586B0002417489E
:104C40000094019402940394049413490594016020
:104C500040F60F61C0E901142321C0E90314846107
:104C6000FFF764F808B1FDF7AAF94FF480500090FF
:104C700069460A48FFF70EF908B1FDF7A0F9049458
:104C800004A906480594FFF713F8002801D0FDF7A2
:104C900096F906B010BD000000040040F4010020A9
:104CA00010B586B000241748009401940294039430
:104CB00004941349059401604721C0E9011431218E
:104CC000C0E9031480218161FFF730F808B1FDF7D6
:104CD00076F94FF48050009069460A48FFF7DAF8F9
:104CE00008B1FDF76CF9049404A906480594FEF791
:104CF000DFFF002801D0FDF762F906B010BD00000B
:104D0000000800403C0200200C4810B50A49016030
:104D10004FF4E1314160002181600C22C160C0E9A3
:104D200004128161C161FFF727FC002803D0BDE8B0
:104D30001040FDF744B910BD003801408402002046
:104D40000C4810B50A4901604FF4E131416000217F
:104D500081600C22C160C0E904128161C161FFF76A
:104D60000BFC002803D0BDE81040FDF728B910BDAA
:104D700000480040CC020020FEE7FEE77047F8B58F
:104D800015460E460B46009204460122022100F011
:104D900011F840B93346002280212046009500F0EA
:104DA00009F8002804D0606D40F020006065032001
:104DB000F8BD00002DE9F8431E469146884604469A
:104DC000089DFEF7F9F9401B351AFEF7F5F907467D
:104DD00025480068C0F3CB30684338E0701C37D0FA
:104DE000FEF7EAF9C01BA84203D215B1009860B3E0
:104DF0002CE02068416821F0E00141606068B0F576
:104E0000827F0BD1A068B0F5004F02D0B0F5806F63
:104E100004D12068016821F040010160A06AB0F56A
:104E2000005F09D12068016821F400510160206809
:104E3000016841F400510160012084F85100002014
:104E400084F850000320BDE8F8830025401E009040
:104E50002068816838EA010004D000214945BDD1AD
:104E60000020F0E70121F9E70C0000207047FEF771
:104E7000A9B930B595B028216846FBF76AFB142123
:104E80000AA8FBF766FB18210FA8FBF762FB0121BC
:104E90000804CDE900100025029502240491CDE913
:104EA00007404FF4E01009906846FEF7D1FB08B1C7
:104EB00072B6FEE70AA90F2081E831004FF4806046
:104EC000CDE90D0502210AA8FEF7E6FA08B172B68F
:104ED000FEE74FF4004011900F940FA8FEF766FA1A
:104EE000002801D072B6FEE715B030BD7047000053
:104EF0000148FFF73EB80000640100200148FFF7B9
:104F000038B80000F40100200148FFF732B8000073
:104F10003C020020F0B50268204C214D214E224F6A
:104F2000224B4FF0804CA04209D0984207D06045F8
:104F300005D0A84203D0B04201D0B84204D122F03B
:104F4000700E4A6842EA0E02A04209D0984207D089
:104F5000604505D0A84203D0B04201D0B84203D189
:104F600022F44075CA682A434D6922F080022A4320
:104F700002608A68C2620A688262A04201D09842D6
:104F800001D109690163012141610169C90703D0A8
:104F9000016921F001010161F0BD0000002C014018
:104FA0000004004000080040000C004000340140B4
:104FB00010B501F01F030121046A99408C4304627B
:104FC000016A9A401143016210BD10B5846842EA3B
:104FD000032224F47F440A432243826010BD826886
:104FE00022F070020A4342F007018160704700001E
:104FF000F0B5036A026A22F0010202624268846923
:10500000124E24F073050C682C4323F002058B68C4
:105010002B430D4DA84201D0B04205D123F0080723
:10502000CB683B4323F00403A84201D0B04205D132
:105030004D6922F4407215438A692A4342608461B3
:10504000496841630362F0BD002C01400034014017
:10505000F0B5026A036A23F01003036243688469AF
:105060000D6824F4E64444EA05248D6822F0200209
:1050700042EA05120F4D104EA84201D0B04206D1AF
:10508000CF6822F0800242EA071222F04002A842D2
:1050900001D0B04207D14D6923F4406343EA850350
:1050A0008D6943EA850343608461496881630262D4
:1050B000F0BD0000002C014000340140F0B5026A50
:1050C000036A23F4807303624368C46922F40072A4
:1050D00024F073050C68124E2C438D6842EA0522B9
:1050E0000E4DA84201D0B04206D1CF6822F4006232
:1050F00042EA072222F48062A84201D0B04207D1DE
:105100004D6923F4405343EA05138D6943EA0513BF
:105110004360C4614968C1630262F0BD002C014074
:105120000034014030B5046A026A22F480520262FF
:105130004268C3690D6823F4E64343EA05238D689A
:1051400024F4005444EA0534084DA84202D0084D26
:10515000A84204D14D6922F4804242EA851242609D
:10516000C36149680164046230BD0000002C014045
:105170000034014010B5036A046A24F0010404629B
:10518000846924F0F00444EA021423F00A020A437A
:105190008461026210BD10B5036A046A24F0100431
:1051A0000462846923F0A00324F4704444EA0232C8
:1051B00043EA01118261016210BD10B5406A00210D
:1051C000C185C184FFF7A0F810BD70B5446A20689E
:1051D000406994F84110C0F3C0100025212904D182
:1051E00018B1E584204600F0B4F82068406994F8CE
:1051F0004210C0F38010222904D118B1E585204661
:1052000000F080F8606C40F0100060642046FFF70A
:105210007BF870BD10B50146406A096809684FF017
:10522000000289062ED4C28501680C3151E8003F86
:1052300023F4807341E80034002CF5D10168143167
:1052400051E8003F23F0010341E80034002CF5D180
:105250000168143151E8003F23F0400341E8003475
:10526000002CF5D1202180F84210016B012909D1D1
:1052700001680C3151E8003F23F0100341E800348D
:10528000002CF5D14263016B012902D0FFF790FA9F
:1052900010BD818DFFF737F810BD10B5406A0121B0
:1052A0004163016B012902D0FFF783FA10BD818DA4
:1052B0004908FFF728F810BD10B50146406A096893
:1052C0000968890616D40021C1840168143151E8A7
:1052D000002F22F0800241E80023002BF5D1016865
:1052E0000C3151E8002F42F0400241E80023002B2E
:1052F000F5D110BDFFF7EAFA10BD10B5406AFFF70F
:10530000F5FA10BD01680C3151E8002F22F49072BB
:1053100041E80023002BF5D10168143151E8002F3A
:1053200022F0010241E80023002BF5D1016B012995
:1053300009D101680C3151E8002F22F0100241E838
:105340000023002BF5D1202180F8421000210163B9
:10535000704701680C3151E8002F22F0C00241E88B
:105360000023002BF5D1202180F84110704708B5AB
:1053700090F84210222901D0022008BD82684FF423
:1053800080539A4201D1016921B1816A9A421BD0AE
:105390004AB10AE00268816A5268C2F308020A80D0
:1053A000816A891C08E0026972B10268526802F0E1
:1053B0007F020A70816A491C8162C18D491E0904FD
:1053C000090CC18503D01BE002685268F1E701684F
:1053D000CA6822F02002CA600168CA6822F480729A
:1053E000CA6001684A6922F001024A61202180F8FE
:1053F000421000214163026B012A03D0FFF7D8F964
:10540000002008BD016301680C3151E8002F22F033
:10541000100241E80023002BF5D101680A68D2068A
:1054200002D50A6849680091818DFEF76CFFE7E7B5
:1054300070B5044600680169E26821F440511143E7
:1054400001612169A0680843616908432168CA684D
:1054500041F20C639A430243CA6020684169A26921
:1054600021F44071114341611E492068884202D1F4
:10547000FEF7B8F801E0FEF7A5F800EBC00101EB7C
:105480000012606864218000B2FBF0F3B3FBF1F31B
:105490006FF018067343B2FBF0F5B2FBF0F605EBC4
:1054A0008305322303EB0515B5FBF1F5B6FBF1F6E9
:1054B00005F0F00505EB0615B2FBF0F6B2FBF0F0D7
:1054C000B0FBF1F06FF01802504306EB800003EBE5
:1054D0000010B0FBF1F0216800F00F002844886054
:1054E00070BD00000038014038B5816204468285F5
:1054F000002013466064222284F84220E56B1B4A98
:10550000AA62E56B1A4AEA62E56B1A4A2A63E26B01
:1055100050630A462168E06B091DFDF75DFC2068B9
:10552000016840680090206948B120680C3050E85C
:10553000001F41F4807140E80012002AF5D1206874
:10554000143050E8001F41F0010140E80012002A29
:10555000F5D12068143050E8001F41F0400140E8C8
:105560000012002AF5D1002038BD000015520008B5
:105570009B520008CB5100082DE9F8439846174686
:105580000D460446089E24E0701C22D0FDF714FE50
:10559000A0EB0800B0421AD8CEB12068C168490714
:1055A00017D5802D15D0402D13D00168C9430907A8
:1055B0000FD401680025406800902046FFF7A2FE46
:1055C0000820606484F840500120BDE8F88303207F
:1055D000FBE72068006835EA000004D00020B842EC
:1055E000D2D00020F1E70120F9E700000148FEF7E2
:1055F0008DBE00008402002010B500F097FCBDE8CD
:1056000010400148FEF782BECC0200200148FCF7A2
:10561000D8BF0000E40000200148FCF7D2BF000022
:10562000E40000200448017819B100210170012034
:1056300070470020704700001C0000202DE9F04753
:105640000D4E0124DFF834800025A6F10907A6F1EC
:105650000609A6F1030A2046FCF702FC30553D5529
:1056600048F8245009F804500AF80450641CE4B2C5
:10567000022CF0D9BDE8F087270000202C0900207B
:105680002DE9F05FFDF798FDDFF8B490012409F1F2
:105690000307054640F6B83A4FF0000BA046A7F1C5
:1056A00009062046FCF7DCFB395D60B1B1B925493C
:1056B000234A06F80480D21E41F8245002F804B0B0
:1056C00009F804B00FE049B106F804B019F8041065
:1056D000A9B91B49C91E01F8048010E0315D71B100
:1056E00019F8041059B9174951F824106A1A52458B
:1056F00005D3134A09F80480D21E02F804B03855C5
:10570000641CE4B2022CCCD9707818B1B07808B11E
:10571000012100E000210A480838427831EA0202FB
:1057200000D00561027831EA020205D00269AB1AA5
:10573000534501D380F800804170BDE8F09F000020
:10574000240000202C090020024800210170417033
:1057500081707047480400202DE9F04700F050F9AF
:10576000534F3878022807D003283FD1BDE8F047CF
:105770000021084600F076BB4E4C00254FF4484609
:10578000207828B9C7F89C61A66065700120207058
:10579000C1B2494B49484FF003094FF4FA6A4FF43C
:1057A000C8384FF48042072920D2DFE801F01F04F7
:1057B000103A47527900A0685146801CA06000F062
:1057C00051FBA068404511D10220A66034E0A168D9
:1057D00011F0FF0F0CD0491CA1605146A06800F0E9
:1057E00041FBA068404501D984F80090BDE8F087EE
:1057F0005E88637820F813605B1CD8B26070102854
:10580000EBD1A1F548410E0A10212C4800F0AAF86E
:105810002A49203121F816006570A068401CA0605C
:10582000DBE7A0685146401CA06000F01BFBA068AD
:10583000B0F5D23FDAD104202070D7E7A0685146F6
:10584000401EA06000F00EFBA0684045CED10520B0
:10585000F2E7A16811F0FF0F0AD0491EA16051467E
:10586000A06800F0FFFAA068B042BFD20620E3E7CC
:105870005F88637820F813705B1CD8B260701028C2
:10588000EDD1A1F548410F0A10210C4800F06AF84B
:105890000B4921F817006570A068401EA060DEE784
:1058A0000021084600F0DEFA257087F800909DE799
:1058B000480400201000002038090020E8050020DE
:1058C0009A0700200B4810B5002141700221017099
:1058D000094800F099FA00F089F808210748FEF716
:1058E000A7FC0C210548FEF7A3FCBDE810400448C6
:1058F000FEF79ABA4804002044090020AC010020B9
:105900003C020020064840680088A0F57F41FF392E
:1059100004D0002802D003490120487070470000DD
:10592000100000204804002070B50D4C052520789B
:10593000062812D2DFE800F00B110B030E0B00F06B
:10594000DDFC00F01DFCA07810B90420207070BDB3
:10595000257070BD00F064FCFAE70020F6E7000057
:10596000480400202DE9F041002490460D460746EA
:105970000688234609E000BF37F813104246304638
:1059800000F01FF85B1C04449BB2AB42F4D394FBC1
:10599000F5F0811942463046BDE8F041AFF3008092
:1059A00010B51346044600F00CF800EBD07004EB81
:1059B000600090FBF3F103FB1100002800DA1844AB
:1059C00010BD081A02EBD271B0EB610F01DD801A35
:1059D0007047514201EBD171B0EB610FF8DC10441C
:1059E0007047B0FBF1F201FB120070470348002141
:1059F000016041608160FCF747BA0000380900206F
:105A00002DE9F041164C00254FF403484FF40447AC
:105A10004046FCF741FA06463846FCF73DFAF1B23B
:105A200061F31F202080002104E0C20701D0491C3F
:105A3000C9B240080028F8D111F0010F07D06D1C41
:105A4000EDB22072032DE3D30548BDE8F0810120BB
:105A50002072208881086180C0F340006072F3E703
:105A60003809002000F0C0FA00F03CFA00F08CF990
:105A7000FFF7E4FD00F0CAF9FFF766FEFFF742FF0B
:105A8000194C607828B900224FF400511748FDF7EF
:105A90008EFB00F0DBF8607888B1FFF7A7FF0821E4
:105AA0001348FEF7C5FB0C211148FEF7C1FB114856
:105AB000FEF7BAF900F080F80FA0FAF7D5FBFDF772
:105AC0007BFB01461AA0FAF7CFFB00BFFFF7D8FD1A
:105AD000FFF72AFF00F03CF8FFF7A4FD08B1FFF73D
