:020000040800F2
:10000000480E0020F10100085F420008D13D0008C1
:100010005D420008CB140008AB5600080000000049
:100020000000000000000000000000005143000834
:100030002917000800000000614200086548000818
:100040000B0200080B0200080B0200080B0200085C
:100050000B0200080B0200080B0200080B0200084C
:100060000B0200080B0200080B020008E514000850
:10007000F1140008FD140008091500081515000802
:100080000B0200080B0200080B020008154E0008C6
:10009000214E0008CD140008D91400080B020008F6
:1000A0000B020008E54800080B0200080B020008DC
:1000B0000B020008F1480008FD4800080B02000888
:1000C0000B0200080B0200080B0200080B020008DC
:1000D0000B020008FD4D00080B020008094E000845
:1000E0000B0200080B0200080B0200080B020008BC
:1000F0000B0200080B0200080B0200080B020008AC
:100100000B0200080B0200080B0200080B0200089B
:100110000B0200080B0200080B0200080B0200088B
:100120000B0200080B0200080B0200080B0200087B
:1001300000F002F800F04DF80AA090E8000C8244AC
:100140008344AAF10107DA4501D100F042F8AFF289
:10015000090EBAE80F0013F0010F18BFFB1A43F0A5
:10016000010318471C6200003C620000103A24BFE3
:1001700078C878C1FAD8520724BF30C830C144BF0C
:1001800004680C607047000000230024002500264E
:10019000103A28BF78C1FBD8520728BF30C148BFEA
:1001A0000B607047662905F08884642900F0688038
:1001B000752900F06580002070471FB500F01CFC19
:1001C00004000020002105F00BFBE0601FBD10B50E
:1001D00010BD00F011FD1146FFF7EFFF05F092FA98
:1001E00000F02FFD03B4FFF7F2FF03BC00F072FD37
:1001F0000948804709480047FEE7FEE7FEE7FEE7BB
:10020000FEE7FEE7FEE7FEE7FEE7FEE704480549F6
:10021000054A064B70470000E3480008310100081A
:1002200048080020480E0020480A0020480A002004
:10023000B2F120030AD5C2F1200320FA02F001FA3C
:1002400003F321FA02F140EA0300704721FA03F0B8
:100250004FF00001704700000FB41CB5074B06AA11
:100260007B4469460090059800F0ADFB002069468C
:1002700000F0BCFB1CBC5DF814FB0000890700000B
:100280002DE9F0410646002410687529314616A56F
:1002900010D0AFF30080002802DA404213A507E037
:1002A00031688A0701D512A502E0490704D511A5D6
:1002B000012401E0AFF3008000210A2206F12407A7
:1002C00009E0B0FBF2FCB0FBF2F302FB1C003030A3
:1002D00078541846491C0028F3D123462A46304654
:1002E000BDE8F04100F001B9000000002D00000061
:1002F0002B000000200000002DE9F0474FF0000A1D
:1003000089460446C0F820A02046E16888470028B6
:1003100076D0252806D0D4E901219047206A401CD8
:100320002062F1E7E168204600268847C4F81CA057
:1003300005460027C4F818A02A2D09D0284605F044
:10034000D9F938B304EB8708303DC8F8185019E0E4
:1003500059F8041B204604EB87029161E168884745
:10036000012F054618D1E069002820DA26F0200682
:100370001DE0D8F8180000EB800005EB4000303895
:10038000C8F818002046E1688847054605F0B2F92C
:100390000028EED1012F0AD02E2D08D12046E16889
:1003A00088477F1C0546022F46F02006C4DBA06963
:1003B000002803DA404246F00106A061F00701D0B0
:1003C00026F010066C2D0AD0682D08D04C2D39D09F
:1003D0006A2D35D0742D35D07A2D33D016E0E168F2
:1003E0002F4620468847B84205460AD16C2F27D0B1
:1003F0004FF48060E168064320468847054605E0E3
:1004000027E06C2F1AD04FF4807006430DB3A5F18E
:100410004100192802D8203546F400664A4629468C
:10042000204626604E46FFF7BDFE80B101280BD066
:10043000F61D26F0070000F1080965E74020E4E713
:100440008020D7E70020D5E706F104095CE72846BD
:1004500061E7206ABDE8F08710B5431C02E010F8A0
:10046000011B71B18107FAD14FF0013202C88C1A19
:100470008C4314EAC211F9D0C01A0A0603D0C01E78
:1004800010BDC01A10BD0A0401D0801E10BD0902A3
:10049000FCD0401E10BD4FF0000200B5134694463C
:1004A0009646203922BFA0E80C50A0E80C50B1F1CC
:1004B0002001BFF4F7AF090728BFA0E80C5048BFE0
:1004C0000CC05DF804EB890028BF40F8042B08BF7E
:1004D000704748BF20F8022B11F0804F18BF00F87A
:1004E000012B70477047704770472DE9F0470D4664
:1004F00099469246044600F124080168880604D50E
:10050000E06921F01001216000E00120A84201DD36
:10051000471B00E00027A1697A1902EB0900081ABD
:10052000A0612078C00602D42046AFF300800026E8
:1005300008E0D4E901211AF806009047206A401C1F
:10054000761C20624E45F4DB2078C0060AD5204692
:10055000AFF3008006E0D4E9012130209047206A03
:10056000401C2062381EA7F10107F4DC07E0D4E943
:10057000012118F805009047206A401C2062281EBF
:10058000A5F10105F3DC2046AFF3008020780006DA
:1005900002D50220BDE8F0870120FBE770472DE976
:1005A000FF4F0C461E464FF0FF378BB0D2E90001DB
:1005B000DDF860800A908A46C1F30A5505B93D46C8
:1005C000002108464FF00000BAF1000F00F440008F
:1005D00005DA00EB80004FF4400101EA50004FEAD9
:1005E0009059B9F1010F00DDB9460A9850EA4A0066
:1005F0000ED044F61050A5F2FF3545432F14B8F144
:10060000000F1ED07542291E1EDDC9F100021CE03C
:10061000B8F1010F4FF0000001D0302103E0F243A8
:1006200005E02154401CB042FBDB30460022002193
:1006300021540B99C1F80880C1E900200FB0BDE832
:10064000F08FBD1B6D1CDEE74A4600DA694206A842
:1006500000F05CFA06AB93E8070003AB83E8070001
:1006600050460A9900F03DFB8DE80700A0F50050C8
:100670001F3800900398002D0ADD42F21F014A4600
:100680000844002303A90390684600F0A6FD09E092
:10069000A0F500504A461F38002303A9039068467E
:1006A00000F0B0FD8DE807000004000C03D04FF00F
:1006B000FF30410800E01046B8F1000F03D00022DF
:1006C000009215461EE0751E05D400F099F93032EF
:1006D00062556D1EF9D5B3460122084302D00022AF
:1006E0007F1C04E02078302801D100227F1E002AE0
:1006F000099784D01DE0112D07DA00F081F930321E
:1007000062556D1C50EA0102F5D1084302D00098F1
:10071000C8B10EE00021681E05E0235C625C6354F2
:100720002254401E491C8142F7DBAB46A81B401EE9
:100730000990002004F80B000B98099AC0F8088073
:10074000C0E9002B7AE711264FF0000857E72DE9A2
:10075000F04F88460446D21D22F0070191B0D1E93E
:100760000001CDE90A0104F0A1FF02460B98C00F79
:1007700001D02D2007E02068810701D52B2002E061
:10078000202101EAC000032A099001D0072A05DBD5
:1007900003464146204600F079F90BE120788006B7
:1007A00001D5E06900E00620B8F1650F814606D06A
:1007B000B8F1660F18D0B8F1670F70D131E00020A2
:1007C000B9F1110F009001DB112301E009F10103E0
:1007D0000AAA01A90CA8FFF7E2FEDDE90C700026C9
:1007E00009F10105834647E001204B4600904FF098
:1007F00000470AAA01A90CA8FFF7D1FEDDE90DB058
:100800000C995D46002610B909F101000D18B9EBED
:10081000050003D4C0F1FF3609F10105A5EB09007D
:100820002BE0B9F1010F01DA4FF001090020B9F115
:10083000110F0090484601DD112300E003460AAA8B
:1008400001A90CA8FFF7ABFEDDE90C704D460026B0
:100850008346207800070AD4AB4500DA5D4601A83C
:10086000012D04DD411911F8011C302907D04F4535
:1008700002DA17F1040F04DA012082460FE06D1E40
:10088000EEE7002F02DCED1B3E4403E0781CA8429B
:1008900000DD7D1CB81B00F1010A4FF000472078F5
:1008A000000703D4AA4501DB4FF0FF3A0021B7F15E
:1008B000004F0DF143088DF8431024D002202B2364
:1008C000002F01DA7F422D230A21021EA0F1010030
:1008D00000DC5FB197FBF1FC97FBF1F201FB1C7CA4
:1008E00017460CF1300C08F801CDEEE7A8F1010035
:1008F00003702188090501D5452100E06521A0F19B
:10090000010800F8011C09980FA9A1EB0807FF1DB9
:1009100000B10120411901EBEA70A1693844081ABD
:10092000401EA0612078C00602D42046AFF30080AC
:10093000099828B1D4E901219047206A401C20621F
:100940002078C00622D52046AFF300801EE0002E9E
:1009500004DBB34502DD01A8805D00E03020D4E96E
:1009600001219047206A401C2062761CAAF10100F8
:100970005FEA000A0AD100F03FF8C0680168405CF5
:10098000D4E901219047206A401C2062281EA5F16D
:100990000105DCDC07E0D4E9012118F8010B9047E0
:1009A000206A401C2062381EA7F10107F3DC2046B4
:1009B000AFF30080032011B041E6000001694A1C3A
:1009C00002610878704700B58FB0CDE90131002190
:1009D000059105497944CDE9031011466846FFF7B2
:1009E0008BFC0FB000BD0000E5FFFFFF0A6802F8B6
:1009F000010B0A607047000000487047080800209B
:100A000030B5B0F10A024FEA900E71F100034EEAE0
:100A1000817EB0EB0E0061EB91014FEA101E4EEAB1
:100A2000017E10EB0E0041EB11114FEA102E4EEA41
:100A3000016E10EB0E0041EB11214FEA104E4EEA11
:100A4000014E10EB0E0041EB1141401841F1000145
:100A50004FEAD00040EA41704FEAD10110EB800527
:100A60004FEA810444EA907444EB01046D1944EBAD
:100A70000404521BA3414FF0000348BF0A3200D5C3
:100A800030BD401C41F1000130BD00002DE9F041B6
:100A90001F46044603260168072A01F4006004DBB0
:100AA00008B116A505E016A503E008B115A500E0FC
:100AB00015A521F010002060A069C01EA0610FB133
:100AC000401EA0612046AFF300804FB1D4E9012160
:100AD00038469047206A401C2062C01C206206E015
:100AE000206AFAE7D4E9012115F8010B9047761E38
:100AF000F8D22046AFF30080BDE8F0814E414E00B1
:100B00006E616E00494E4600696E66002DE9F04741
:100B1000814616468AB0354878440DC88DE80D00E8
:100B200032487844801C03AC0DC884E80D0041F6BF
:100B30009B300844372190FBF1F290FBF1F5A5F1D1
:100B4000800501FB12041B3C02D56442012000E039
:100B50000020DFF898A080460027FA44AAF1BE0AD8
:100B60000EE0E0070AD03246684607EB4701012352
:100B70000AEB810100F046FB8DE8070064107F1C42
:100B8000002CEED1194F7F44AE3F19E0E80715D095
:100B900007EB04100DF1180A90E80E008AE80E0029
:100BA000C068F04201D1981908903246012306A985
:100BB00003A800F027FB03AB83E807006D10641C5B
:100BC000002DE3D14FF0010332466946B8F1000F22
:100BD00003A802D000F001FB01E000F013FBC9E91B
:100BE0000001C9F808200AB0BDE8F0874C580000A1
:100BF00000487047E80700207546FFF7F9FFAE464A
:100C000005006946534620F00700854618B020B518
:100C1000FFF7FCFABDE820404FF000064FF0000758
:100C20004FF000084FF0000B21F00701AC46ACE894
:100C3000C009ACE8C009ACE8C009ACE8C0098D4601
:100C4000704710B50446AFF300802046BDE8104061
:100C5000FFF7C8BA4FF0013C50F8042B51F8043BA1
:100C60009A4221D1A2EB0C03934313EACC1317D180
:100C700050F8042B51F8043B9A4215D1A2EB0C0317
:100C8000934313EACC130BD150F8042B51F8043BD7
:100C90009A4209D1A2EB0C03934313EACC13DBD0A5
:100CA0004FF00000704700BFD01A01BAB1FA81F1CD
:100CB00001F0180122FA01F0CB40C1F12001DBB2B2
:100CC000C0B2C01A2CFA01F3D11A914311EAC31130
:100CD000E6D1704701491820ABBEFEE726000200AE
:100CE00070475FEA400C08BF91F0000F4FEA8C2379
:100CF0004FEAC12243EA51514FEA1C5018BF00F598
:100D0000F0404FEA300018BF41F000415FEA6C5CF0
:100D100000F02980BCF1FF3F08BF40F080407047E1
:100D2000130C06BF12044FF0100C4FF0000C130E02
:100D300004BF12020CF1080C130F04BF12010CF1D6
:100D4000040C930F04BF92000CF1020CD30F04BFEC
:100D500052000CF1010C11464FF00002A0F11F00EF
:100D6000A0EB0C00704711F0004F08BF704731F046
:100D700000413FF4D5AF0B0C06BF09044FF0100C37
:100D80004FF0000C0B0E04BF09020CF1080C0B0F06
:100D900004BF09010CF1040C8B0F04BF89000CF196
:100DA000020CCB0F04BF49000CF1010CCCF1200365
:100DB000A0EB0C0022FA03F302FA0CF241EA030161
:100DC00000F10100704720F07F4C80EA030023F01F
:100DD0007F47ACEB070303F57C5300F0004003F1C1
:100DE000FF032DE980494FEA154B09B44FEA14433C
:100DF00025EA0B4E24EA03480FF2042606EB1327DC
:100E000049083E785FEA320203FB0667C7F5000730
:100E100007FB06F64FEA54374FEAD64606F10206BC
:100E200007FB066CCCF1005C4FEA1C472CEA074C30
:100E300007FB06F40CFB06F504EB15464FEA961685
:100E400034BF00204FF000404FEAD13706FB07FCCB
:100E50004FEA1C4C0CFB0BF7D21B03FB0CF761EBAE
:100E600007010CFB0EF7B0EB074072EB17420CFBCF
:100E700008F734BFA2EB0742B2EB074261EB174120
:100E80004FEA0C444FEA910706FB07FC4FEA1C4C63
:100E90000CFB0BF7B0EBC74072EB573203FB0CF7C0
:100EA00034BFA2EBC742B2EBC74261EB57310CFB38
:100EB0000EF7B0EBC70072EB57720CFB08F734BFAC
:100EC000A2EBC702B2EBC70261EB5771039F4FEA77
:100ED000816141EA921104EBCC044FEAD1374FEA29
:100EE000826206FB07FC42EA90124FEA80604FEAFA
:100EF0001C4C0CFB0BF7D21B03FB0CF761EB07013F
:100F00000CFB0EF7B0EB074072EB17420CFB08F737
:100F100034BFA2EB0742B2EB074261EB17414FEA45
:100F20008C554FEA910704EB9C2406FB07FC4FEA23
:100F30001C4C0CFB0BF7B0EBC74072EB573203FBBA
:100F40000CF734BFA2EBC742B2EBC74261EB57319B
:100F50000CFB0EF7B0EBC70072EB57720CFB08F7F7
:100F600034BFA2EBC702B2EBC70261EB577115EBBE
:100F70004C254FEA816141EA92114FEA82624FEAC1
:100F8000D13742EA901206FB07FC44F100044FEA15
:100F900080604FEA1C4C0CFB0BF7D21B03FB0CF7D9
:100FA00061EB07010CFB0EF7B0EB074072EB174249
:100FB0000CFB08F734BFA2EB0742B2EB074261EB30
:100FC000174115EB1C154FEA813141EA92414FEA76
:100FD000823242EA90424FEA80304FEA0C7644F186
:100FE000000448EA03434EEA0B484FF0000EB2EB10
:100FF000080C71EB030724BF624639464EEB0E0E18
:101000004FF0000B0018524149414BEB0B0BB2EB78
:10101000080C71EB03077BF1000B24BF62463946D5
:101020004EEB0E0E4FF0000B0018524149414BEBB6
:101030000B0BB2EB080C71EB03077BF1000B24BF29
:10104000624639464EEB0E0E51EA020718BF46F0D3
:10105000010616EB0E7655F1000254F1000103D59E
:10106000BDE88901BDE80088BDE88901BDE8004808
:10107000B619524141EB0101A3F101037047808091
:101080007F7E7D7C7B7A79787776767574737271E2
:1010900071706F6E6E6D6C6C6B6A6A69686867669A
:1010A00066656464636362616160605F5F5E5E5D2C
:1010B0005D5C5C5B5B5A5A595958585757565655A0
:1010C00055555454535352525251515050504F4F02
:1010D0004F4E4E4D4D4D4C4C4C4B4B4B4A4A4A4952
:1010E0004949484848474747474646464545454495
:1010F0004444444343434342424242414141002B22
:101100009C4630D477002BD01CB54FEA370703B488
:101110004FF010004FF01001BAF1000F06D0BCF1F3
:10112000000FDCBF40F0080040F008014FF0000065
:101130000FBCBDE810400BF1010BBBF1010F08BF64
:101140005FEA170722BF12F1010211F101014FF00E
:10115000004143F1000300F0004043EA0000704703
:10116000F9D35708D0E746EA064613F1400F4FEA95
:1011700016461FDD13F1200FDFBF16430A4600217C
:1011800020335B42BED0C3F1200746EA064602FA8E
:1011900007F74FEA164646EA0706C3F1200722FA88
:1011A00003F201FA07F721FA03F14FF0000342EAD4
:1011B0000702A7E746EA020646EA06464FEA16464F
:1011C00046EA0106BCBF46EA0646360C4FF000036D
:1011D0004FF000024FF0000194E72DE9804C9A4651
:1011E000934670B491E8380007C831EA400C48BF14
:1011F00034EA430C03D5FFF7E6FDFFF780FFF0BCB0
:10120000BDE8008C2DE9804C9A46934670B491E875
:10121000380007C810F0804F08BF13F0804F03D18B
:1012200000F005F8FFF76BFFF0BCBDE8008C20F084
:101230007F4780EA030023F07F4C07EB0C03A3F504
:101240007C5300F00040A3F1FE0392F0000F00F089
:10125000B38095F0000F00F077802DE901494FEA47
:1012600011404FEA144621EA004800FB06FC24EA3C
:10127000064708FB06F607FB08F800FB07F718EB24
:1012800006484CEB164C4FEA124B18EB07484FEA56
:1012900015464CEB174022EA0B4E0BFB06FC25EAE9
:1012A00006470EFB06F607FB0EFE0BFB07F71EEBD1
:1012B000064E4CEB164C4FF000061EEB074E4CEB67
:1012C000174B18EB0B0840F1000018EB0E0B58EB16
:1012D000000840F100008F1A4FF000013CBFC943E5
:1012E000661B14BFB5EB040C00213CBFC943F61BC1
:1012F0004FEA17444EEA8E0E27EA04454FEA1C4790
:1013000004FB07622CEA074C05FB07F70CFB05F60C
:1013100004FB0CFC16EB074642EB174216EB0C469F
:1013200042EB1C421BEB060658EB0202414146EA27
:101330009E0601D5BDE80189B619524141EB010174
:10134000A3F10103BDE801894FEA14454FEA1147B3
:1013500024EA054621EA074C05FB07F406FB07F7DC
:101360000CFB06F105FB0CFC11EB074144EB1744A9
:101370004FEA124711EB0C4144EB1C4422EA074CA4
:1013800005FB07F206FB07F70CFB06F605FB0CFC5A
:1013900016EB074642EB174216EB0C4642EB1C4598
:1013A0006A1854F1000148BF7047B619524141EB29
:1013B0000101A3F10103704795F0000F37D04FEA08
:1013C00011424FEA144721EA024624EA074C02FB85
:1013D00007F106FB07F70CFB06F402FB0CFC14EB11
:1013E000074441EB17414FEA154714EB0C4441EB1E
:1013F0001C4125EA074C02FB07F506FB07F70CFB2F
:1014000006F602FB0CFC16EB074645EB174516EB00
:101410000C4645EB1C42121951F1000148BF7047C0
:10142000B619524141EB0101A3F1010370474FEAA4
:1014300014454FEA114724EA054621EA074C05FB0B
:1014400007F106FB07F70CFB06F24FF0000605FB61
:101450000CFC12EB074241EB174112EB0C4251EB33
:101460001C4148BF7047921841EB0101A3F10103F1
:101470007047000070B5044600688168C943C90719
:1014800017D1816821F00101816001F0F7F805466C
:101490000AE000BF01F0F2F8401B022804D92068DE
:1014A0008068C043C00706D020688068C043C0077A
:1014B000F0D0002070BDA06A40F01000A062E06A89
:1014C00040F00100E062012070BDFEE7014800F03D
:1014D00012BB000034010020014800F00CBB0000EA
:1014E00034010020014800F0AFBD0000F0000020F2
:1014F000014800F0A9BD000030040020014800F0C0
:10150000A3BD0000EC030020014800F09DBD0000D9
:10151000A8030020014800F097BD000064030020EC
:1015200010B5084A012802D0022802D006E00421A2
:1015300000E00221104601F097F808B1002010BD2C
:10154000012010BD000C014010B5044600F07CFFE6
:101550002068E06010BD00002DE9F04385B005462D
:1015600000F072FF002427464FF001084FF0FF39CA
:101570000E4E12E004970097286804A900EBC420DF
:10158000CDE90208684600F0C1FE484600F030F997
:10159000306920F002003061641CA868A042E9D8DC
:1015A00005B0BDE8F04300F005BF00000020024098
:1015B00000F000BF2DE9F0410F460446C168006805
:1015C0001646814216D3626801EB460110448142FF
:1015D00010D800250CE000BF37F8152000230120AB
:1015E000E16800F0F1FE10B9E068801CE0606D1C5D
:1015F000B542F1D3BDE8F08110B50021084603F0F3
:10160000F9F80021BDE81040012003F0F3B803F021
:10161000F1B82DE9F04105460C464FF403404FF474
:10162000044703F0F5F80646384603F0F1F8F1B246
:1016300061F31F2000210A46012606FA02F307463D
:10164000034201D0491CC9B2521CD2B2102AF4D3B1
:1016500011F0010F02D00020BDE8F0810DB181082A
:10166000298014B1C7F3400020700120F4E701F095
:1016700005B801F0A1B8000010B50821084801F034
:10168000EFFF0C21064801F0EBFF0021084600F0B7
:1016900013F80021BDE81040084600F01FB8000014
:1016A000FC0100208208034803681A640068890866
:1016B000C1637047FC01002070B5074D0C4602461F
:1016C0000221284600F0D5FF22462846BDE870409A
:1016D000042100F0CEBF00000008014070B5074DA6
:1016E0000C4602460421284600F0C3FF2246284645
:1016F000BDE87040082100F0BCBF000000100140B0
:101700000A4601464FF0FF33014802F010BB0000CB
:101710001C03002010B50446FEF79EFE81B2204651
:10172000BDE81040FFF7ECBF704772B6FEE700005F
:1017300006490020C8610648016941F004010161C1
:10174000016941F040010161704700007804002008
:1017500000200240064A0021D16106490A6942F090
:1017600002020A614861086940F040000861704760
:101770007804002000200240044B0022DA61044A71
:10178000136943F00103136101807047780400205E
:101790000020024014480022C168CB06134904D53A
:1017A000CA6942F00202CA611022C3685B0705D50C
:1017B000CB6943F00103CB6142F00402C369DB074C
:1017C00007D0CB6943F00403CB61C16921F001016B
:1017D000C161A2F58071013901D0C2607047C16951
:1017E00021F00101C161704700200240780400200F
:1017F00070B5054600F042FF0646114C09E0681C32
:1018000007D025B100F03AFF801BA84201D9032080
:1018100070BDE068C007F2D1E068800601D52020E5
:10182000E060E068C00605D4E069C00702D1E06866
:10183000400703D5FFF7AEFF012070BD002070BD4B
:1018400000200240F8B50024009490F8242025469A
:10185000012A12D0012280F824204A681F23072A77
:101860000DD20668776B521E02EB820293409F43B3
:101870000B6893401F43776319E00220F8BD0668A8
:101880000D2A0AD2376BD21F02EB820293409F438C
:101890000B6893401F43376309E0F76A0D3A02EB88
:1018A000820293409F430B6893401F43F7620A688C
:1018B000072306680A2A0AD3F7680A3A02EB4202AB
:1018C00093409F438B6893401F43F76008E037695C
:1018D00002EB420293409F438B6893401F43376162
:1018E0000A68102A01D0112A20D1124B02689A42AC
:1018F00017D193681B0219D4936843F400039360D3
:101900000968102912D10C490C4A0968B1FBF2F19F
:1019100001EB8101490000E0491E00910029FBD143
:1019200004E0816A41F020018162012480F82450A2
:101930002046F8BD002401403000002040420F0046
:101940002DE9F04104004FF000057FD0A06A002689
:1019500028B9E66284F82460204600F081F8204629
:10196000FFF788FDA16AC90600D420B1A06A40F043
:101970001000A0626AE0A16A21F4885141F00201DE
:10198000A162334923688B42E16904D1B1F5402F4C
:1019900001D14FF40021277B4FF4807C41EA4702BC
:1019A00061680A43A168614508D0012906D0002179
:1019B00094F814E0BEF1010F02D00AE06146F7E7A7
:1019C000C7B1A76A47F02007A762E76A47F0010797
:1019D000E7625F6827F469470F435F60236899688F
:1019E0001C4F394011439960A16861450BD0012912
:1019F00009D00CE0DFF860E0A7690EEB47370F4332
:101A000047F40061E5E7218A0D05A5F580152168F9
:101A1000CB6A23F470032B43CB62216889680F4B98
:101A20001940914208D1E662A16A21F0020141F019
:101A30000101A162BDE8F081A06A20F0020040F03F
:101A40001000A062E06A40F00100E0620120F1E7CE
:101A5000003C0140FDF7E1FF00E0FFFFFE0E1FFF2D
:101A600070B586B00026054600960196029603964C
:101A700000681B49884230D11A49886940F40070D7
:101A80008861886900F400700490886940F004005F
:101A900088618869694600F0040004900120009084
:101AA00003200190104800F0E3FC114C0F48C4E9FA
:101AB00000068020C4E9026040002061800060616F
:101AC0002020A0614FF44050E061204600F0E0FB90
:101AD00008B1FFF72AFE2C62656206B070BD0000F7
:101AE00000240140001002400008014008000240AC
:101AF000F000002070472DE9F05F054600680024E3
:101B00004669D0F804908768D0F80CB0D0F810A0DF
:101B1000D0F81880F10748D0F90714D0012181606E
:101B2000B80703D5284600F0CDF90CE0780702D5B8
:101B30004FF4006407E0380702D54FF4805402E008
:101B4000284600F0BEF9F80516D529684FF48070D4
:101B50008860B80503D5284600F0B6F90CE0780592
:101B600002D544F4005407E0380502D544F480441B
:101B700002E0284600F0A7F9F80316D529684FF4CB
:101B800080308860B80303D5284600F09FF90CE048
:101B9000780302D544F4004407E0380302D544F446
:101BA000803402E0284600F090F9300707D55FEA5C
:101BB000CB6004D52968102044F40074C860700715
:101BC0004FF0080707D55FEA0B7004D52868C76097
:101BD000284600F071F9B00706D52868C06880076C
:101BE00002D0284600F069F9700607D55FEACA609E
:101BF00004D52968102044F480640861B00607D534
:101C00005FEA0A7004D528680761284600F056F993
:101C1000F00606D528680069800702D0284600F043
:101C20004EF9B00308D55FEAC96005D529681020D0
:101C30004860284600F044F9F00307D55FEA0970D0
:101C400004D528684760284600F041F9300446D59D
:101C50005FEA497040D5F00504D55FEAC87001D04D
:101C600044F00104B00504D55FEA887001D544F062
:101C70000204700504D55FEA487001D544F00404FD
:101C8000300529D518F0700F26D008F070004028D4
:101C900015D006DC102809D020280AD0302816D10B
:101CA0000AE050280ED0602811D10EE044F008045C
:101CB0000DE044F010040AE044F0200407E044F092
:101CC000400404E044F0800401E044F48074286897
:101CD000816921F070018161296804204860002C2D
:101CE00005D0686A204368622846FFF703FFBDE815
:101CF000F09F70B5040003D094F8200010B104E008
:101D0000012070BD204600F081F82068016841F094
:101D10000101016000F0B2FC0546052604E000F078
:101D2000ADFC401B0A2811D820684068C007F6D0D7
:101D30002068016821F00201016000F09FFC054667
:101D40000BE000F09BFC401B0A2806D9606A40F4B7
:101D50000030606284F82060D2E720684068800725
:101D6000EFD4207E0128206801683DD021F0800159
:101D70000160607E01282068016838D021F04001B0
:101D80000160A07E01282068016833D021F0200185
:101D90000160E07E0128206801682ED041F010012A
:101DA0000160207F01282068016829D021F0080106
:101DB0000160607F01282068016824D021F00401BF
:101DC0000160D4E902010843D4E904121143084335
:101DD0006168491E08432168C861002060620120D3
:101DE00084F82000002070BD41F08001C0E741F080
:101DF0004001C5E741F02001CAE721F01001CFE71B
:101E000041F00801D4E741F00401D9E710B586B0EC
:101E100000210091019102910391006823498842B9
:101E200042D12348C16941F00071C161C16901F02B
:101E300000710491816941F00401816180691D4C48
:101E400000F0040004904FF40060009069462046C2
:101E500000F00EFBA01400900220019003200390DC
:101E60006946204600F004FB00221146132000F0D2
:101E700071FC132000F060FC00221146142000F0D9
:101E800069FC142000F058FC00221146152000F0D7
:101E900061FC152000F050FC00221146162000F0D5
:101EA00059FC162000F048FC06B010BD006400404C
:101EB00000100240000801407047704770477047AB
:101EC000704770477047704770477047704770475A
:101ED00010B590F821100022022905D00421816359
:101EE00080F82020012010BD01680B6823F00E034C
:101EF0000B6001680B6823F001030B6090F8403021
:101F0000C46B012101FA03F3636080F8211080F8AB
:101F10002020104610BD00002DE9F05F90F8211040
:101F20000024022903D004218163012485E0016893
:101F30000A6822F00E020A6001680A6822F00102B3
:101F40000A603F4E3E4FB215DFF8F4C0DFF8F09064
:101F5000DFF8ECA0DFF8E8B0DFF8E4E00168783FF4
:101F600013011502ACF1640CA9F15009AAF13C0A65
:101F7000ABF1280BAEF1140E4FF48018B14227D903
:101F8000B9420ED0614512D049451DD0514518D0F7
:101F9000594518D0714501D1424615E0294EB1424C
:101FA00001D1012210E0274E1436B14201D1102296
:101FB0000AE0244E2836B14206D0224A3C329142F1
:101FC00001D11A4600E02A461E49091F0A602BE08B
:101FD000B94213D0614517D0494522D051451DD093
:101FE00059451DD0714501D142461AE0B14202D196
:101FF0004FF0807215E0134EB14201D1012210E082
:10200000104E1436B14201D110220AE00D4E28368E
:10201000B14206D00B4A3C32914201D11A4600E04F
:102020002A46074980394A60012180F821100021A1
:1020300080F82010416B01B188472046BDE8F09F31
:1020400080000240080402402DE9F05FC16B0A687D
:1020500001680B68046C4FF0040808FA04F8844D1A
:10206000844E854FDFF814C2DFF81492DFF814A213
:10207000DFF814B2DFF814E218EA020F65D05FEA65
:10208000437862D50A68920603D40A6822F00402F3
:102090000A60DFF8F0814FF48062016808F11408EB
:1020A00013011402414524D9A9420DD0B1420FD0E9
:1020B000B9421AD0614515D0494515D0514501D1D5
:1020C000120312E0594501D104220EE0714501D1FD
:1020D00040220AE06D4D1435A94206D06B4A2832E1
:1020E000914201D11A4600E022466749091F0A6061
:1020F00029E0A94213D0B14215D0B94220D06145A0
:102100001BD049451BD0514502D14FF4800217E046
:10211000414502D14FF0806212E0594501D10422BD
:102120000EE0714501D140220AE0584D1435A94214
:1021300006D0564A2832914201D11A4600E0224682
:102140004B4908394A60C16A71E04FF0020808FA49
:1021500004F818EA020F70D05FEA83786DD50A6838
:10216000920606D40A6822F00A020A60012180F869
:102170002110DFF810814FF40072016808F1140893
:1021800013011402414524D9A9420DD0B1420FD008
:10219000B9421AD0614515D0494515D0514501D1F4
:1021A000120312E0594501D102220EE0714501D11E
:1021B00020220AE0354D1435A94206D0334A283290
:1021C000914201D11A4600E022462F49091F0A60B8
:1021D00029E0A94213D0B14215D0B94220D06145BF
:1021E0001BD049451BD0514502D14FF4001217E0D6
:1021F000414502D14FF0007212E0594501D102224F
:102200000EE0714501D120220AE0204D1435A9428B
:1022100006D01E4A2832914201D11A4600E02246D9
:10222000134908394A60002180F82010816A00298A
:102230001CD0BDE8F05F0847FFE70825A540154220
:1022400014D01A0712D50A6822F00E020A6090F81C
:102250004020C36B012101FA02F25A60816380F8C9
:102260002110002180F82010016BE0E7BDE8F09F0D
:10227000080002401C0002403000024044000240BE
:10228000580002406C000240080402401C04024056
:1022900030B560B11A4B026814219A4209D2194B29
:1022A0001344B3FBF1F18900016417490AE00120EE
:1022B00030BD134B5B421344B3FBF1F18900016461
:1022C0000F490839C163022180F82110136843F6D1
:1022D000F0718B43F0E901142143D0E902452C430E
:1022E00021430469214344692143846921431943FB
:1022F000116000214163012242770177084630BD19
:1023000008040240F8FFFDBF000002402DE9F0473D
:10231000054626480F460126017E01290FD00121DE
:10232000814601762868DFF888804CF25034022814
:1023300008D0A2462046FFF75BFAA8B131E00220A0
:10234000BDE8F0872046FFF753FA08BB0120FFF7EE
:10235000EFF92046FFF74CFAD8F81010064621F0A6
:102360000401C8F810101CE04FF0FF303860AC6872
:1023700011E02046FFF7EEF95046FFF739FAD8F89A
:102380001010060021F00201C8F8101001D03C60C6
:1023900007E004F50064D5E9020100EBC120A0428A
:1023A000E7D8002189F818103046C9E778040020E2
:1023B000002002400348016941F0800101610020D2
:1023C00070470000002002402DE9F05F07461C48DE
:1023D00088460024017E15461E46012909D00121A8
:1023E000814601764CF2503A5046FFF701FA18B197
:1023F00022E00220BDE8F09F012F02D0022F00D082
:102400000427D346DFF83CA0220128463146FDF7D9
:102410000FFF81B208EB4400FFF7AEF95846FFF713
:10242000E7F9DAF8102022F00102CAF8102018B9F2
:10243000641CE4B2BC42E7D3002289F81820D9E733
:102440007804002000200240064900200A69120694
:1024500007D5054A4A60054A4A600969090600D558
:10246000012070470020024023016745AB89EFCD72
:102470002DE9F84FDFF8C8910024A9F1040B234699
:102480000F2709F1040AABF1040ED1E00125A540A4
:1024900006EA0502AA4276D1DFF8A8C14E68A6EB8B
:1024A0000C0866452BD00DDC032E34D005DC36B38A
:1024B000012E19D0022E2FD11BE0112E16D0122E74
:1024C0002AD119E0B8F5881F19D006DCB8F5803F8D
:1024D00015D0B8F5801F1FD111E0B8F5001F0ED040
:1024E000B8F5041F18D10AE0CB6815E0CB681B1DB6
:1024F00012E0CB6808330FE0CB680C330CE08B683C
:102500002BB1012B4FF0080303D0456104E00423F5
:1025100002E0056100E00023FF2A01D8064601E041
:1025200000F104064FEA840501D9A5F12005D6F88B
:10253000008007FA05FC28EA0C0803FA05F548EACA
:102540000508C6F800804D68ED0070D53E4DAE69B7
:1025500046F00106AE61AD6924F0030605F0010501
:1025600000953A4D06EB050CDCF80850A607360F2F
:1025700007FA06F825EA0805DFF8D480404503D1BC
:102580004FF0000825E052E0DFF8C880404502D156
:102590004FF001081DE0DFF8C080404502D14FF048
:1025A000020816E0DFF8B480404502D14FF003087E
:1025B0000FE0DFF8AC80404502D14FF0040808E09E
:1025C000DFF8A080404502D14FF0050801E04FF050
:1025D000060808FA06F848EA0508CCF808804D68AD
:1025E000D9F80060ED024D4601D5164300E0964350
:1025F0002E604D68DAF80060AD02554601D51643ED
:1026000000E096432E604D68DBF80060AD035D4648
:1026100001D5164300E096432E604D68DEF8006059
:10262000ED03754601D5164300E096432E60641C09
:102630000A681646E2407FF429AFBDE8F88F000033
:102640000804014000001110001002400000014089
:1026500000080140000C014000100140001401403E
:1026600000180140001C01408068084000D0012093
:1026700070470AB1016170470904FBE701488068AF
:10268000704700002400002002488168027811444D
:102690008160704724000020074810B5016841F0B0
:1026A00010010160032000F075F80F2000F006F81B
:1026B00000F024F8002010BD0020024070B50D4D40
:1026C00004464FF47A712878B1FBF0F00A490968A2
:1026D000B1FBF0F000F0EEFC48B9102C07D200225C
:1026E0002146501E00F036F800206C6070BD0120BD
:1026F00070BD000024000020300000200C4808B508
:10270000816941F001018161816901F0010100915C
:10271000C16941F08051C161C06900F080500090F2
:102720000448416821F0E06141F00071416008BD5A
:102730000010024000000140002809DB00F01F02E9
:10274000012191404009800000F1E020C0F8001113
:1027500070470000F0B40E4B1B680C46C3F3022315
:10276000C3F10705042D00D90425191D072901D23D
:10277000002300E0DB1E012606FA05F1491E214078
:1027800099409E40761E16403143F0BC02F0A2BF35
:102790000CED00E0064900F0070208684FF6FF0361
:1027A000184040EA0220034A1043086070470000C6
:1027B0000CED00E00000FA05BFF34F8F05480168FB
:1027C000054A01F4E06111430160BFF34F8F00BF80
:1027D000FDE700000CED00E00400FA052DE9F843E8
:1027E00005460078354CC00754D0E0690026C0008B
:1027F00008D4E06940F08050E061E069012600F013
:10280000805000902E480168C90512D401688046A6
:1028100041F480710160FFF731FF074605E000BF1A
:10282000FFF72CFFC01B642823D8D8F80000C00590
:10283000F6D5206A10F4407021D0A98801F44071C7
:1028400081421CD0206A1F49012220F440700A6096
:1028500000220A602062C00711D0FFF70FFF074671
:1028600041F2883808E000BFFFF708FFC11B41456F
:1028700002D90320BDE8F883206A8007F4D5206AD6
:10288000696820F44070084320621EB1E06920F0BE
:102890008050E0612878800705D56068A96820F439
:1028A0004040084360602878C00605D560686969C3
:1028B00020F48000084360600020DBE70010024045
:1028C00000700040400442422DE9F0470F460500E9
:1028D00061D0434E306800F00700B84209D230683A
:1028E00020F0070038433060306800F00700B8423D
:1028F00051D128683B4C810712D5400703D5606849
:1029000040F4E06060602878000703D5606840F418
:10291000605060606068A96820F0F0000843606063
:102920002878C00728D06868012810D021680228BC
:1029300010D0890700292EDA616821F003010143D4
:102940006160FFF79BFE804641F288390DE0216807
:102950008903EFE78901EDE7FFF790FEA0EB08019F
:10296000494502D90320BDE8F0876068696800F036
:102970000C00B0EB810FEFD1306800F00700B842D7
:102980000BD9306820F0070038433060306800F021
:102990000700B84201D00120E5E72878400705D5B7
:1029A0006068E96820F4E060084360602878000708
:1029B00006D56068296920F4605040EAC100606073
:1029C00000F038F86168084AC1F30311515CC8404F
:1029D0000649086006480068FFF770FE0020C2E75D
:1029E0000020024000100240D05A000830000020B1
:1029F000280000200448054900684968044AC1F3DA
:102A00000221515CC8407047300000200010024095
:102A1000E05A00080448054900684968044AC1F3BF
:102A2000C221515CC84070473000002000100240B5
:102A3000E05A00080E4A51680E4801F00C03042BBE
:102A400011D0082B0FD10C48C1F38343C903C05CDC
:102A50000AD55168084AC1F34041921E515C054AAB
:102A60005043B0FBF1F07047044948437047000001
:102A70000010024000127A00C05A000800093D0010
:102A80002DE9F84F040070D02078C04DC00749D020
:102A90006868C0F38100012807D06868C0F381002E
:102AA000022809D16868C00306D52868800339D593
:102AB00060680028E7D035E06068B0F5803F0BD053
:102AC00010B1B0F5A02F11D0286820F48030286014
:102AD000286820F4802002E0286840F480302860D4
:102AE000606890B1FFF7CAFD06460AE0286840F426
:102AF00080202860F0E700BFFFF7C0FD801B64283E
:102B000073D828688003F7D50CE0FFF7B7FD0646B9
:102B100005E000BFFFF7B2FD801B6428F0D82868ED
:102B20008003F7D420789A4E80074FF001094FF0C8
:102B3000000839D5686810F00C0F07D06868C0F33A
:102B40008100022809D16868C00306D4286880077C
:102B500014D52069012808D110E02069B0B1C6F869
:102B60000090FFF78BFD074605E00AE1FFF786FDC1
:102B7000C01B0228C4D828688007F7D52868616977
:102B800020F0F80040EAC10028600DE0C6F800809F
:102B9000FFF774FD074604E0FFF770FDC01B022835
:102BA00023D828688007F7D4207800072CD57948E7
:102BB000A169D9B1C0F80090FFF760FD074604E0B5
:102BC000FFF75CFDC01B02280FD8686A8007F7D5A5
:102BD00071484FF4FA510068B0FBF1F0009000BF6B
:102BE0000098411E0091FAD20EE080E0C0F800800B
:102BF000FFF744FD074604E0FFF740FDC01B022835
:102C000075D8686A8007F7D42078400760D5E869EE
:102C10000027C00008D4E86940F08050E861E86906
:102C2000012700F0805000905C480168C90513D46A
:102C30000168834641F480710160FFF71FFD824601
:102C400006E000BFFFF71AFDA0EB0A0064284ED88B
:102C5000DBF80000C005F5D5E06801280AD008B10E
:102C6000052813D0286A20F001002862286A20F085
:102C7000040002E0286A40F001002862E06841F2A6
:102C8000883B98B1FFF7FAFC82460BE0286A40F0D7
:102C900004002862EEE700BFFFF7F0FCA0EB0A019A
:102CA00059455AD8286A8007F6D50CE0FFF7E6FCAC
:102CB000824605E0FFF7E2FCA0EB0A0159454CD83B
:102CC000286A8007F6D41FB1E86920F08050E861D7
:102CD000E06988B36968C1F38101022944D0022800
:102CE000C6F8608004D0FFF7C9FC044638E034E041
:102CF000FFF7C4FC074604E0FFF7C0FCC01B022836
:102D00002BD828688001F7D4206AB0F5803F05D120
:102D10006868A16820F4003008436860D4E90801BD
:102D20000843696821F4741108436860C6F860902C
:102D3000FFF7A4FC044606E025E000BFFFF79EFC79
:102D4000001B022809D828688001F7D51BE000BFC6
:102D5000FFF794FC001B022802D90320BDE8F88F7E
:102D600028688001F4D40EE00128F7D06868226A50
:102D700000F48031914204D1616A00F470108842FD
:102D800001D00120EAE70020E8E70000001002403F
:102D900000004242800442423000002000700040A7
:102DA00070B5040009D0606A002540B125616561F5
:102DB000A56294F8510040B10CE0012070BD60683C
:102DC000B0F5827FF4D0E561F2E784F850502046F8
:102DD00000F040F8022084F851002068016821F0DA
:102DE00040010160A088218900F4827001F404414F
:102DF0000843A18901F400610843217C01F002012C
:102E00000843217D01F001010843218B01F4007189
:102E10000843217F01F03801084394F8201001F0A5
:102E200080010843218D01F40051084321680860A6
:102E3000A069042101EA1040216848602068C16946
:102E400021F40061C1616565012084F85100002012
:102E500070BD000030B585B0002400940194029448
:102E6000039400681449884223D11448816941F4CD
:102E700080518161816901F480510491816941F03F
:102E80000401816180690E4D00F004000490A020CF
:102E90000090022001900320039069462846FFF726
:102EA000E7FA4020CDE90004694628460294FFF77E
:102EB000DFFA05B030BD00000030014000100240D4
:102EC000000801402DE9FF4F81B01D46934604469E
:102ED0004FF001090E9EFFF7D1FB074694F8510011
:102EE0006168012806D0B1F5827F3CD1A168C9BBD9
:102EF000042838D10298002871D0BBF1000FFBD014
:102F0000002DF9D094F8500001282CD04FF0010A80
:102F100084F850A094F85100042802D0052084F8C9
:102F200051004FF00008C4F85480C4F838B0E58769
:102F3000A58702992163E586A586C4F84080C4F878
:102F4000448020680168490603D4016841F04001CB
:102F50000160E068B0F5006F606808D0F0B3012D43
:102F600049D081E0FFE7022005B0BDE8F08F08B14D
:102F7000012D39D1206B21680088C860206B801C2E
:102F80002063E08E401EE0862EE02068816889077D
:102F90000FD5E18E69B1B9F1010F0AD1216B098812
:102FA000C160206B801C2063E08E401EE0864FF0E5
:102FB000000920688168C9070CD0E18F51B1C06851
:102FC000A16B0880A06B801CA063E08F401EE0878F
:102FD0004FF00109FFF752FBC01B01E00BE067E077
:102FE000B04201D3701C50D1E08E0028CDD1E08FCB
:102FF0000028CAD13EE0206B216800780873206B5E
:10300000401C2063E08E401EE0862DE02068816831
:1030100089070FD5E18E69B1B9F1010F0AD1216B92
:1030200009780173206B401C2063E08E401EE0860F
:103030004FF0000920688168C9070CD0E18F51B1B9
:10304000C068A16B0870A06B401CA063E08F401E9D
:10305000E0874FF00109FFF711FBC01BB04202D31C
:10306000701C01D011E086B1E08E0028CED1E08F37
:103070000028CBD13A463146204601F0F2F850B153
:103080002020606584F8508012E084F851A084F814
:103090005080032068E7A06818B92068C16880687C
:1030A000009084F851A084F85080606D0028F1D021
:1030B000012059E710B5401EB0F1807F01D30120F7
:1030C00010BD4FF0E02460610F21601702F002FB99
:1030D0000020A06107202061002010BD70477047CC
:1030E00070B590F83C20012A2CD0012480F83C4097
:1030F000022280F83D2003685A689D6822F070061D
:103100000A6832435A60104B02689A420ED00F4B45
:103110009A420BD0B2F1804F08D00D4B9A4205D0A5
:103120000C4B9A4202D00C4B9A4204D1496825F0CC
:1031300080031943916080F83D40002180F83C10E5
:10314000084670BD022070BD002C014000340140D3
:103150000004004000080040000C004010B50400CE
:1031600003D094F83D0010B107E0012010BD00200D
:1031700084F83C00204600F01FF8022084F83D004F
:10318000211D206801F0C0FB012084F8460084F86E
:103190003E0084F83F0084F8400084F8410084F841
:1031A000420084F8430084F8440084F8450084F821
:1031B0003D00002010BD000008B5234A01682348E7
:1031C00091420ED1816941F40061816180690022E0
:1031D00000F40060009011461920FFF7BBFA192097
:1031E0002EE0B1F1804F11D0194A914217D1C16937
:1031F00041F00201C161C069002200F002000090AC
:1032000002211D20FFF7A6FA1D2019E0C16941F037
:103210000101C161C06900F00100009008BD0D4AC4
:103220009142FBD1C16941F00401C161C069002232
:1032300000F00400009011461E20FFF78BFA1E20BC
:10324000BDE80840FFF778BA002C014000100240AA
:10325000000400400008004090F83D10012901D012
:1032600001207047022180F83D100168CA6842F0D1
:103270000102CA6000680E4988420ED00D4988429A
:103280000BD0B0F1804F08D00B49884205D00B49D4
:10329000884202D00A49884204D1816801F00701BE
:1032A000062903D0016841F0010101600020704748
:1032B000002C0140003401400004004000080040A0
:1032C000000C004070B5044690F83C000025012831
:1032D00017D0012684F83C60022084F83D00206865
:1032E000826822F0770222F47F42826008685028C8
:1032F00038D00DDC20284FD005DC90B3102811D138
:103300004AE0022070BD302846D040280AD13BE078
:1033100060282FD070280DD0B0F5805F03D0B0F5B5
:10332000005F12D0012584F83D60002084F83C0045
:10333000284670BDCB68D1E90121206801F03FFB30
:103340002068816841F0770109E0CB68D1E901216B
:10335000206801F034FB2068816841F4804181607D
:10336000E1E719E0CA684968206801F0FDFB5021D7
:10337000206806E0CA684968206801F006FC602100
:10338000206801F026FBCEE7CA684968206801F092
:10339000EBFB40212068F4E7226801461046F0E785
:1033A00070472DE9F04104460068C66805694FF092
:1033B0000007A90713D5B10711D5F91E0161012036
:1033C0002077206880698007204602D0FFF7E8FF59
:1033D00004E000F0AFF8204600F041F927776807D5
:1033E00016D5700714D521686FF00400086102201B
:1033F00020772068806910F4407F204602D0FFF7D4
:10340000CFFF04E000F096F8204600F028F9277777
:10341000280715D5300713D521686FF0080008611B
:10342000042020772068C0698007204602D0FFF77B
:10343000B7FF04E000F07EF8204600F010F927778F
:10344000E80616D5F00614D521686FF01000086163
:10345000082020772068C06910F4407F204602D001
:10346000FFF79EFF04E000F065F8204600F0F7F853
:103470002777E80708D0F00706D021686FF0010031
:103480000861204600F046F9280608D5300606D522
:1034900021686FF0800008612046FFF71FFE680674
:1034A00008D5700606D521686FF0400008612046F7
:1034B00000F0F4F9A8060AD5B00608D521686FF027
:1034C000200008612046BDE8F041FFF708BEBDE8D6
:1034D000F081000000B585B00021009101910291BA
:1034E00003910068B0F1804F1BD10F48816941F012
:1034F000080181618069694600F0080004904FF47A
:10350000406000900220019003900848FEF7B0FF51
:103510000748416821F4407141F0E06141F40071D5
:10352000416005B000BD000000100240000C0140E9
:1035300000000140704770B5044690F83C0000263A
:103540000D4601280FD0012084F83C006AB1042AFE
:103550001DD0082A2FD00C2A3FD00126002084F845
:103560003C00304670BD022070BD206801F03AFA80
:103570002068816941F0080181612068816921F03A
:1035800004018161206881692A69114311E0206882
:1035900001F058FA2068816941F400618161206876
:1035A000816921F480618161206881692A6941EA29
:1035B00002218161D2E7206801F07AFA2068C169AE
:1035C00041F00801C1612068C16921F00401C161B5
:1035D0002068C1692A69114311E0206801F09CFA52
:1035E0002068C16941F40061C1612068C16921F4AA
:1035F0008061C1612068C1692A6941EA0221C16113
:10360000ACE710B5040003D094F83D0010B107E01A
:10361000012010BD002084F83C00204600F01EF878
:10362000022084F83D00211D206801F06DF9012081
:1036300084F8460084F83E0084F83F0084F8400097
:1036400084F8410084F8420084F8430084F8440080
:1036500084F8450084F83D00002010BD7047704795
:1036600010B50446022249B104290ED0082913D00E
:1036700094F84100012816D0012010BD94F83E00B6
:103680000128F9D184F83E200FE094F83F0001288A
:10369000F2D184F83F2008E094F840000128EBD1F3
:1036A00084F8402001E084F841200122206801F0E4
:1036B00079F913492068134A884201D0904203D116
:1036C000436C43F400434364206888420DD0904229
:1036D0000BD0B0F1804F08D00B49884205D00B4980
:1036E000884202D00A49884204D1816801F007016A
:1036F000062903D0016841F001010160002010BDDE
:10370000002C01400034014000040040000800404B
:10371000000C00402DE9F04300684849484C95B042
:10372000884278D101F0C8FB012001F07FFB68B12D
:1037300001F0E2FD20B1002001F050FE41A003E0C5
:10374000012001F04BFE42A0FDF7E4FF022001F052
:103750006DFB30B14FF4485001F046FE40A0FDF73C
:10376000D9FF022001F070FB58B1002001F03CFEAF
:10377000002001F041FE002001F022FE3BA0FDF7F9
:10378000C9FF012001F060FB20B13AA0FDF7C2FFA4
:10379000FFF712F820784FF00009401CC0B22070EB
:1037A0000A2827D384F8009011A8009010AB14AA1F
:1037B00013A912A801F0BCFD149802F02DF80746D9
:1037C0008846139802F028F805460E46129802F033
:1037D00023F80B469DF844109DF84020CDE90421C4
:1037E0008DE8E001024625A106A8FCF735FD06A8F4
:1037F000FDF790FFA068401CA060642807D3C4F8C0
:103800000890606800F001010020FDF700FF15B08E
:10381000BDE8F083FFE720498842F8D16068401C8A
:10382000606001F0E9FB20B115B0BDE8F04301F0A4
:10383000E9BB15B0BDE8F04301F0EABD002C014042
:10384000000000204D4F44455F53544F500D0A0077
:103850004D4F44455F504F534954494F4E0D0A0058
:10386000504F535F39306465670D0A0053544F5011
:103870000D0A000052455345540D0A00543A252EB6
:1038800033662C252E33662C252E33662C25752C7D
:1038900025750D0A000000000008004070477047C1
:1038A00070470000F8B5016804460868CA684B69AB
:1038B00010F00F0F4FF0000559D003F0010602F48D
:1038C0009077374365D0C10705D0D10503D5616C2A
:1038D00041F001016164410705D5D90703D0616C4E
:1038E00041F002016164810705D5D90703D0616CFD
:1038F00041F004016164010707D502F02001314362
:1039000003D0616C41F008016164616C00293AD018
:10391000800604D5900602D5204601F077F920688C
:103920004069616CC0F38010090700D460B3204681
:1039300001F045F920684069400621D5206814301F
:1039400050E8001F21F0400140E80012002AF5D1A4
:10395000E06BA8B16D494163E06BFEF7DDFA00282A
:1039600011D0E06B416B01B0BDE8F0400847830621
:103970000FD593060DD52046BDE8F84001F046B9B5
:103980002046FFF78DFFF8BD2046FFF789FF6564ED
:10399000F8BD266B2023012E7CD1C6067AD5D6062B
:1039A00078D508684868009048694FF002064006DC
:1039B00040D5E16B086840680004000CE8D0A28D97
:1039C0008242E5D9E085886920282DD020680C3016
:1039D00050E8001F21F4807140E80012002AF5D160
:1039E0002068143050E8001F21F0010140E8001267
:1039F000002AF5D12068143050E8001F21F0400162
:103A000040E80012002AF5D184F84230256320688E
:103A10000C3050E8001F21F0100140E80012002A8D
:103A2000F5D1E06BFEF754FA6663A08DE18D401A84
:103A300081B22AE0A08DE18D401A81B2E08D00288C
:103A4000A6D00029A4D022680C3252E8000F20F43E
:103A5000907042E80007002FF5D12068143050E83C
:103A6000002F22F0010240E80027002FF5D184F852
:103A70004230256320680C3050E8002F22F01002FD
:103A800040E80023002BF5D166632046FFF707FFCF
:103A9000F8BDFFE705062BD5150629D594F841009A
:103AA0002128F5D1A068B0F5805F01D12069B0B1BF
:103AB000206A411C2162216800784860E08C401E29
:103AC0000004000CE084E3D12068C16821F080018B
:103AD000C1602068C16841F04001C160D8E7206A38
:103AE0000088C0F308004860206A801C2062E5E777
:103AF0004006CDD55006CBD5CA68204622F04002FC
:103B0000CA6084F8413000F062F9C1E7AF4B0008A9
:103B100070B5040004D094F84100002510B106E00F
:103B2000012070BD84F84050204600F023F8242086
:103B300084F841002068C16821F40051C16020462A
:103B400001F0C6F82068016921F490410161206804
:103B5000416921F02A0141612068C16841F40051A6
:103B6000C1606564202084F8410084F842006563E8
:103B7000002070BD2DE9F04F85B00025009501951E
:103B800002950395044603686148DFF880C102216D
:103B90000322061580274FF020094FF0100A4FF43A
:103BA000005B634550D1836943F48043836183693B
:103BB00003F480430493836943F0040383618069C1
:103BC000DFF8508100F0040004900802CDE9000104
:103BD000039269464046FEF74BFCCDE90065694615
:103BE00040460295FEF744FC4C4E4B48B846C6E9A9
:103BF0000005C6E90257C6F81CB03561C6E905598B
:103C00005F463046FEF744FB08B1FDF78EFDE663E4
:103C10007462424E404844361438C6E90258356151
:103C20007561C6E9000AC6E906573046FEF730FB63
:103C300008B1FDF77AFDA6630022114625207462C3
:103C4000FEF788FD25205CE0DFF8D4C063455AD13B
:103C5000C36943F48023C361C36903F480230493DD
:103C6000836943F0100383618069CDE9006100F04E
:103C70001000CDE903202B4E69463046FEF7F8FBD5
:103C8000F014CDE90005694630460295FEF7F0FBD9
:103C90002548416821F0300141F0E06141F0100118
:103CA00041601E4E1C4888362838C6E90005C6E922
:103CB000025735614FF440507561C6E906903046B1
:103CC000FEF7E6FA08B1FDF730FDE6637462134EC5
:103CD0001148CC363C38C6E9025735617561C6E9F2
:103CE000000AC6E9065B3046FEF7D2FA08B1FDF7D6
:103CF0001CFDA6630022114627207462FEF72AFDF0
:103D00002720FEF719FD05B0BDE8F08F003801400F
:103D100000100240000801405800024064030020E7
:103D200000480040001001400000014070472DE9AC
:103D3000F843044690F84100984616460D46202860
:103D400002D00220BDE8F88385B17EB10020606416
:103D5000212084F84100FEF791FCA6848146E68488
:103D6000A0682027B0F5805F02D003E00120E9E7DA
:103D7000206910B12E4600250EE000260CE08021BF
:103D8000204601F001F8A8B9C6B116F8010B216868
:103D90004860E08C401EE084E08C4B464FF000020F
:103DA000CDF800800028EAD14FF04001204600F015
:103DB000EBFF40B184F841700320C3E735F8020BF4
:103DC000C0F30800E3E784F841700020BAE77047C9
:103DD000FEE700003EB500241048009401940294D0
:103DE0000D498460016004730475012505614FF479
:103DF00060214460C161FDF7A3FD08B1FDF795FCAA
:103E0000CDE90045694605480294FDF71BFD0028F1
:103E100001D0FDF78AFC3EBD00240140C000002017
:103E20000F4810B50D4901600621416000214FF493
:103E300000228160C0E9031252004261017641769E
:103E40008176C17601774177FDF753FF002803D0D3
:103E5000BDE81040FDF769BC10BD000000640040E3
:103E600034010020194808B5416941F00101416160
:103E70004069002200F00100009011460B20FEF77F
:103E800069FC0B20FEF758FC002211460C20FEF7BF
:103E900061FC0C20FEF750FC002211460D20FEF7BD
:103EA00059FC0D20FEF748FC002211460E20FEF7BB
:103EB00051FC0E20FEF740FC002211460F20FEF7B9
:103EC00049FCBDE808400F20FEF736BC0010024058
:103ED0002DE9F04786B000243548009401940294FF
:103EE0000394816941F020018161816901F0200121
:103EF0000491816941F010018161816901F0100133
:103F00000491816941F004018161816901F004013A
:103F10000491816941F0080181618069254F00F0B9
:103F20000800049000220C213846FEF7A2FBDFF8BF
:103F30008890002216214846FEF79BFBDFF87CA004
:103F40004FF44058002241465046FEF792FB0C20A9
:103F500001250226CDE90005CDE90246694638462D
:103F6000FEF786FA062700970396CDE901546946C5
:103F70004846FEF77DFA1020CDE900050320CDE983
:103F8000024069464846FEF773FA00976946504674
:103F9000CDE90145FEF76CFACDF800800396CDE936
:103FA000015469465046FEF763FA06B0BDE8F08753
:103FB000001002400010014000080140000C0140C8
:103FC000114810B50F4901604FF482714160002122
:103FD0004FF40062C0E90212022202610122426132
:103FE000520282611022C0E90721416281620A21E6
:103FF000C162FEF7D5FE002803D0BDE81040FDF7F2
:1040000094BB10BD003001405C01002010B586B0AB
:1040100000241848009401940294039404941449D1
:10402000059401604721C0E9011442F20F71C0E913
:1040300003148021C0E90541FFF790F808B1FDF7AE
:1040400074FB4FF48050009069460A48FFF73AF934
:1040500008B1FDF76AFB049404A906480594FFF72C
:104060003FF8002801D0FDF760FB06B010BD00004E
:10407000002C0140B401002010B58EB0002407943C
:10408000089409940A940B941C2168460C94FCF73C
:1040900002FA21484FF08041C0E9001440F2FF319C
:1040A000C0E9024104618461FFF758F808B1FDF7E7
:1040B0003CFB4FF48050079007A91748FFF702F91F
:1040C00008B1FDF732FB1448FFF79BFA08B1FDF782
:1040D0002CFB0B940BA910480C94FFF701F808B1C6
:1040E000FDF723FB6020CDE9000402940822694615
:1040F00009480494FFF71FFA08B1FDF716FB0C22DC
:1041000069460548FFF717FA08B1FDF70EFB0248AC
:10411000FFF7E0F90EB010BDFC01002010B586B02D
:1041200000241748009401940294039404941349C2
:104130000594016040F60F61C0E901142321C0E934
:1041400003148461FFF70AF808B1FDF7EEFA4FF4A3
:104150008050009069460A48FFF7B4F808B1FDF7AF
:10416000E4FA049404A906480594FEF7B9FF002870
:1041700001D0FDF7DAFA06B010BD000000040040DF
:104180004402002010B586B0002417480094019422
:104190000294039404941349059401604721C0E9F3
:1041A00001143121C0E9031480218161FEF7D6FF9B
:1041B00008B1FDF7BAFA4FF48050009069460A48FA
:1041C000FFF780F808B1FDF7B0FA049404A9064897
:1041D0000594FEF785FF002801D0FDF7A6FA06B08A
:1041E00010BD0000000800408C0200200C4810B5F3
:1041F0000A4901604FF4E1314160002181600C22E5
:10420000C160C0E904128161C161FFF781FC00282F
:1042100003D0BDE81040FDF788BA10BD003801405A
:10422000D40200200C4810B50A4901604FF4E13176
:104230004160002181600C22C160C0E904128161EB
:10424000C161FFF765FC002803D0BDE81040FDF711
:104250006CBA10BD004800401C030020FEE7FEE7DA
:104260007047F8B515460E460B46009204460122EB
:10427000022100F011F840B9334600228021204687
:10428000009500F009F8002804D0606D40F020008F
:1042900060650320F8BD00002DE9F8431E469146F5
:1042A00088460446089DFEF7E9F9401B351AFEF7DB
:1042B000E5F9074625480068C0F3CB30684338E08D
:1042C000701C37D0FEF7DAF9C01BA84203D215B133
:1042D000009860B32CE02068416821F0E001416063
:1042E0006068B0F5827F0BD1A068B0F5004F02D0B6
:1042F000B0F5806F04D12068016821F040010160B1
:10430000A06AB0F5005F09D12068016821F400516E
:1043100001602068016841F400510160012084F8C7
:104320005100002084F850000320BDE8F8830025E8
:10433000401E00902068816838EA010004D0002106
:104340004945BDD10020F0E70121F9E73000002008
:104350007047002800DA404270470000074A011EFB
:1043600090631046436A02DD03F5807302E001DAD0
:10437000A3F580731846536301F034B9840000201C
:10438000184A08B5516A401A00F18001B1F5807FE2
:104390001ED9802801DD803800E008464FF44861CE
:1043A000884202DC4942884200DA0846D1694FF46B
:1043B0007A63C911994202DC5B42994200DA1946DC
:1043C0009268D3684343106900FB1130801200E00B
:1043D00000200090684600F02FF90098FFF7BEFF1C
:1043E00008BD0000840000202DE9F04F574E002743
:1043F0008DB04FF051093C464FF48048A6F5C97581
:1044000036F8141035F81400424600F09BFD25F8EC
:104410001400641CC92CF3DBB5F88E1128884246C1
:1044200000F0C9FD4A4C4FF0010A002803D006DD18
:104430004FF0010005E047A0C4F808A081E04FF06C
:104440000000E07009EB49004FF001064FF0020B4D
:1044500000EBD07805EB46004FF4804230F8021CA8
:1044600035F8160000F0A7FD002801DB014600E04A
:104470004142B1EB680F04DD32463CA1C4F808B0FC
:104480000DE0002801DB024600E0424209EBD97151
:10449000B2EB610F07DA32463CA1C4F808B06846B7
:1044A000FBF7DAFE4CE0002803D007DD4FF00100F7
:1044B00006E032463DA1C4F808A0F0E74FF0000046
:1044C000E178884204D032463FA1C4F808A0E6E76C
:1044D000761CC82EBEDBD4E90403002201F0FF0CD9
:1044E00043F6FF7A4FF480584FF4405905EB4206EB
:1044F00035F812107688BCF1000F07D049450CDD65
:1045000046450ADA1046AAEB010305E0414504DA04
:104510004E4502DD10460B467F1C521CC82AE5DBC7
:10452000C4E904030246012F04D003203A462FA118
:10453000A060B4E70020A06034A16846FBF78CFEC1
:104540006846FDF7E7F80DB0BDE8F08F4A06002099
:10455000580000204572726F723A20446972656398
:1045600074696F6E207A65726F0D0A004572726F02
:10457000723A20436F6E74696E75697479206C614C
:104580007267652C20693D25640D0A004572726FC3
:10459000723A20436F6E74696E7569747920736D19
:1045A000616C6C2C20693D25640D0A004572726FA8
:1045B000723A205A65726F2064656C74612C2069B0
:1045C0003D25640D0A0000004572726F723A204466
:1045D0006972656374696F6E206D69736D61746370
:1045E000682C20693D25640D0A0000004572726F39
:1045F000723A20506861736520737465702C206E68
:10460000756D3D256C750D0A00000000535F436811
:1046100065636B4461746120504153532C20726375
:10462000645F783D256C642C207263645F793D255E
:104630006C640D0A00000000054902688968496839
:104640008A4202DC49428A4200DA01607047000077
:10465000840000202DE9F04F544E8DB00020B06151
:1046600034465348FCF778FF5148FCF76DFFE0787B
:10467000346900284FF4804A4FF4484B304636D115
:104680003AE0C821204600F090FC4A4DC82135F898
:104690001070601C00F089FC35F810005246394655
:1046A00000F089FC07463069844201D1756900E059
:1046B0000025C830844202D1D6F8148014E0B846F0
:1046C00012E0280290FBF7F000EB0420594600F0BE
:1046D0006CFCADF8300001220CA93548FCF76AFFEC
:1046E000B169491C6D1CB1614545EADB641C306948
:1046F000C9308442C5DB3FE0C83439E0C821601CC2
:1047000000F053FC2B4DC82135F81070204600F006
:104710004CFC35F810005246394600F04CFC074678
:10472000306900F1C8018C4201D1756900E00025B3
:10473000844202D1D6F8148000E0B846200200F589
:10474000807912E0280290FBF7F1A9EB01005946AD
:1047500000F02BFCADF8300001220CA91448FCF746
:1047600029FFB169491C6D1CB1614545EADB641E36
:104770003069401E8442C1DC0D48FCF719FFF06926
:1047800034460DA103886846B269FBF765FD6846AB
:10479000FCF7C0FFA069504504D1012060700DB046
:1047A000BDE8F08F0420A060F9E700005800002069
:1047B00034000020B8040020535F47656E657261C5
:1047C00074655461626C6520646F6E652C2072653F
:1047D00073756C745F6E756D3D256C752C2063610F
:1047E0006C695F7461626C655B305D3D25750D0AB7
:1047F000000000000A4605490028084602D0891436
:10480000FDF737BF4FF40051FAE70000000C0140FC
:1048100011B583B000200D4CADF804000246102104
:104820002046FDF726FF4FF0FF300090012301AA3C
:1048300003A90748FEF746FB012210212046FDF799
:1048400018FFBDF8040004B010BD000000080140CE
:104850005C01002002480021416381637047000031
:1048600084000020FDF710BF30B595B028216846C0
:10487000FBF711FE14210AA8FBF70DFE18210FA863
:10488000FBF709FE01210804CDE90010002502957F
:1048900002240491CDE907404FF4E01009906846E6
:1048A000FEF7EEF808B172B6FEE70AA90F2081E81C
:1048B00031004FF48060CDE90D0502210AA8FEF712
:1048C00003F808B172B6FEE74FF4004011900F9460
:1048D0000FA8FDF783FF002801D072B6FEE715B0E0
:1048E00030BD70470148FEF75CBD0000B4010020F8
:1048F0000148FEF756BD0000440200200148FEF7C3
:1049000050BD00008C020020F0B50268204C214D03
:10491000214E224F224B4FF0804CA04209D09842AA
:1049200007D0604505D0A84203D0B04201D0B842BC
:1049300004D122F0700E4A6842EA0E02A04209D069
:10494000984207D0604505D0A84203D0B04201D0BC
:10495000B84203D122F44075CA682A434D6922F057
:1049600080022A4302608A68C2620A688262A042A8
:1049700001D0984201D109690163012141610169B6
:10498000C90703D0016921F001010161F0BD0000F8
:10499000002C01400004004000080040000C0040D2
:1049A0000034014010B501F01F030121046A994051
:1049B0008C430462016A9A401143016210BD10B534
:1049C000846842EA032224F47F440A43224382603B
:1049D00010BD826822F070020A4342F00701816034
:1049E00070470000F0B5036A026A22F00102026219
:1049F00042688469124E24F073050C682C4323F03E
:104A000002058B682B430D4DA84201D0B04205D161
:104A100023F00807CB683B4323F00403A84201D0EE
:104A2000B04205D14D6922F4407215438A692A4388
:104A300042608461496841630362F0BD002C01401B
:104A400000340140F0B5026A036A23F010030362E8
:104A5000436884690D6824F4E64444EA05248D68BB
:104A600022F0200242EA05120F4D104EA84201D05A
:104A7000B04206D1CF6822F0800242EA071222F04B
:104A80004002A84201D0B04207D14D6923F44063EF
:104A900043EA85038D6943EA85034360846149687D
:104AA00081630262F0BD0000002C0140003401402F
:104AB000F0B5026A036A23F4807303624368C46931
:104AC00022F4007224F073050C68124E2C438D689A
:104AD00042EA05220E4DA84201D0B04206D1CF686D
:104AE00022F4006242EA072222F48062A84201D046
:104AF000B04207D14D6923F4405343EA05138D6951
:104B000043EA05134360C4614968C1630262F0BDB2
:104B1000002C01400034014030B5046A026A22F4DE
:104B2000805202624268C3690D6823F4E64343EA97
:104B300005238D6824F4005444EA0534084DA84246
:104B400002D0084DA84204D14D6922F4804242EAC5
:104B500085124260C36149680164046230BD00008F
:104B6000002C01400034014010B5036A046A24F0AF
:104B700001040462846924F0F00444EA021423F07E
:104B80000A020A438461026210BD10B5036A046A16
:104B900024F010040462846923F0A00324F4704418
:104BA00044EA023243EA01118261016210BD10B58C
:104BB000406A0021C185C184FEF772FE10BD016804
:104BC0000C3151E8002F22F4907241E80023002BB1
:104BD000F5D10168143151E8002F22F0010241E8BB
:104BE0000023002BF5D1016B012909D101680C319B
:104BF00051E8002F22F0100241E80023002BF5D1EC
:104C0000202180F8421000210163704708B590F818
:104C10004210222901D0022008BD82684FF480533F
:104C20009A4201D1016921B1816A9A421BD04AB1ED
:104C30000AE00268816A5268C2F308020A80816A47
:104C4000891C08E0026972B10268526802F07F02B2
:104C50000A70816A491C8162C18D491E0904090CD0
:104C6000C18503D01BE002685268F1E70168CA6899
:104C700022F02002CA600168CA6822F48072CA6009
:104C800001684A6922F001024A61202180F842103D
:104C900000214163026B012A03D0FFF747F800208F
:104CA00008BD016301680C3151E8002F22F01002A9
:104CB00041E80023002BF5D101680A68D20602D52D
:104CC0000A6849680091818DFEF7E9FDE7E7000079
:104CD00070B5044600680169E26821F4405111434F
:104CE00001612169A0680843616908432168CA68B5
:104CF00041F20C639A430243CA6020684169A26989
:104D000021F44071114341611E492068884202D15B
:104D1000FDF780FE01E0FDF76DFE00EBC00101EB49
:104D20000012606864218000B2FBF0F3B3FBF1F382
:104D30006FF018067343B2FBF0F5B2FBF0F605EB2B
:104D40008305322303EB0515B5FBF1F5B6FBF1F650
:104D500005F0F00505EB0615B2FBF0F6B2FBF0F03E
:104D6000B0FBF1F06FF01802504306EB800003EB4C
:104D70000010B0FBF1F0216800F00F0028448860BB
:104D800070BD0000003801402DE9F84398461746F1
:104D90000D460446089E24E0701C22D0FDF76EFCF0
:104DA000A0EB0800B0421AD8CEB12068C16849070C
:104DB00017D5802D15D0402D13D00168C9430907A0
:104DC0000FD401680025406800902046FFF7F7FEE9
:104DD0000820606484F840500120BDE8F883032077
:104DE000FBE72068006835EA000004D00020B842E4
:104DF000D2D00020F1E70120F9E700000148FEF7DA
:104E000051BD0000D40200200148FEF74BBD000058
:104E10001C0300200148FCF76EBE00003401002096
:104E20000148FCF768BE000034010020411E022941
:104E300006D204490A5C1AB100220A5401207047C4
:104E4000002070477B000020411E022906D2044941
:104E50000A5C1AB100220A540120704700207047F2
:104E60007E0000202DE9F0470D4E0124DFF834804C
:104E70000025A6F10907A6F10609A6F1030A2046B6
:104E8000FCF74EFB30553D5548F8245009F80450C6
:104E90000AF80450641CE4B2022CF0D9BDE8F08793
:104EA00081000020DC070020411E022901D30020E0
:104EB0007047FCF735BB00002DE9F05FFCF7D7FB2E
:104EC0001E4F012405464FF00009A24607F1030BCF
:104ED00007F1060807F109062046FCF721FB315DC2
:104EE00050B191B9164907F804A041F824500BF8C5
:104EF000049008F804900DE039B107F8049018F810
:104F0000041099B90BF804A010E0395D71B118F8DC
:104F1000041059B90A4940F6B83251F82410691AF8
:104F2000914203D308F804A00BF804903055641C98
:104F3000E4B2022CD0D9BDE8F09F00007800002038
:104F4000DC070020431A08444FEA600000D55B42AA
:104F5000B3EB620F04DDB0EB620F02DBA0EB62008B
:104F6000704700EB62007047F0B5048801265310CB
:104F7000A646C3F1000C0DE030F81630A3EB0E0787
:104F80001D46B7EB620F00DDAB1ABC4500DDAB1868
:104F90001C44761C8E42EFDB94FBF1F0002800DA13
:104FA0001044904200DD801AF0BD084490FBF1F2FD
:104FB00001FB12007047401AB0EB620F00DD801A4F
:104FC00051104942814200DD10447047064AD069C1
:104FD0000188A1F57F43FF3B05D0002903D00121C3
:104FE000517000F05BB970475800002001484078CC
:104FF000704700005800002001480078704700000A
:10500000580000202DE9F04700F04EF9DFF88081CC
:105010004FF44845002498F802006F005D4E4FF4AD
:10502000FA694FF4804A072825D2DFE800F004131C
:10503000265A6977AB0098F8000000281BD0494633
:10504000D8F80C0000F0CEFAC8F80C50A8F80440CC
:1050500001200EE0D8F80C004946801CC8F80C006E
:1050600000F0C0FAD8F80C00B84204D10220C8F809
:105070000C5088F80200BDE8F087D8F80C0010F05A
:10508000FF0F20D100F0D8F8B8F8041026F811006E
:10509000491C88B2A8F80400102817D1D8F80C00D1
:1050A0005246A0F54840C11700EB116005121021CF
:1050B0003848FFF759FF3749203121F81500A8F883
:1050C0000440D8F80C00401CC8F80C004946D8F839
:1050D0000C0000F087FAD8F80C00B842CBD90320B6
:1050E000C7E7D8F80C004946401CC8F80C0000F08F
:1050F00079FAD8F80C00B0F5D23FBCD10420B8E75B
:10510000D8F80C004946401EC8F80C0000F06AFAB6
:10511000D8F80C00B842AED10520AAE7D8F80C00A8
:1051200010F0FF0F1FD100F087F8B8F8041026F830
:105130001100491C88B2A8F80400102816D1D8F82C
:105140000C005246A0F54840C11700EB1160061252
:1051500010211048FFF708FF0F4921F81600A8F8A2
:105160000440D8F80C00401EC8F80C004946D8F896
:105170000C0000F037FAD8F80C00A842BFF47BAF5F
:10518000062076E7BDE8F0470021084600F02ABA7D
:1051900058000020980400204A06002010B5124C48
:1051A0008EB0A07806281CD100F070FAFFF71CF929
:1051B000A06808B9FFF74EFA0020A0702070A06820
:1051C00000280ED109480068818800914388028830
:1051D00007A101A8FBF740F801A8FCF79BFAFCF730
:1051E00048FA0EB010BD0000580000203400002026
:1051F000466C61736820636865636B3A205B305D61
:105200003D25752C205B315D3D25752C205B325D85
:105210003D25750D0A0000000648417802781143CB
:1052200006D101210170002181708160C1608180FF
:1052300070470000580000200148008870470000B7
:1052400044000020014840887047000044000020CE
:1052500010B500F029F804484068002803D0BDE8E4
:10526000104000F003B810BD440000200A4810B5FB
:10527000416849B100204FF6FF724FF4804300BFF0
:1052800031F81040944201D1002010BD401C9842DA
:10529000F6D3012010BD0000440000200149486001
:1052A000704700004400002070B50B4C0025002121
:1052B0000948FCF7AEF928B1606840B1218830F8A0
:1052C000110005E06D1CEDB2032DF0D301E0208844
:1052D0006080608870BD000044000020044810B564
:1052E000806B00F087FBBDE81040024900F0C0BAB7
:1052F0008400002000007A44014840787047000094
:1053000084000020084A10B59368084C1B6808B157
:10531000D06800E05069C01A00F06CFB2146BDE87F
:10532000104000F0A5BA00008400002000004847AB
:105330002DE9F04107461C4615460E460020DDF8D3
:105340001880FFF7DFFF386000F00EF83060FFF7DD
:10535000C5FF2860034841782170817888F80010E3
:10536000BDE8F08184000020044810B5C06900F059
:1053700041FBBDE81040024900F07ABA84000020E9
:10538000000048470A480121417100210170417025
:1053900081708162C1620163C1700171C16001618C
:1053A00041618161C1610162416241638163704712
:1053B00084000020014988607047000084000020BC
:1053C00005498A685268824202DB5242824201DD0C
:1053D0000A63704708637047840000200149087021
:1053E000704700008400002002498A681268104457
:1053F0008862704784000020044A916889684B42A3
:10540000834202DC814200DBD062704784000020CE
:10541000F8B56A4CA06800282AD0FFF745FFFFF7CF
:1054200011FF0646FFF7E2FD28B9FFF705FF4FF42D
:1054300048314843060C607900254FF4C841C0B19B
:10544000A0680068884207DA00F5C84080B2B04220
:1054500009D2A6F5484606E0A0F5C84080B2B042A1
:1054600001D906F54846E66026616661A661657168
:10547000F8BDE068C4E90360301A884202DDA0F597
:10548000484004E010F5C84F01DA00F54840616972
:1054900040F271230844C4E90501E269411AC2EBF4
:1054A0004212594302EB4111226A11444A11A1EB05
:1054B0004211E261C4E9081061782078814202D08B
:1054C0006070FFF7C7F9A168E26A8868904202DB62
:1054D0004042904200DDE0624868226B904202DB6D
:1054E0004042904200DD2063E07870B9207920B11D
:1054F000FFF7B0F900F064F80BE0607828B10128FC
:105500000FD0022811D0032825D0FFF7A3F900F00F
:10551000BDF8617819B1E078227910431DD0A570EB
:10552000F8BDA06AFEF72CFFF3E7E269E06A801A93
:105530004FF48012904202DC5242904200DA104650
:1055400049694143881200906846FFF775F8009852
:10555000FEF704FFDDE7206BFAE72046012602276D
:105560007402012905D0022914D003291AD08570AC
:10557000F8BD0546D5E90910401AFEF7EAFE802875
:1055800006DCE869FEF7E5FEA04201DCAE70F8BD7E
:10559000AF70F8BDC369C26AD11A00D5991AA14289
:1055A00007DD08E0836B026BD11A00D5991A0A292E
:1055B00001DC8670F8BD8770F8BD00008400002013
:1055C00010B500210846FCF76DF801210846FCF7EC
:1055D00073F80121BDE810400846FCF77FB8FCF7DE
:1055E0004BB8000070B5274CC0F3090000F580727D
:1055F000A51F254B2080C2F309022A8033F912200F
:105600006A8033F910006080002900DC494241F2D1
:10561000DB335943C1F30B31002A00DC524212B292
:10562000002800DC404203B201FB02F0C0F30F305F
:105630005943A880C1F30F31A180FCF733F8B5F9C5
:105640000200002812DD4FF0000100BF4FF0010002
:10565000FCF732F8B4F9020000280DDD4FF000012C
:105660004FF00100BDE87040FCF738B84FF0010181
:10567000ECDA4FF00000EBE74FF00101F0DA4FF009
:105680000000EFE752000020E85A000810B50021A2
:105690000846FCF707F800210846FCF70DF8002142
:1056A000BDE810400846FCF719B8FEE7490050EA8B
:1056B000C12018BF04204A0D18BF40F0010040F27D
:1056C000FF72B2EB515F08BF40F00200012808BF33
:1056D000052070470907090E002804DB00F1E020CF
:1056E00080F80014704700F00F0000F1E02080F80F
:1056F000141D704730380A2801D20120704700205D
:1057000070470000FCF7C8FFFFF7AEF8FEF7E0FBBC
:10571000FEF7A8FBFEF75EFBFEF782FBFEF750FCF0
:10572000FEF774FCFEF7A8FCFEF72CFDFEF75EFD0D
:10573000FEF778FDFEF7F2FCFBF75EFF012100208B
:10574000FBF765FFFFF78EFB13A0FBF7E3FFFFF707
:1057500046FFFFF77DFDFFF739FC1348FFF72AFEF0
:10576000FFF710FE1148FDF777FD1148FDF774FDB6
:1057700010A0FBF7CFFF0120FFF796FB40B10220FE
:10578000FFF792FB20B1FFF747FD10A0FBF7C2FF28
:10579000FFF704FDFCE7000053797374656D205337
:1057A00074617274210D0A000C000020B401002005
:1057B0008C02002054696D6572207469636B2073DC
:1057C000746172746564210D0A00000043616C69A4
:1057D00020747269676765726564210D0A000000B4
:1057E00010B500290AD00878002807D00548784469
:1057F000FBF730FA002801D0002010BD02487844A1
:1058000010BD0000B20B0000AA0B00000808A0F5B4
:1058100000114FEA3101704743004FEAD30C4FEAC1
:105820003C0C43401FBF40070CF1605113F0FE4F8A
:1058300070471CF0006F03D100200CF0004170474E
:105840000CF0004343EA507010B540EACC0000F081
:10585000E9F800BF000000924FEA0001FFF7D6BF51
:105860004FF000414FF00000A1F50021704700000B
:105870004FF47F0C1CEAD0121EBF1CEAD11392EA2F
:105880000C0F93EA0C0F00F0858090EA010F48BFDF
:1058900042F4807240F4000C41F400002CF07F418F
:1058A00020F07F4000B58142A2EB03020FF2081CFA
:1058B000ACEB504EC0F100009EF800E04FEA4E0EF7
:1058C00000FB0EFC38BF49004FEA2C1C02F5FA021F
:1058D0000CFB0EF34FEACE1E4FEA112C4FEAC1210A
:1058E0000EEB635E42EB22420EFB0CFC4FEA1C53B4
:1058F00000FB03114FEA112C4FEA01310EFB0CFCA7
:105900004FEADC4C00FB0C11C14228BF09184CEBDC
:1059100003335DF804EB10EB410143EBC250B2F5E9
:105920007C0F38BF704729D512F0F00F1CBF00F173
:10593000C04000F0004070470081828384858687E4
:1059400088898B8C8D8E8F919293959697999A9C3E
:105950009D9FA0A2A3A5A7A8AAACAEB0B2B3B5B7AD
:10596000B9BCBEC0C2C5C7C9CCCED1D4D7D9DCDF83
:10597000E2E6E9ECF0F3F7FAFE0000004FEA400C33
:105980000CF1807CBCF17E4F28BF7047B0F1C04065
:1059900000F08EB890EA010F0CEAD11348BF42F430
:1059A0008072624538BF634507D213F47F0F16D06B
:1059B00080EA010000F00040704710B500F032F8B6
:1059C000097EFC3E00F005B880EA010000F00040CE
:1059D000704780EA010000F0004000F069B812F45E
:1059E0007F0F04BF0248704780EA010000F060B8F2
:1059F0000000C07F10F0004148BF4042B0FA80F381
:105A000010FA03F2C3F19D030BD051EAC35101EB2D
:105A10001220530638BF704700F1010008BF20F084
:105A2000010070470EF1020E2EF0030E5EF8044BDB
:105A3000244204D44FEA4102B2F17F4F11D84FEA19
:105A40004003B3F17F4F0CD80ED14FEAD07CB2F1B6
:105A50007F4F0CEB4C0C0CF1020C08BF4CEBD17CD3
:105A600004E04FF0080C01E04FEAD17C0CEB4C0352
:105A700024FA03F404F00704B4F1040C06D20EEB8C
:105A8000840CBDE810404CF0010C6047DFE80CF0DE
:105A9000070802024FF00040A0F5800010BD084644
:105AA000420018BFD2F1807288BF00F0004010BDE4
:105AB000FF2141EAD050C0057047FAF748BE010205
:105AC00002030405060708090A0B0C0D0E0F10103F
:105AD000000000000000000001020304060708099E
