:020000040800F2
:10000000F00D0020DD01000863320008D52D000846
:1000100061320008E70500088F4200080000000078
:100020000000000000000000000000005533000840
:10003000450800080000000065320008A9370008E4
:10004000F7010008F7010008F7010008F7010008B0
:10005000F7010008F7010008F7010008F7010008A0
:10006000F7010008F7010008F70100080106000881
:100070000D060008190600082506000831060008CC
:10008000F7010008F7010008F7010008593D0008D2
:10009000653D0008E9050008F5050008F7010008BE
:1000A000F701000829380008F7010008F7010008E7
:1000B000F70100083538000841380008F70100084A
:1000C000F7010008F7010008F7010008F701000830
:1000D000F7010008413D0008F70100084D3D000808
:1000E000F7010008F7010008F7010008F701000810
:1000F000F7010008F7010008F7010008F701000800
:10010000F7010008F7010008F7010008F7010008EF
:10011000F7010008F7010008F7010008F7010008DF
:10012000F7010008F7010008F7010008F7010008CF
:1001300000F002F800F042F80AA090E8000C8244B7
:100140008344AAF10107DA4501D100F037F8AFF294
:10015000090EBAE80F0013F0010F18BFFB1A43F0A5
:10016000010318474C4A00006C4A0000103A24BFB3
:1001700078C878C1FAD8520724BF30C830C144BF0C
:1001800004680C607047000000230024002500264E
:10019000103A28BF78C1FBD8520728BF30C148BFEA
:1001A0000B607047642900F06180752900F05E8063
:1001B000002070471FB51FBD10B510BD00F0ADF990
:1001C0001146FFF7F7FF04F073F800F0CBF903B422
:1001D000FFF7F2FF03BC00F0D3F9000009488047A5
:1001E00009480047FEE7FEE7FEE7FEE7FEE7FEE719
:1001F000FEE7FEE7FEE7FEE704480549054A064B31
:10020000704700002738000831010008F00700207F
:10021000F00D0020F0090020F0090020B2F12003C9
:100220000AD5C2F1200320FA02F001FA03F321FA01
:1002300002F140EA0300704721FA03F04FF0000199
:10024000704700000FB41CB5074B06AA7B446946F3
:100250000090059800F049F90020694600F058F92F
:100260001CBC5DF814FB0000C10200002DE9F04148
:100270000646002410687529314616A510D0AFF344
:100280000080002802DA404213A507E031688A079F
:1002900001D512A502E0490704D511A5012401E00A
:1002A000AFF3008000210A2206F1240709E0B0FB29
:1002B000F2FCB0FBF2F302FB1C003030785418461D
:1002C000491C0028F3D123462A463046BDE8F041B8
:1002D00000F0ADB8000000002D0000002B00000071
:1002E000200000002DE9F0410F460546002028625D
:1002F0002846E968884770B3252805D0D5E901214B
:100300009047286A401CF2E7E9682846002688479B
:100310006C2804460AD0682C08D04C2C35D06A2CA6
:1003200031D0742C31D07A2C2FD016E0E9680646F3
:1003300028468847B042044608D16C2E23D04FF49B
:1003400080662846E9688847044606E06C2E03D09C
:100350004FF4807601E01EE04026E4B1A4F14100B4
:10036000192802D8203446F400663A462146284629
:100370002E60FFF717FF60B1012808D0FF1D27F09E
:1003800007070837B4E78026DBE70026D9E73F1DDB
:10039000AEE72046B2E7286ABDE8F08110B5431CFD
:1003A00002E010F8011B71B18107FAD14FF0013260
:1003B00002C88C1A8C4314EAC211F9D0C01A0A067A
:1003C00003D0C01E10BDC01A10BD0A0401D0801E8B
:1003D00010BD0902FCD0401E10BD4FF0000200B558
:1003E000134694469646203922BFA0E80C50A0E858
:1003F0000C50B1F12001BFF4F7AF090728BFA0E806
:100400000C5048BF0CC05DF804EB890028BF40F8D1
:10041000042B08BF704748BF20F8022B11F0804F13
:1004200018BF00F8012B70477047704770472DE9DF
:10043000F0470D4699469246044600F124080168AB
:10044000880604D5E06921F01001216000E0012058
:10045000A84201DD471B00E00027A1697A1902EBE1
:100460000900081AA0612078C00602D42046AFF324
:100470000080002608E0D4E901211AF80600904720
:10048000206A401C761C20624E45F4DB2078C006B2
:100490000AD52046AFF3008006E0D4E901213020E0
:1004A0009047206A401C2062381EA7F10107F4DC47
:1004B00007E0D4E9012118F805009047206A401CA4
:1004C0002062281EA5F10105F3DC2046AFF3008071
:1004D0002078000602D50220BDE8F0870120FBE766
:1004E00001694A1C02610878704700B58FB0CDE9F8
:1004F00001310021059105497944CDE903101146E8
:100500006846FFF7EFFE0FB000BD0000E5FFFFFFFC
:100510000A6802F8010B0A607047754600F02CF873
:10052000AE4605006946534620F00700854618B0E0
:1005300020B5FFF761FEBDE820404FF000064FF008
:1005400000074FF000084FF0000B21F00701AC4608
:10055000ACE8C009ACE8C009ACE8C009ACE8C00927
:100560008D46704710B50446AFF300802046BDE8C5
:100570001040FFF72CBE0000004870479007002095
:1005800001491820ABBEFEE72600020070470000BC
:1005900070B5044600688168C943C90717D18168EE
:1005A00021F00101816001F0F7F805460AE000BF83
:1005B00001F0F2F8401B022804D920688068C0438B
:1005C000C00706D020688068C043C007F0D0002074
:1005D00070BDA06A40F01000A062E06A40F0010027
:1005E000E062012070BDFEE7014800F012BB000090
:1005F000DC000020014800F00CBB0000DC00002003
:10060000014800F0AFBD000098000020014800F054
:10061000A9BD0000D8030020014800F0A3BD0000E0
:1006200094030020014800F09DBD0000500300200D
:10063000014800F097BD00000C03002010B5084AE7
:10064000012802D0022802D006E0042100E00221A5
:10065000104601F097F808B1002010BD012010BD30
:10066000000C014010B5044600F07CFF2068E060FB
:1006700010BD00002DE9F04385B0054600F072FF83
:10068000002427464FF001084FF0FF390E4E12E0CC
:1006900004970097286804A900EBC420CDE902085C
:1006A000684600F0C1FE484600F030F9306920F09D
:1006B00002003061641CA868A042E9D805B0BDE81A
:1006C000F04300F005BF00000020024000F000BF32
:1006D0002DE9F0410F460446C16800681646814284
:1006E00016D3626801EB46011044814210D8002500
:1006F0000CE000BF37F8152000230120E16800F06E
:10070000F1FE10B9E068801CE0606D1CB542F1D3C9
:10071000BDE8F08110B50021084603F015F800216E
:10072000BDE81040012003F00FB803F00DB82DE92B
:10073000F04105460C464FF403404FF4044703F0E4
:1007400011F80646384603F00DF8F1B261F31F20A8
:1007500000210A46012606FA02F30746034201D0A9
:10076000491CC9B2521CD2B2102AF4D311F0010FA5
:1007700002D00020BDE8F0810DB18108298014B1BC
:10078000C7F3400020700120F4E701F005B801F044
:10079000A1B8000010B50821084801F0EFFF0C21B6
:1007A000064801F0EBFF0021084600F013F8002195
:1007B000BDE81040084600F01FB80000A40100206A
:1007C0008208034803681A6400688908C163704797
:1007D000A401002070B5074D0C46024602212846B0
:1007E00000F0D5FF22462846BDE87040042100F005
:1007F000CEBF00000008014070B5074D0C46024610
:100800000421284600F0C3FF22462846BDE8704078
:10081000082100F0BCBF0000001001400A4601465C
:100820004FF0FF33014802F084BA0000C4020020F8
:1008300010B50446FFF7B2FD81B22046BDE8104076
:10084000FFF7ECBF704772B6FEE7000006490020D4
:10085000C8610648016941F004010161016941F084
:100860004001016170470000200400200020024088
:10087000064A0021D16106490A6942F002020A6172
:100880004861086940F0400008617047200400207A
:1008900000200240044B0022DA61044A136943F04D
:1008A00001031361018070472004002000200240F2
:1008B00014480022C168CB06134904D5CA6942F026
:1008C0000202CA611022C3685B0705D5CB6943F0F9
:1008D0000103CB6142F00402C369DB0707D0CB6997
:1008E00043F00403CB61C16921F00101C161A2F5AC
:1008F0008071013901D0C2607047C16921F00101E6
:10090000C1617047002002402004002070B50546F8
:1009100000F042FF0646114C09E0681C07D025B1E3
:1009200000F03AFF801BA84201D9032070BDE068A7
:10093000C007F2D1E068800601D52020E060E068C1
:10094000C00605D4E069C00702D1E068400703D5BE
:10095000FFF7AEFF012070BD002070BD00200240F7
:10096000F8B50024009490F824202546012A12D0DE
:10097000012280F824204A681F23072A0DD2066826
:10098000776B521E02EB820293409F430B689340A9
:100990001F43776319E00220F8BD06680D2A0AD2CA
:1009A000376BD21F02EB820293409F430B68934048
:1009B0001F43376309E0F76A0D3A02EB8202934066
:1009C0009F430B6893401F43F7620A68072306683A
:1009D0000A2A0AD3F7680A3A02EB420293409F437D
:1009E0008B6893401F43F76008E0376902EB4202CF
:1009F00093409F438B6893401F4337610A68102AD6
:100A000001D0112A20D1124B02689A4217D1936863
:100A10001B0219D4936843F40003936009681029FA
:100A200012D10C490C4A0968B1FBF2F101EB8101CA
:100A3000490000E0491E00910029FBD104E0816AD1
:100A400041F020018162012480F824502046F8BD45
:100A5000002401401400002040420F002DE9F04125
:100A600004004FF000057FD0A06A002628B9E66296
:100A700084F82460204600F081F82046FFF788FDC6
:100A8000A16AC90600D420B1A06A40F01000A0629B
:100A90006AE0A16A21F4885141F00201A162334960
:100AA00023688B42E16904D1B1F5402F01D14FF4A5
:100AB0000021277B4FF4807C41EA470261680A43AA
:100AC000A168614508D0012906D0002194F814E0FE
:100AD000BEF1010F02D00AE06146F7E7C7B1A76A8D
:100AE00047F02007A762E76A47F00107E7625F68FF
:100AF00027F469470F435F60236899681C4F3940AA
:100B000011439960A16861450BD0012909D00CE01F
:100B1000DFF860E0A7690EEB47370F4347F4006149
:100B2000E5E7218A0D05A5F580152168CB6A23F438
:100B300070032B43CB62216889680F4B19409142A7
:100B400008D1E662A16A21F0020141F00101A1622F
:100B5000BDE8F081A06A20F0020040F01000A06221
:100B6000E06A40F00100E0620120F1E7003C014052
:100B7000FDF7E1FF00E0FFFFFE0E1FFF70B586B03E
:100B800000260546009601960296039600681B49CA
:100B9000884230D11A49886940F4007088618869B8
:100BA00000F400700490886940F00400886188694E
:100BB000694600F004000490012000900320019099
:100BC000104800F0E3FC114C0F48C4E900068020F7
:100BD000C4E9026040002061800060612020A061C3
:100BE0004FF44050E061204600F0E0FB08B1FFF711
:100BF0002AFE2C62656206B070BD00000024014030
:100C00000010024000080140080002409800002047
:100C100070472DE9F05F0546006800244669D0F86A
:100C200004908768D0F80CB0D0F810A0D0F81880E5
:100C3000F10748D0F90714D001218160B80703D526
:100C4000284600F0CDF90CE0780702D54FF4006497
:100C500007E0380702D54FF4805402E0284600F040
:100C6000BEF9F80516D529684FF480708860B8057C
:100C700003D5284600F0B6F90CE0780502D544F417
:100C8000005407E0380502D544F4804402E02846C9
:100C900000F0A7F9F80316D529684FF48030886072
:100CA000B80303D5284600F09FF90CE0780302D57D
:100CB00044F4004407E0380302D544F4803402E0F1
:100CC000284600F090F9300707D55FEACB6004D5DD
:100CD0002968102044F40074C86070074FF00807BA
:100CE00007D55FEA0B7004D52868C760284600F076
:100CF00071F9B00706D52868C068800702D0284679
:100D000000F069F9700607D55FEACA6004D5296862
:100D1000102044F480640861B00607D55FEA0A70C9
:100D200004D528680761284600F056F9F00606D574
:100D300028680069800702D0284600F04EF9B00309
:100D400008D55FEAC96005D52968102048602846A3
:100D500000F044F9F00307D55FEA097004D528686C
:100D60004760284600F041F9300446D55FEA4970F3
:100D700040D5F00504D55FEAC87001D044F0010405
:100D8000B00504D55FEA887001D544F0020470050F
:100D900004D55FEA487001D544F00404300529D534
:100DA00018F0700F26D008F07000402815D006DC2F
:100DB000102809D020280AD0302816D10AE050285F
:100DC0000ED0602811D10EE044F008040DE044F08C
:100DD00010040AE044F0200407E044F0400404E07A
:100DE00044F0800401E044F480742868816921F0B3
:100DF00070018161296804204860002C05D0686A70
:100E0000204368622846FFF703FFBDE8F09F70B5F6
:100E1000040003D094F8200010B104E0012070BD5C
:100E2000204600F081F82068016841F0010101606E
:100E300000F0B2FC0546052604E000F0ADFC401BC6
:100E40000A2811D820684068C007F6D020680168D9
:100E500021F00201016000F09FFC05460BE000F06C
:100E60009BFC401B0A2806D9606A40F4003060628F
:100E700084F82060D2E7206840688007EFD4207EA5
:100E80000128206801683DD021F080010160607E6A
:100E900001282068016838D021F040010160A07E5F
:100EA00001282068016833D021F020010160E07E34
:100EB0000128206801682ED041F010010160207FD8
:100EC00001282068016829D021F008010160607FB5
:100ED00001282068016824D021F004010160D4E9D0
:100EE00002010843D4E90412114308436168491E12
:100EF00008432168C86100206062012084F8200056
:100F0000002070BD41F08001C0E741F04001C5E71D
:100F100041F02001CAE721F01001CFE741F00801BC
:100F2000D4E741F00401D9E710B586B00021009163
:100F300001910291039100682349884242D12348DC
:100F4000C16941F00071C161C16901F00071049192
:100F5000816941F00401816180691D4C00F0040049
:100F600004904FF4006000906946204600F00EFBAC
:100F7000A0140090022001900320039069462046AF
:100F800000F004FB00221146132000F071FC132036
:100F900000F060FC00221146142000F069FC1420CF
:100FA00000F058FC00221146152000F061FC1520CD
:100FB00000F050FC00221146162000F059FC1620CB
:100FC00000F048FC06B010BD006400400010024074
:100FD000000801407047704770477047704770477E
:100FE00070477047704770477047704710B590F86A
:100FF00021100022022905D00421816380F82020DD
:10100000012010BD01680B6823F00E030B6001681E
:101010000B6823F001030B6090F84030C46B012192
:1010200001FA03F3636080F8211080F82020104655
:1010300010BD00002DE9F05F90F821100024022976
:1010400003D004218163012485E001680A6822F04D
:101050000E020A6001680A6822F001020A603F4E2F
:101060003E4FB215DFF8F4C0DFF8F090DFF8ECA0E7
:10107000DFF8E8B0DFF8E4E00168783F130115021B
:10108000ACF1640CA9F15009AAF13C0AABF1280BB0
:10109000AEF1140E4FF48018B14227D9B9420ED0E8
:1010A000614512D049451DD0514518D0594518D039
:1010B000714501D1424615E0294EB14201D10122CC
:1010C00010E0274E1436B14201D110220AE0244E1E
:1010D0002836B14206D0224A3C32914201D11A460A
:1010E00000E02A461E49091F0A602BE0B94213D0CE
:1010F000614517D0494522D051451DD059451DD0D5
:10110000714501D142461AE0B14202D14FF08072DE
:1011100015E0134EB14201D1012210E0104E1436F9
:10112000B14201D110220AE00D4E2836B14206D05C
:101130000B4A3C32914201D11A4600E02A46074947
:1011400080394A60012180F82110002180F82010A8
:10115000416B01B188472046BDE8F09F8000024006
:10116000080402402DE9F05FC16B0A6801680B6852
:10117000046C4FF0040808FA04F8844D844E854F3F
:10118000DFF814C2DFF81492DFF814A2DFF814B20B
:10119000DFF814E218EA020F65D05FEA437862D5FF
:1011A0000A68920603D40A6822F004020A60DFF893
:1011B000F0814FF48062016808F1140813011402F1
:1011C000414524D9A9420DD0B1420FD0B9421AD01D
:1011D000614515D0494515D0514501D1120312E0A2
:1011E000594501D104220EE0714501D140220AE0A7
:1011F0006D4D1435A94206D06B4A2832914201D177
:101200001A4600E022466749091F0A6029E0A94200
:1012100013D0B14215D0B94220D061451BD0494509
:101220001BD0514502D14FF4800217E0414502D155
:101230004FF0806212E0594501D104220EE0714561
:1012400001D140220AE0584D1435A94206D0564A31
:101250002832914201D11A4600E022464B49083912
:101260004A60C16A71E04FF0020808FA04F818EA0F
:10127000020F70D05FEA83786DD50A68920606D4B3
:101280000A6822F00A020A60012180F82110DFF8C2
:1012900010814FF40072016808F114081301140260
:1012A000414524D9A9420DD0B1420FD0B9421AD03C
:1012B000614515D0494515D0514501D1120312E0C1
:1012C000594501D102220EE0714501D120220AE0E8
:1012D000354D1435A94206D0334A2832914201D106
:1012E0001A4600E022462F49091F0A6029E0A94258
:1012F00013D0B14215D0B94220D061451BD0494529
:101300001BD0514502D14FF4001217E0414502D1E4
:101310004FF0007212E0594501D102220EE07145F2
:1013200001D120220AE0204D1435A94206D01E4AE0
:101330002832914201D11A4600E022461349083969
:101340004A60002180F82010816A00291CD0BDE885
:10135000F05F0847FFE70825A540154214D01A079B
:1013600012D50A6822F00E020A6090F84020C36B82
:10137000012101FA02F25A60816380F821100021F4
:1013800080F82010016BE0E7BDE8F09F0800024004
:101390001C0002403000024044000240580002405D
:1013A0006C000240080402401C04024030B560B1E9
:1013B0001A4B026814219A4209D2194B1344B3FB09
:1013C000F1F18900016417490AE0012030BD134B97
:1013D0005B421344B3FBF1F1890001640F49083902
:1013E000C163022180F82110136843F6F0718B432A
:1013F000F0E901142143D0E902452C43214304695B
:101400002143446921438469214319431160002128
:101410004163012242770177084630BD080402404B
:10142000F8FFFDBF000002402DE9F04705462648C1
:101430000F460126017E01290FD001218146017648
:101440002868DFF888804CF25034022808D0A24681
:101450002046FFF75BFAA8B131E00220BDE8F08733
:101460002046FFF753FA08BB0120FFF7EFF92046AB
:10147000FFF74CFAD8F81010064621F00401C8F81E
:1014800010101CE04FF0FF303860AC6811E02046CF
:10149000FFF7EEF95046FFF739FAD8F810100600BA
:1014A00021F00201C8F8101001D03C6007E004F5FB
:1014B0000064D5E9020100EBC120A042E7D8002179
:1014C00089F818103046C9E72004002000200240A7
:1014D0000348016941F0800101610020704700006C
:1014E000002002402DE9F05F07461C488846002492
:1014F000017E15461E46012909D00121814601764B
:101500004CF2503A5046FFF701FA18B122E002209F
:10151000BDE8F09F012F02D0022F00D00427D34650
:10152000DFF83CA0220128463146FEF777FE81B263
:1015300008EB4400FFF7AEF95846FFF7E7F9DAF891
:10154000102022F00102CAF8102018B9641CE4B27D
:10155000BC42E7D3002289F81820D9E720040020F4
:1015600000200240064900200A69120607D5054AF4
:101570004A60054A4A600969090600D5012070479A
:101580000020024023016745AB89EFCD2DE9F84FDC
:10159000DFF8C8910024A9F1040B23460F2709F1B5
:1015A000040AABF1040ED1E00125A54006EA0502CC
:1015B000AA4276D1DFF8A8C14E68A6EB0C086645B2
:1015C0002BD00DDC032E34D005DC36B3012E19D020
:1015D000022E2FD11BE0112E16D0122E2AD119E087
:1015E000B8F5881F19D006DCB8F5803F15D0B8F5DE
:1015F000801F1FD111E0B8F5001F0ED0B8F5041FF1
:1016000018D10AE0CB6815E0CB681B1D12E0CB684F
:1016100008330FE0CB680C330CE08B682BB1012B47
:101620004FF0080303D0456104E0042302E00561A4
:1016300000E00023FF2A01D8064601E000F104067D
:101640004FEA840501D9A5F12005D6F8008007FAF4
:1016500005FC28EA0C0803FA05F548EA0508C6F86F
:1016600000804D68ED0070D53E4DAE6946F0010634
:10167000AE61AD6924F0030605F0010500953A4D11
:1016800006EB050CDCF80850A607360F07FA06F83B
:1016900025EA0805DFF8D480404503D14FF0000863
:1016A00025E052E0DFF8C880404502D14FF0010844
:1016B0001DE0DFF8C080404502D14FF0020816E07F
:1016C000DFF8B480404502D14FF003080FE0DFF8A7
:1016D000AC80404502D14FF0040808E0DFF8A0805C
:1016E000404502D14FF0050801E04FF0060808FA26
:1016F00006F848EA0508CCF808804D68D9F800607B
:10170000ED024D4601D5164300E096432E604D682C
:10171000DAF80060AD02554601D5164300E0964365
:101720002E604D68DBF80060AD035D4601D51643C1
:1017300000E096432E604D68DEF80060ED037546CC
:1017400001D5164300E096432E60641C0A681646D5
:10175000E2407FF429AFBDE8F88F000008040140A3
:10176000000011100010024000000140000801407C
:10177000000C01400010014000140140001801401D
:10178000001C01408068084000D0012070470AB169
:10179000016170470904FBE7014880687047000059
:1017A0000800002002488168027811448160704777
:1017B00008000020074810B5016841F010010160E1
:1017C000032000F075F80F2000F006F800F024F870
:1017D000002010BD0020024070B50D4D04464FF4AE
:1017E0007A712878B1FBF0F00A490968B1FBF0F092
:1017F00000F0EEFC48B9102C07D200222146501E02
:1018000000F036F800206C6070BD012070BD000053
:1018100008000020140000200C4808B5816941F040
:1018200001018161816901F001010091C16941F00B
:101830008051C161C06900F0805000900448416847
:1018400021F0E06141F00071416008BD00100240EC
:1018500000000140002809DB00F01F020121914037
:101860004009800000F1E020C0F80011704700003E
:10187000F0B40E4B1B680C46C3F30223C3F10705FB
:10188000042D00D90425191D072901D2002300E0E9
:10189000DB1E012606FA05F1491E214099409E40B3
:1018A000761E16403143F0BC02F0F2BC0CED00E0B5
:1018B000064900F0070208684FF6FF03184040EAA7
:1018C0000220034A10430860704700000CED00E05E
:1018D0000000FA05BFF34F8F05480168054A01F47F
:1018E000E06111430160BFF34F8F00BFFDE70000CF
:1018F0000CED00E00400FA052DE9F84305460078F8
:10190000354CC00754D0E0690026C00008D4E06917
:1019100040F08050E061E069012600F080500090C6
:101920002E480168C90512D40168804641F48071CF
:101930000160FFF731FF074605E000BFFFF72CFF0E
:10194000C01B642823D8D8F80000C005F6D5206A4B
:1019500010F4407021D0A98801F4407181421CD05C
:10196000206A1F49012220F440700A6000220A60A8
:101970002062C00711D0FFF70FFF074641F28838F9
:1019800008E000BFFFF708FFC11B414502D9032053
:10199000BDE8F883206A8007F4D5206A696820F4DE
:1019A0004070084320621EB1E06920F08050E06181
:1019B0002878800705D56068A96820F4404008436E
:1019C00060602878C00605D56068696920F48000E9
:1019D000084360600020DBE7001002400070004018
:1019E000400442422DE9F0470F46050061D0434EC6
:1019F000306800F00700B84209D2306820F00700D4
:101A000038433060306800F00700B84251D1286890
:101A10003B4C810712D5400703D5606840F4E06075
:101A200060602878000703D5606840F4605060600B
:101A30006068A96820F0F000084360602878C0075B
:101A400028D06868012810D02168022810D08907A2
:101A500000292EDA616821F0030101436160FFF77C
:101A60009BFE804641F288390DE021688903EFE74B
:101A70008901EDE7FFF790FEA0EB0801494502D987
:101A80000320BDE8F0876068696800F00C00B0EBE7
:101A9000810FEFD1306800F00700B8420BD93068F1
:101AA00020F0070038433060306800F00700B8428B
:101AB00001D00120E5E72878400705D56068E9688E
:101AC00020F4E060084360602878000706D560686D
:101AD000296920F4605040EAC100606000F038F8E5
:101AE0006168084AC1F30311515CC84006490860A7
:101AF00006480068FFF770FE0020C2E700200240A1
:101B00000010024096430008140000200C00002042
:101B10000448054900684968044AC1F30221515C40
:101B2000C84070471400002000100240A64300087F
:101B30000448054900684968044AC1F3C221515C60
:101B4000C84070471400002000100240A64300085F
:101B50000E4A51680E4801F00C03042B11D0082BDB
:101B60000FD10C48C1F38343C903C05C0AD5516847
:101B7000084AC1F34041921E515C054A5043B0FBF4
:101B8000F1F07047044948437047000000100240DC
:101B900000127A008643000800093D002DE9F84F45
:101BA000040070D02078C04DC00749D06868C0F3E9
:101BB0008100012807D06868C0F38100022809D19C
:101BC0006868C00306D52868800339D56068002896
:101BD000E7D035E06068B0F5803F0BD010B1B0F5CC
:101BE000A02F11D0286820F480302860286820F4C5
:101BF000802002E0286840F480302860606890B15E
:101C0000FFF7CAFD06460AE0286840F480202860F5
:101C1000F0E700BFFFF7C0FD801B642873D8286879
:101C20008003F7D50CE0FFF7B7FD064605E000BFDF
:101C3000FFF7B2FD801B6428F0D828688003F7D432
:101C400020789A4E80074FF001094FF0000839D5EF
:101C5000686810F00C0F07D06868C0F38100022894
:101C600009D16868C00306D42868800714D52069A4
:101C7000012808D110E02069B0B1C6F80090FFF744
:101C80008BFD074605E00AE1FFF786FDC01B022831
:101C9000C4D828688007F7D52868616920F0F80063
:101CA00040EAC10028600DE0C6F80080FFF774FD2F
:101CB000074604E0FFF770FDC01B022823D8286800
:101CC0008007F7D4207800072CD57948A169D9B1CD
:101CD000C0F80090FFF760FD074604E0FFF75CFDE9
:101CE000C01B02280FD8686A8007F7D571484FF4E7
:101CF000FA510068B0FBF1F0009000BF0098411E5F
:101D00000091FAD20EE080E0C0F80080FFF744FDB9
:101D1000074604E0FFF740FDC01B022875D8686A3B
:101D20008007F7D42078400760D5E8690027C00015
:101D300008D4E86940F08050E861E869012700F0C4
:101D4000805000905C480168C90513D4016883463F
:101D500041F480710160FFF71FFD824606E000BF7D
:101D6000FFF71AFDA0EB0A0064284ED8DBF800004C
:101D7000C005F5D5E06801280AD008B1052813D0C0
:101D8000286A20F001002862286A20F0040002E09E
:101D9000286A40F001002862E06841F2883B98B16F
:101DA000FFF7FAFC82460BE0286A40F00400286244
:101DB000EEE700BFFFF7F0FCA0EB0A0159455AD847
:101DC000286A8007F6D50CE0FFF7E6FC824605E0BE
:101DD000FFF7E2FCA0EB0A0159454CD8286A8007BE
:101DE000F6D41FB1E86920F08050E861E06988B35B
:101DF0006968C1F38101022944D00228C6F86080D5
:101E000004D0FFF7C9FC044638E034E0FFF7C4FC17
:101E1000074604E0FFF7C0FCC01B02282BD8286847
:101E20008001F7D4206AB0F5803F05D16868A168C9
:101E300020F4003008436860D4E908010843696869
:101E400021F4741108436860C6F86090FFF7A4FCA1
:101E5000044606E025E000BFFFF79EFC001B0228B9
:101E600009D828688001F7D51BE000BFFFF794FC74
:101E7000001B022802D90320BDE8F88F28688001E2
:101E8000F4D40EE00128F7D06868226A00F48031AB
:101E9000914204D1616A00F47010884201D001209F
:101EA000EAE70020E8E7000000100240000042429C
:101EB00080044242140000200070004070B504000D
:101EC00009D0606A002540B125616561A56294F87A
:101ED000510040B10CE0012070BD6068B0F5827F18
:101EE000F4D0E561F2E784F85050204600F040F865
:101EF000022084F851002068016821F0400101604F
:101F0000A088218900F4827001F404410843A1896A
:101F100001F400610843217C01F002010843217DA6
:101F200001F001010843218B01F400710843217F76
:101F300001F03801084394F8201001F080010843B3
:101F4000218D01F40051084321680860A069042133
:101F500001EA1040216848602068C16921F40061ED
:101F6000C1616565012084F85100002070BD00004A
:101F700030B585B000240094019402940394006865
:101F80001449884223D11448816941F48051816108
:101F9000816901F480510491816941F004018161FA
:101FA00080690E4D00F004000490A02000900220F3
:101FB00001900320039069462846FFF7E7FA402086
:101FC000CDE90004694628460294FFF7DFFA05B020
:101FD00030BD000000300140001002400008014008
:101FE0002DE9FF4F81B01D46934604464FF001098D
:101FF0000E9EFFF7D1FB074694F851006168012857
:1020000006D0B1F5827F3CD1A168C9BB042838D184
:102010000298002871D0BBF1000FFBD0002DF9D041
:1020200094F8500001282CD04FF0010A84F850A0F9
:1020300094F85100042802D0052084F851004FF094
:102040000008C4F85480C4F838B0E587A587029921
:102050002163E586A586C4F84080C4F844802068E2
:102060000168490603D4016841F040010160E0685D
:10207000B0F5006F606808D0F0B3012D49D081E061
:10208000FFE7022005B0BDE8F08F08B1012D39D17E
:10209000206B21680088C860206B801C2063E08E64
:1020A000401EE0862EE02068816889070FD5E18E0A
:1020B00069B1B9F1010F0AD1216B0988C160206BA8
:1020C000801C2063E08E401EE0864FF000092068EF
:1020D0008168C9070CD0E18F51B1C068A16B08803D
:1020E000A06B801CA063E08F401EE0874FF00109C9
:1020F000FFF752FBC01B01E00BE067E0B04201D3E9
:10210000701C50D1E08E0028CDD1E08F0028CAD1BC
:102110003EE0206B216800780873206B401C206330
:10212000E08E401EE0862DE02068816889070FD58B
:10213000E18E69B1B9F1010F0AD1216B0978017300
:10214000206B401C2063E08E401EE0864FF00009AB
:1021500020688168C9070CD0E18F51B1C068A16BBC
:102160000870A06B401CA063E08F401EE0874FF01A
:102170000109FFF711FBC01BB04202D3701C01D054
:1021800011E086B1E08E0028CED1E08F0028CBD1BF
:102190003A463146204601F066F850B1202060658D
:1021A00084F8508012E084F851A084F85080032015
:1021B00068E7A06818B92068C1688068009084F852
:1021C00051A084F85080606D0028F1D0012059E7BB
:1021D00010B5401EB0F1807F01D3012010BD4FF03B
:1021E000E02460610F21601702F052F80020A06126
:1021F00007202061002010BD7047704770B590F82F
:102200003C20012A2CD0012480F83C40022280F896
:102210003D2003685A689D6822F070060A683243C0
:102220005A60104B02689A420ED00F4B9A420BD064
:10223000B2F1804F08D00D4B9A4205D00C4B9A4218
:1022400002D00C4B9A4204D1496825F0800319430F
:10225000916080F83D40002180F83C10084670BD38
:10226000022070BD002C01400034014000040040F9
:1022700000080040000C004010B5040003D094F8A2
:102280003D0010B107E0012010BD002084F83C00A3
:10229000204600F01FF8022084F83D00211D206830
:1022A00001F0D4FA012084F8460084F83E0084F856
:1022B0003F0084F8400084F8410084F8420084F82C
:1022C000430084F8440084F8450084F83D00002071
:1022D00010BD000008B5234A0168234891420ED181
:1022E000816941F4006181618069002200F400602D
:1022F000009011461920FFF7BBFA19202EE0B1F12A
:10230000804F11D0194A914217D1C16941F00201A1
:10231000C161C069002200F00200009002211D206E
:10232000FFF7A6FA1D2019E0C16941F00101C16162
:10233000C06900F00100009008BD0D4A9142FBD138
:10234000C16941F00401C161C069002200F00400CC
:10235000009011461E20FFF78BFA1E20BDE80840B2
:10236000FFF778BA002C0140001002400004004042
:102370000008004090F83D10012901D0012070476D
:10238000022180F83D100168CA6842F00102CA606B
:1023900000680E4988420ED00D4988420BD0B0F13A
:1023A000804F08D00B49884205D00B49884202D0A3
:1023B0000A49884204D1816801F00701062903D047
:1023C000016841F00101016000207047002C0140CC
:1023D000003401400004004000080040000C0040B0
:1023E00070B5044690F83C000025012817D001265E
:1023F00084F83C60022084F83D002068826822F066
:10240000770222F47F4282600868502838D00DDCC1
:1024100020284FD005DC90B3102811D14AE00220CB
:1024200070BD302846D040280AD13BE060282FD02C
:1024300070280DD0B0F5805F03D0B0F5005F12D0EA
:10244000012584F83D60002084F83C00284670BDDA
:10245000CB68D1E90121206801F053FA2068816836
:1024600041F0770109E0CB68D1E90121206801F052
:1024700048FA2068816841F480418160E1E719E011
:10248000CA684968206801F011FB5021206806E005
:10249000CA684968206801F01AFB6021206801F0D1
:1024A0003AFACEE7CA684968206801F0FFFA40218D
:1024B0002068F4E7226801461046F0E770472DE9EE
:1024C000F04104460068C66805694FF00007A90797
:1024D00013D5B10711D5F91E0161012020772068BD
:1024E00080698007204602D0FFF7E8FF04E000F093
:1024F000AFF8204600F041F92777680716D5700736
:1025000014D521686FF0040008610220207720684C
:10251000806910F4407F204602D0FFF7CFFF04E02F
:1025200000F096F8204600F028F92777280715D5FF
:10253000300713D521686FF0080008610420207768
:102540002068C0698007204602D0FFF7B7FF04E08B
:1025500000F07EF8204600F010F92777E80616D53F
:10256000F00614D521686FF010000861082020776C
:102570002068C06910F4407F204602D0FFF79EFF1C
:1025800004E000F065F8204600F0F7F82777E80748
:1025900008D0F00706D021686FF0010008612046DE
:1025A00000F046F9280608D5300606D521686FF0F8
:1025B000800008612046FFF71FFE680608D57006F8
:1025C00006D521686FF040000861204600F068F9E8
:1025D000A8060AD5B00608D521686FF0200008616A
:1025E0002046BDE8F041FFF708BEBDE8F0810000DD
:1025F00000B585B00021009101910291039100681E
:10260000B0F1804F1BD10F48816941F00801816111
:102610008069694600F0080004904FF44060009023
:102620000220019003900848FEF7B0FF0748416878
:1026300021F4407141F0E06141F40071416005B066
:1026400000BD000000100240000C014000000140ED
:10265000704770B5044690F83C0000260D460128EE
:102660000FD0012084F83C006AB1042A1DD0082A4A
:102670002FD00C2A3FD00126002084F83C003046A1
:1026800070BD022070BD206801F04EF9206881699C
:1026900041F0080181612068816921F004018161B4
:1026A000206881692A69114311E0206801F06CF902
:1026B0002068816941F4006181612068816921F4A9
:1026C00080618161206881692A6941EA0221816112
:1026D000D2E7206801F08EF92068C16941F0080155
:1026E000C1612068C16921F00401C1612068C1692C
:1026F0002A69114311E0206801F0B0F92068C1692E
:1027000041F40061C1612068C16921F48061C16147
:102710002068C1692A6941EA0221C161ACE710B5AC
:10272000040003D094F83D0010B107E0012010BD73
:10273000002084F83C00204600F01EF8022084F8B7
:102740003D00211D206801F081F8012084F8460039
:1027500084F83E0084F83F0084F8400084F841008B
:1027600084F8420084F8430084F8440084F845006B
:1027700084F83D00002010BD7047704710B5044636
:10278000022249B104290ED0082913D094F841003F
:10279000012816D0012010BD94F83E000128F9D17F
:1027A00084F83E200FE094F83F000128F2D184F82D
:1027B0003F2008E094F840000128EBD184F8402045
:1027C00001E084F841200122206801F08DF81349CE
:1027D0002068134A884201D0904203D1436C43F4ED
:1027E00000434364206888420DD090420BD0B0F182
:1027F000804F08D00B49884205D00B49884202D04F
:102800000A49884204D1816801F00701062903D0F2
:10281000016841F001010160002010BD002C014061
:10282000003401400004004000080040000C00405B
:1028300010B500681449154C88B0884218D101F0D1
:10284000C1FA6068401C606064280FD3002060609B
:10285000206800F001010020FDF767FF22680CA14D
:102860006846FDF7EFFC6846FDF7E2FF08B010BDD3
:102870000A498842FAD12068401C206008B0BDE8AF
:10288000104001F039BB0000002C01400000002086
:1028900032306B487A3D256C750D0A000008004007
:1028A0007047704770470000F8B501680446086833
:1028B000CA684B6910F00F0F4FF0000559D003F0B4
:1028C000010602F49077374365D0C10705D0D105E2
:1028D00003D5616C41F001016164410705D5D90759
:1028E00003D0616C41F002016164810705D5D9070D
:1028F00003D0616C41F004016164010707D502F067
:102900002001314303D0616C41F008016164616CC6
:1029100000293AD0800604D5900602D5204601F061
:1029200017F920684069616CC0F38010090700D472
:1029300060B3204601F0E5F820684069400621D5E3
:102940002068143050E8001F21F0400140E80012D8
:10295000002AF5D1E06BA8B16D494163E06BFEF749
:1029600069FB002811D0E06B416B01B0BDE8F0407D
:10297000084783060FD593060DD52046BDE8F840DD
:1029800001F0E6B82046FFF78DFFF8BD2046FFF7BF
:1029900089FF6564F8BD266B2023012E7CD1C60615
:1029A0007AD5D60678D508684868009048694FF00F
:1029B0000206400640D5E16B086840680004000C40
:1029C000E8D0A28D8242E5D9E085886920282DD003
:1029D00020680C3050E8001F21F4807140E800129C
:1029E000002AF5D12068143050E8001F21F00101C1
:1029F00040E80012002AF5D12068143050E8001F8A
:102A000021F0400140E80012002AF5D184F842305C
:102A1000256320680C3050E8001F21F0100140E8C9
:102A20000012002AF5D1E06BFEF7E0FA6663A08D94
:102A3000E18D401A81B22AE0A08DE18D401A81B269
:102A4000E08D0028A6D00029A4D022680C3252E8DC
:102A5000000F20F4907042E80007002FF5D12068A5
:102A6000143050E8002F22F0010240E80027002F28
:102A7000F5D184F84230256320680C3050E8002FEF
:102A800022F0100240E80023002BF5D166632046B7
:102A9000FFF707FFF8BDFFE705062BD5150629D57B
:102AA00094F841002128F5D1A068B0F5805F01D1EC
:102AB0002069B0B1206A411C216221680078486019
:102AC000E08C401E0004000CE084E3D12068C16863
:102AD00021F08001C1602068C16841F04001C160FF
:102AE000D8E7206A0088C0F308004860206A801C8C
:102AF0002062E5E74006CDD55006CBD5CA68204612
:102B000022F04002CA6084F8413000F062F9C1E767
:102B1000F33A000870B5040004D094F84100002591
:102B200010B106E0012070BD84F84050204600F04E
:102B300023F8242084F841002068C16821F4005162
:102B4000C160204601F066F82068016921F49041D7
:102B500001612068416921F02A0141612068C16852
:102B600041F40051C1606564202084F8410084F87C
:102B700042006563002070BD2DE9F04F85B000254F
:102B80000095019502950395044603686148DFF8B6
:102B900080C102210322061580274FF020094FF043
:102BA000100A4FF4005B634550D1836943F48043BE
:102BB0008361836903F480430493836943F00403CE
:102BC00083618069DFF8508100F0040004900802FE
:102BD000CDE90001039269464046FEF7D7FCCDE9F6
:102BE0000065694640460295FEF7D0FC4C4E4B48C6
:102BF000B846C6E90005C6E90257C6F81CB03561FB
:102C0000C6E905595F463046FEF7D0FB08B1FDF72F
:102C10001AFEE6637462424E404844361438C6E9F0
:102C2000025835617561C6E9000AC6E906573046A3
:102C3000FEF7BCFB08B1FDF706FEA66300221146B5
:102C400025207462FEF714FE25205CE0DFF8D4C076
:102C500063455AD1C36943F48023C361C36903F454
:102C600080230493836943F0100383618069CDE975
:102C7000006100F01000CDE903202B4E694630467C
:102C8000FEF784FCF014CDE9000569463046029554
:102C9000FEF77CFC2548416821F0300141F0E061FD
:102CA00041F0100141601E4E1C4888362838C6E9A4
:102CB0000005C6E9025735614FF440507561C6E919
:102CC00006903046FEF772FB08B1FDF7BCFDE663E7
:102CD0007462134E1148CC363C38C6E90257356150
:102CE0007561C6E9000AC6E9065B3046FEF75EFB81
:102CF00008B1FDF7A8FDA6630022114627207462E3
:102D0000FEF7B6FD2720FEF7A5FD05B0BDE8F08F64
:102D10000038014000100240000801405800024005
:102D20000C0300200048004000100140000001405A
:102D300070472DE9F843044690F84100984616463E
:102D40000D46202802D00220BDE8F88385B17EB16F
:102D500000206064212084F84100FEF71DFDA68458
:102D60008146E684A0682027B0F5805F02D003E0AA
:102D70000120E9E7206910B12E4600250EE000266B
:102D80000CE08021204600F0A1FFA8B9C6B116F8DA
:102D9000010B21684860E08C401EE084E08C4B46CB
:102DA0004FF00002CDF800800028EAD14FF040013A
:102DB000204600F08BFF40B184F841700320C3E748
:102DC00035F8020BC0F30800E3E784F841700020F7
:102DD000BAE77047FEE700003EB5002410480094B3
:102DE000019402940D498460016004730475012507
:102DF00005614FF460214460C161FDF72FFE08B109
:102E0000FDF721FDCDE90045694605480294FDF72F
:102E1000A7FD002801D0FDF716FD3EBD00240140AE
:102E2000680000200F4810B50D490160062141607F
:102E300000214FF400228160C0E903125200426178
:102E4000017641768176C17601774177FDF7DFFF24
:102E5000002803D0BDE81040FDF7F5BC10BD000010
:102E600000640040DC000020194808B5416941F0C9
:102E7000010141614069002200F00100009011460B
:102E80000B20FEF7F5FC0B20FEF7E4FC00221146B8
:102E90000C20FEF7EDFC0C20FEF7DCFC00221146B6
:102EA0000D20FEF7E5FC0D20FEF7D4FC00221146B4
:102EB0000E20FEF7DDFC0E20FEF7CCFC00221146B2
:102EC0000F20FEF7D5FCBDE808400F20FEF7C2BC7E
:102ED000001002402DE9F04786B0002435480094E8
:102EE000019402940394816941F020018161816918
:102EF00001F020010491816941F010018161816933
:102F000001F010010491816941F00401816181693E
:102F100001F004010491816941F008018161806937
:102F2000254F00F00800049000220C213846FEF7DF
:102F30002EFCDFF88890002216214846FEF727FC79
:102F4000DFF87CA04FF44058002241465046FEF77F
:102F50001EFC0C2001250226CDE90005CDE9024624
:102F600069463846FEF712FB062700970396CDE91F
:102F7000015469464846FEF709FB1020CDE90005DB
:102F80000320CDE9024069464846FEF7FFFACDE945
:102F90000074694650460294FEF7F8FACDF80080B6
:102FA0000396CDE9015469465046FEF7EFFA06B0A4
:102FB000BDE8F08700100240001001400008014009
:102FC000000C0140114810B50F4901604FF48271A7
:102FD000416000214FF40062C0E902120222026146
:102FE00001224261520282611022C0E9072141623E
:102FF00081620A21C162FEF761FF002803D0BDE8AB
:103000001040FDF720BC10BD00300140040100203D
:1030100010B586B0002418480094019402940394DB
:1030200004941449059401604721C0E9011442F257
:103030000F71C0E903148021C0E90541FFF71CF9B5
:1030400008B1FDF700FC4FF48050009069460A4833
:10305000FFF7C6F908B1FDF7F6FB049404A906488A
:103060000594FFF7CBF8002801D0FDF7ECFB06B084
:1030700010BD0000002C01405C01002010B58EB096
:1030800000240794089409940A940B941C21684620
:103090000C94FDF7A2F921484FF08041C0E90014DB
:1030A00040F2FF31C0E9024104618461FFF7E4F8B6
:1030B00008B1FDF7C8FB4FF48050079007A91748E7
:1030C000FFF78EF908B1FDF7BEFB1448FFF727FBA9
:1030D00008B1FDF7B8FB0B940BA910480C94FFF74F
:1030E0008DF808B1FDF7AFFB6020CDE90004029434
:1030F0000822694609480494FFF7ABFA08B1FDF7C6
:10310000A2FB0C2269460548FFF7A3FA08B1FDF7B8
:103110009AFB0248FFF76CFA0EB010BDA401002024
:1031200010B586B0002417480094019402940394CB
:10313000049413490594016040F60F61C0E901143D
:103140002321C0E903148461FFF796F808B1FDF765
:103150007AFB4FF48050009069460A48FFF740F927
:1031600008B1FDF770FB049404A906480594FFF725
:1031700045F8002801D0FDF766FB06B010BD000041
:1031800000040040EC01002010B586B00024174870
:1031900000940194029403940494134905940160EB
:1031A0004721C0E901143121C0E903148021816164
:1031B000FFF762F808B1FDF746FB4FF4805000902E
:1031C00069460A48FFF70CF908B1FDF73CFB049487
:1031D00004A906480594FFF711F8002801D0FDF76F
:1031E00032FB06B010BD0000000800403402002091
:1031F0000C4810B50A4901604FF4E13141600021EB
:1032000081600C22C160C0E904128161C161FFF7D5
:1032100081FC002803D0BDE81040FDF714BB10BDB1
:10322000003801407C0200200C4810B50A490160BA
:103230004FF4E1314160002181600C22C160C0E99E
:1032400004128161C161FFF765FC002803D0BDE86D
:103250001040FDF7F8BA10BD00480040C40200203D
:10326000FEE7FEE77047F8B515460E460B4600929E
:1032700004460122022100F011F840B93346002231
:1032800080212046009500F009F8002804D0606DE8
:1032900040F0200060650320F8BD00002DE9F843F0
:1032A0001E46914688460446089DFEF775FA401B67
:1032B000351AFEF771FA074625480068C0F3CB308F
:1032C000684338E0701C37D0FEF766FAC01BA8428E
:1032D00003D215B1009860B32CE02068416821F05A
:1032E000E00141606068B0F5827F0BD1A068B0F565
:1032F000004F02D0B0F5806F04D12068016821F042
:1033000040010160A06AB0F5005F09D12068016842
:1033100021F4005101602068016841F4005101600E
:10332000012084F85100002084F850000320BDE8FB
:10333000F8830025401E00902068816838EA01006B
:1033400004D000214945BDD10020F0E70121F9E773
:1033500014000020704700002DE9F04F574E002761
:103360008DB04FF051093C464FF48048A6F5C97521
:1033700036F8141035F81400424600F069FD25F8BF
:103380001400641CC92CF3DBB5F88E112888424662
:1033900000F097FD4A4C4FF0010A002803D006DDEB
:1033A0004FF0010005E047A0C4F808A081E04FF00D
:1033B0000000E07009EB49004FF001064FF0020BEE
:1033C00000EBD07805EB46004FF4804230F8021C49
:1033D00035F8160000F075FD002801DB014600E01D
:1033E0004142B1EB680F04DD32463CA1C4F808B09D
:1033F0000DE0002801DB024600E0424209EBD971F2
:10340000B2EB610F07DA32463CA1C4F808B0684657
:10341000FCF718FF4CE0002803D007DD4FF0010057
:1034200006E032463DA1C4F808A0F0E74FF00000E6
:10343000E178884204D032463FA1C4F808A0E6E70C
:10344000761CC82EBEDBD4E90403002201F0FF0C79
:1034500043F6FF7A4FF480584FF4405905EB42068B
:1034600035F812107688BCF1000F07D049450CDD05
:1034700046450ADA1046AAEB010305E0414504DAA5
:103480004E4502DD10460B467F1C521CC82AE5DB68
:10349000C4E904030246012F04D003203A462FA1B9
:1034A000A060B4E70020A06034A16846FCF7CAFE23
:1034B0006846FDF7BDF90DB0BDE8F08FF2050020BC
:1034C0003C0000204572726F723A20446972656355
:1034D00074696F6E207A65726F0D0A004572726FA3
:1034E000723A20436F6E74696E75697479206C61ED
:1034F0007267652C20693D25640D0A004572726F64
:10350000723A20436F6E74696E7569747920736DB9
:10351000616C6C2C20693D25640D0A004572726F48
:10352000723A205A65726F2064656C74612C206950
:103530003D25640D0A0000004572726F723A204406
:103540006972656374696F6E206D69736D61746310
:10355000682C20693D25640D0A0000004572726FD9
:10356000723A20506861736520737465702C206E08
:10357000756D3D256C750D0A00000000535F4368B2
:1035800065636B4461746120504153532C20726316
:10359000645F783D256C642C207263645F793D25FF
:1035A0006C640D0A000000002DE9F04F544E8DB000
:1035B0000020B06134465348FDF75CF85148FDF7F0
:1035C00051F8E078346900284FF4804A4FF4484BB2
:1035D000304636D13AE0C821204600F06CFC4A4D16
:1035E000C82135F81070601C00F065FC35F810003B
:1035F0005246394600F065FC07463069844201D1E5
:10360000756900E00025C830844202D1D6F81480E4
:1036100014E0B84612E0280290FBF7F000EB04201B
:10362000594600F048FCADF8300001220CA935489D
:10363000FDF74EF8B169491C6D1CB1614545EADBE7
:10364000641C3069C9308442C5DB3FE0C83439E0CE
:10365000C821601C00F02FFC2B4DC82135F81070DC
:10366000204600F028FC35F810005246394600F09C
:1036700028FC0746306900F1C8018C4201D1756908
:1036800000E00025844202D1D6F8148000E0B8465C
:10369000200200F5807912E0280290FBF7F1A9EBF7
:1036A0000100594600F007FCADF8300001220CA9DA
:1036B0001448FDF70DF8B169491C6D1CB161454511
:1036C000EADB641E3069401E8442C1DC0D48FCF711
:1036D000FDFFF06934460DA103886846B269FCF726
:1036E000B1FD6846FDF7A4F8A069504504D101205A
:1036F00060700DB0BDE8F08F0420A060F9E7000015
:103700003C0000201800002060040020535F476543
:103710006E65726174655461626C6520646F6E657C
:103720002C20726573756C745F6E756D3D256C75BC
:103730002C2063616C695F7461626C655B305D3D18
:1037400025750D0A000000000A46054900280846B4
:1037500002D08914FEF71BB84FF40051FAE70000BD
:10376000000C014011B583B000200D4CADF80400F1
:10377000024610212046FEF70AF84FF0FF30009075
:10378000012301AA03A90748FEF72AFC0122102100
:103790002046FDF7FCFFBDF8040004B010BD00009A
:1037A0000008014004010020FDF7FCBF30B595B0D2
:1037B00028216846FCF711FE14210AA8FCF70DFE2B
:1037C00018210FA8FCF709FE01210804CDE900101B
:1037D0000025029502240491CDE907404FF4E01042
:1037E00009906846FEF7DAF908B172B6FEE70AA951
:1037F0000F2081E831004FF48060CDE90D050221F2
:103800000AA8FEF7EFF808B172B6FEE74FF40040E1
:1038100011900F940FA8FEF76FF8002801D072B630
:10382000FEE715B030BD70470148FEF748BE000006
:103830005C0100200148FEF742BE0000EC010020C0
:103840000148FEF73CBE000034020020F0B50268DB
:10385000204C214D214E224F224B4FF0804CA04254
:1038600009D0984207D0604505D0A84203D0B042A5
:1038700001D0B84204D122F0700E4A6842EA0E022A
:10388000A04209D0984207D0604505D0A84203D095
:10389000B04201D0B84203D122F44075CA682A432D
:1038A0004D6922F080022A4302608A68C2620A6877
:1038B0008262A04201D0984201D1096901630121CD
:1038C00041610169C90703D0016921F0010101616A
:1038D000F0BD0000002C0140000400400008004042
:1038E000000C00400034014010B501F01F0301211D
:1038F000046A99408C430462016A9A401143016250
:1039000010BD10B5846842EA032224F47F440A43C0
:103910002243826010BD826822F070020A4342F0A6
:103920000701816070470000F0B5036A026A22F067
:103930000102026242688469124E24F073050C6829
:103940002C4323F002058B682B430D4DA84201D078
:10395000B04205D123F00807CB683B4323F00403B2
:10396000A84201D0B04205D14D6922F440721543FE
:103970008A692A4342608461496841630362F0BDF9
:10398000002C014000340140F0B5026A036A23F0C4
:1039900010030362436884690D6824F4E64444EA32
:1039A00005248D6822F0200242EA05120F4D104EC8
:1039B000A84201D0B04206D1CF6822F0800242EA8C
:1039C000071222F04002A84201D0B04207D14D694F
:1039D00023F4406343EA85038D6943EA850343602A
:1039E0008461496881630262F0BD0000002C0140DF
:1039F00000340140F0B5026A036A23F48073036265
:103A00004368C46922F4007224F073050C68124EF6
:103A10002C438D6842EA05220E4DA84201D0B042E7
:103A200006D1CF6822F4006242EA072222F48062C3
:103A3000A84201D0B04207D14D6923F4405343EA74
:103A400005138D6943EA05134360C4614968C16386
:103A50000262F0BD002C01400034014030B5046A20
:103A6000026A22F4805202624268C3690D6823F43C
:103A7000E64343EA05238D6824F4005444EA053400
:103A8000084DA84202D0084DA84204D14D6922F445
:103A9000804242EA85124260C3614968016404625F
:103AA00030BD0000002C01400034014010B5036A15
:103AB000046A24F001040462846924F0F00444EAF6
:103AC000021423F00A020A438461026210BD10B599
:103AD000036A046A24F010040462846923F0A003DA
:103AE00024F4704444EA023243EA01118261016223
:103AF00010BD10B5406A0021C185C184FEF7D2FE19
:103B000010BD01680C3151E8002F22F4907241E899
:103B10000023002BF5D10168143151E8002F22F069
:103B2000010241E80023002BF5D1016B012909D1E5
:103B300001680C3151E8002F22F0100241E8002307
:103B4000002BF5D1202180F842100021016370473D
:103B500008B590F84210222901D0022008BD8268E1
:103B60004FF480539A4201D1016921B1816A9A428E
:103B70001BD04AB10AE00268816A5268C2F30802A7
:103B80000A80816A891C08E0026972B10268526881
:103B900002F07F020A70816A491C8162C18D491E50
:103BA0000904090CC18503D01BE002685268F1E7E3
:103BB0000168CA6822F02002CA600168CA6822F45B
:103BC0008072CA6001684A6922F001024A612021BC
:103BD00080F8421000214163026B012A03D0FFF7F5
:103BE000A7F8002008BD016301680C3151E8002FDF
:103BF00022F0100241E80023002BF5D101680A6889
:103C0000D20602D50A6849680091818DFEF749FE07
:103C1000E7E7000070B5044600680169E26821F436
:103C20004051114301612169A0680843616908435B
:103C30002168CA6841F20C639A430243CA60206853
:103C40004169A26921F44071114341611E49206814
:103C5000884202D1FDF76CFF01E0FDF759FF00EB50
:103C6000C00101EB0012606864218000B2FBF0F338
:103C7000B3FBF1F36FF018067343B2FBF0F5B2FB40
:103C8000F0F605EB8305322303EB0515B5FBF1F5E3
:103C9000B6FBF1F605F0F00505EB0615B2FBF0F604
:103CA000B2FBF0F0B0FBF1F06FF01802504306EBFE
:103CB000800003EB0010B0FBF1F0216800F00F0072
:103CC0002844886070BD0000003801402DE9F843A9
:103CD000984617460D460446089E24E0701C22D0E4
:103CE000FDF75AFDA0EB0800B0421AD8CEB120680B
:103CF000C168490717D5802D15D0402D13D0016814
:103D0000C94309070FD40168002540680090204688
:103D1000FFF7F7FE0820606484F840500120BDE8FA
:103D2000F8830320FBE72068006835EA000004D030
:103D30000020B842D2D00020F1E70120F9E70000CE
:103D40000148FEF7B1BD00007C0200200148FEF7EB
:103D5000ABBD0000C40200200148FCF75ABF0000C0
:103D6000DC0000200148FCF754BF0000DC0000200C
:103D70002DE9F0470D4E0124DFF834800025A6F12F
:103D80000907A6F10609A6F1030A2046FCF756FC2E
:103D900030553D5548F8245009F804500AF80450AD
:103DA000641CE4B2022CF0D9BDE8F0876500002065
:103DB00084070020411E022901D300207047FCF730
:103DC0003DBC00002DE9F05FFCF7DFFC1E4F012435
:103DD00005464FF00009A24607F1030B07F106085C
:103DE00007F109062046FCF729FC315D50B191B975
:103DF000164907F804A041F824500BF8049008F87D
:103E000004900DE039B107F8049018F8041099B93E
:103E10000BF804A010E0395D71B118F8041059B91D
:103E20000A4940F6B83251F82410691A914203D376
:103E300008F804A00BF804903055641CE4B2022C7E
:103E4000D0D9BDE8F09F00005C000020840700206E
:103E5000431A08444FEA600000D55B42B3EB620F9F
:103E600004DDB0EB620F02DBA0EB6200704700EBF9
:103E700062007047F0B5048801265310A646C3F1CE
:103E8000000C0DE030F81630A3EB0E071D46B7EB23
:103E9000620F00DDAB1ABC4500DDAB181C44761C7C
:103EA0008E42EFDB94FBF1F0002800DA10449042E0
:103EB00000DD801AF0BD084490FBF1F201FB120016
:103EC0007047401AB0EB620F00DD801A5110494272
:103ED000814200DD10447047064AD0690188A1F58F
:103EE0007F43FF3B05D0002903D00121517000F032
:103EF00049B970473C0000202DE9F04700F048F92F
:103F0000DFF880814FF44845002498F802006F00E4
:103F10005D4E4FF4FA694FF4804A072825D2DFE856
:103F200000F00413265A6977AB0098F800000028C7
:103F30001BD04946D8F80C0000F046F9C8F80C50E0
:103F4000A8F8044001200EE0D8F80C004946801C77
:103F5000C8F80C0000F038F9D8F80C00B84204D1C9
:103F60000220C8F80C5088F80200BDE8F087D8F8A5
:103F70000C0010F0FF0F20D100F0D8F8B8F80410B2
:103F800026F81100491C88B2A8F80400102817D19F
:103F9000D8F80C005246A0F54840C11700EB11605C
:103FA000051210213848FFF765FF3749203121F805
:103FB0001500A8F80440D8F80C00401CC8F80C0004
:103FC0004946D8F80C0000F0FFF8D8F80C00B842C9
:103FD000CBD90320C7E7D8F80C004946401CC8F8E5
:103FE0000C0000F0F1F8D8F80C00B0F5D23FBCD1CD
:103FF0000420B8E7D8F80C004946401EC8F80C0069
:1040000000F0E2F8D8F80C00B842AED10520AAE7DB
:10401000D8F80C0010F0FF0F1FD100F087F8B8F8A7
:10402000041026F81100491C88B2A8F804001028D2
:1040300016D1D8F80C005246A0F54840C11700EB45
:104040001160061210211048FFF714FF0F4921F8E4
:104050001600A8F80440D8F80C00401EC8F80C0060
:104060004946D8F80C0000F0AFF8D8F80C00A84288
:10407000BFF47BAF062076E7BDE8F0470021084695
:1040800000F0A2B83C00002040040020F20500200F
:1040900010B5124C8EB0A07806281CD100F0E8F8BC
:1040A000FFF75AF9A06808B9FFF77EFA0020A07060
:1040B0002070A06800280ED109480068818800910E
:1040C0004388028807A101A8FCF7BCF801A8FCF707
:1040D000AFFBFCF75CFB0EB010BD00003C00002005
:1040E00018000020466C61736820636865636B3A52
:1040F000205B305D3D25752C205B315D3D25752CA9
:10410000205B325D3D25750D0A00000006484178B0
:104110000278114306D10121017000218170816074
:10412000C1608180704700003C0000200148008889
:10413000704700002800002010B500F029F804485E
:104140004068002803D0BDE8104000F003B810BD5F
:10415000280000200A4810B5416849B100204FF6F8
:10416000FF724FF4804300BF31F81040944201D1F8
:10417000002010BD401C9842F6D3012010BD000065
:1041800028000020014948607047000028000020F6
:1041900070B50B4C002500210948FCF7C8FA28B17E
:1041A000606840B1218830F8110005E06D1CEDB267
:1041B000032DF0D301E020886080608870BD00008E
:1041C00028000020FCF7E6BA70B5274CC0F30900C0
:1041D00000F58072A51F254B2080C2F309022A80BA
:1041E00033F912206A8033F910006080002900DC66
:1041F000494241F2DB335943C1F30B31002A00DC61
:10420000524212B2002800DC404203B201FB02F02D
:10421000C0F30F305943A880C1F30F31A180FCF7E0
:10422000CFFAB5F90200002812DD4FF0000100BFFF
:104230004FF00100FCF7CEFAB4F9020000280DDDC2
:104240004FF000014FF00100BDE87040FCF7D4BA18
:104250004FF00101ECDA4FF00000EBE74FF0010105
:10426000F0DA4FF00000EFE736000020AE43000820
:1042700010B500210846FCF7A3FA00210846FCF718
:10428000A9FA0021BDE810400846FCF7B5BAFEE7E0
:104290000907090E002804DB00F1E02080F8001473
:1042A000704700F00F0000F1E02080F8141D704707
:1042B000FDF780FAFFF77AFAFEF70CFEFEF7D4FD61
:1042C000FEF78AFDFEF7AEFDFEF77CFEFEF7A0FED0
:1042D000FEF7D4FEFEF758FFFEF78AFFFEF7A4FFB5
:1042E000FEF71EFFFCF716FA01210020FCF71DFA6D
:1042F000FFF73EFD12A0FCF79BFAFFF763FFFFF705
:104300001BFFFFF7E9FDC8218020FFF75DFF104884
:10431000FEF730F80F48FEF72DF80FA0FCF788FAEB
:104320000120FFF747FD40B10220FFF743FD20B118
:10433000FFF7ECFE0EA0FCF77BFAFFF7A9FEFCE707
:1043400053797374656D205374617274210D0A0082
:104350005C0100203402002054696D65722074698C
:10436000636B2073746172746564210D0A00000030
:1043700043616C6920747269676765726564210DB9
:104380000A000000010202030405060708090A0BDF
:104390000C0D0E0F101000000000000000000102C4
:1043A00003040607080900000000010203040000DE
:1043B000190032004B0065007E009700B000C90074
:1043C000E200FB0014012D0146015F01780191011B
:1043D000AA01C301DC01F5010E02270240025902C5
:1043E00072028B02A302BC02D502EE0206031F0377
:1043F00038035003690381039A03B203CB03E30339
:10440000FC0314042C0444045D0475048D04A50409
:10441000BD04D504ED0405051D0534054C056405F2
:104420007C059305AB05C205DA05F10508061F06F4
:1044300037064E0665067C069306AA06C106D70611
:10444000EE0605071B07320748075E0775078B074F
:10445000A107B707CD07E307F9070E0824083A08B4
:104460004F0865087A088F08A508BA08CF08E4083D
:10447000F8080D09220937094B095F0974098809F1
:104480009C09B009C409D809EC09FF09130A260AD6
:104490003A0A4D0A600A730A860A990AAC0ABF0AE8
:1044A000D10AE40AF60A080B1B0B2D0B3E0B500B2E
:1044B000620B740B850B970BA80BB90BCA0BDB0BAC
:1044C000EC0BFC0B0D0C1E0C2E0C3E0C4E0C5E0C63
:1044D0006E0C7E0C8E0C9D0CAC0CBC0CCB0CDA0C58
:1044E000E90CF80C060D150D230D320D400D4E0D87
:1044F0005C0D690D770D850D920D9F0DAC0DB90DFD
:10450000C60DD30DDF0DEC0DF80D040E100E1C0EB4
:10451000280E340E3F0E4B0E560E610E6C0E770EAB
:10452000810E8C0E960EA10EAB0EB50EBF0EC80EF0
:10453000D20EDB0EE40EEE0EF70EFF0E080F110F7B
:10454000190F210F290F310F390F410F480F500F4D
:10455000570F5E0F650F6C0F720F790F7F0F850F6E
:104560008B0F910F970F9C0FA20FA70FAC0FB10FDE
:10457000B60FBB0FBF0FC40FC80FCC0FD00FD40F97
:10458000D70FDB0FDE0FE10FE40FE70FEA0FEC0FA1
:10459000EF0FF10FF30FF50FF70FF80FFA0FFB0FF7
:1045A000FC0FFD0FFE0FFF0FFF0F0010001000109B
:1045B00000100010FF0FFF0FFE0FFD0FFC0FFB0F91
:1045C000FA0FF80FF70FF50FF30FF10FEF0FEC0FD6
:1045D000EA0FE70FE40FE10FDE0FDB0FD70FD40F69
:1045E000D00FCC0FC80FC40FBF0FBB0FB60FB10F4A
:1045F000AC0FA70FA20F9C0F970F910F8B0F850F7A
:104600007F0F790F720F6C0F650F5E0F570F500FF2
:10461000480F410F390F310F290F210F190F110FBB
:10462000080FFF0EF70EEE0EE40EDB0ED20EC80ED4
:10463000BF0EB50EAB0EA10E960E8C0E810E770E30
:104640006C0E610E560E4B0E3F0E340E280E1C0ED5
:10465000100E040EF80DEC0DDF0DD30DC60DB90DC7
:10466000AC0D9F0D920D850D770D690D5C0D4E0DF6
:10467000400D320D230D150D060DF80CE90CDA0C6A
:10468000CB0CBC0CAC0C9D0C8E0C7E0C6E0C5E0C22
:104690004E0C3E0C2E0C1E0C0D0CFC0BEC0BDB0B15
:1046A000CA0BB90BA80B970B850B740B620B500B45
:1046B0003E0B2D0B1B0B080BF60AE40AD10ABF0AAE
:1046C000AC0A990A860A730A600A4D0A3A0A260A4F
:1046D000130AFF09EC09D809C409B0099C09880923
:1046E00074095F094B09370922090D09F808E40824
:1046F000CF08BA08A5088F087A0865084F083A0855
:1047000024080E08F907E307CD07B707A1078B07B1
:1047100075075E07480732071B070507EE06D70631
:10472000C106AA0693067C0665064E0637061F06D6
:104730000806F105DA05C205AB0593057C0564059D
:104740004C0534051D050505ED04D504BD04A5047F
:104750008D0475045D0444042C041404FC03E30379
:10476000CB03B2039A0381036903500338031F0389
:104770000603EE02D502BC02A3028B0272025902AA
:10478000400227020E02F501DC01C301AA019101DA
:1047900078015F0146012D011401FB00E200C90010
:1047A000B00097007E0065004B0032001900000049
:1047B000E7FFCEFFB5FF9BFF82FF69FF50FF37FF8A
:1047C0001EFF05FFECFED3FEBAFEA1FE88FE6FFEC3
:1047D00056FE3DFE24FE0BFEF2FDD9FDC0FDA7FDF9
:1047E0008EFD75FD5DFD44FD2BFD12FDFAFCE1FC27
:1047F000C8FCB0FC97FC7FFC66FC4EFC35FC1DFC45
:1048000004FCECFBD4FBBCFBA3FB8BFB73FB5BFB53
:1048100043FB2BFB13FBFBFAE3FACCFAB4FA9CFA4A
:1048200084FA6DFA55FA3EFA26FA0FFAF8F9E1F928
:10483000C9F9B2F99BF984F96DF956F93FF929F9EB
:1048400012F9FBF8E5F8CEF8B8F8A2F88BF875F88D
:104850005FF849F833F81DF807F8F2F7DCF7C6F708
:10486000B1F79BF786F771F75BF746F731F71CF75F
:1048700008F7F3F6DEF6C9F6B5F6A1F68CF678F68B
:1048800064F650F63CF628F614F601F6EDF5DAF586
:10489000C6F5B3F5A0F58DF57AF567F554F541F554
:1048A0002FF51CF50AF5F8F4E5F4D3F4C2F4B0F4EE
:1048B0009EF48CF47BF469F458F447F436F425F450
:1048C00014F404F4F3F3E2F3D2F3C2F3B2F3A2F379
:1048D00092F382F372F363F354F344F335F326F364
:1048E00017F308F3FAF2EBF2DDF2CEF2C0F2B2F215
:1048F000A4F297F289F27BF26EF261F254F247F27F
:104900003AF22DF221F214F208F2FCF1F0F1E4F1A6
:10491000D8F1CCF1C1F1B5F1AAF19FF194F189F18F
:104920007FF174F16AF15FF155F14BF141F138F12A
:104930002EF125F11CF112F109F101F1F8F0EFF07F
:10494000E7F0DFF0D7F0CFF0C7F0BFF0B8F0B0F08D
:10495000A9F0A2F09BF094F08EF087F081F07BF04C
:1049600075F06FF069F064F05EF059F054F04FF0BC
:104970004AF045F041F03CF038F034F030F02CF0E3
:1049800029F025F022F01FF01CF019F016F014F0B9
:1049900011F00FF00DF00BF009F008F006F005F043
:1049A00004F003F002F001F001F000F000F000F07C
:1049B00000F000F001F001F002F003F004F005F067
:1049C00006F008F009F00BF00DF00FF011F014F004
:1049D00016F019F01CF01FF022F025F029F02CF051
:1049E00030F034F038F03CF041F045F04AF04FF050
:1049F00054F059F05EF064F069F06FF075F07BF000
:104A000081F087F08EF094F09BF0A2F0A9F0B0F066
:104A1000B8F0BFF0C7F0CFF0D7F0DFF0E7F0EFF07D
:104A2000F8F001F109F112F11CF125F12EF138F144
:104A300041F14BF155F15FF16AF174F17FF189F1C8
:104A400094F19FF1AAF1B5F1C1F1CCF1D8F1E4F103
:104A5000F0F1FCF108F214F221F22DF23AF247F2F1
:104A600054F261F26EF27BF289F297F2A4F2B2F2A2
:104A7000C0F2CEF2DDF2EBF2FAF208F317F326F30E
:104A800035F344F354F363F372F382F392F3A2F336
:104A9000B2F3C2F3D2F3E2F3F3F304F414F425F423
:104AA00036F447F458F469F47BF48CF49EF4B0F4D3
:104AB000C2F4D3F4E5F4F8F40AF51CF52FF541F54A
:104AC00054F567F57AF58DF5A0F5B3F5C6F5DAF589
:104AD000EDF501F614F628F63CF650F664F678F695
:104AE0008CF6A1F6B5F6C9F6DEF6F3F608F71CF774
:104AF00031F746F75BF771F786F79BF7B1F7C6F723
:104B0000DCF7F2F707F81DF833F849F85FF875F8A5
:104B10008BF8A2F8B8F8CEF8E5F8FBF812F929F905
:104B20003FF956F96DF984F99BF9B2F9C9F9E1F940
:104B3000F8F90FFA26FA3EFA55FA6DFA84FA9CFA59
:104B4000B4FACCFAE3FAFBFA13FB2BFB43FB5BFB57
:104B500073FB8BFBA3FBBCFBD4FBECFB04FC1DFC3D
:104B600035FC4EFC66FC7FFC97FCB0FCC8FCE1FC0D
:104B7000FAFC12FD2BFD44FD5DFD75FD8EFDA7FDCC
:104B8000C0FDD9FDF2FD0BFE24FE3DFE56FE6FFE7C
:104B900088FEA1FEBAFED3FEECFE05FF1EFF37FF26
:104BA00050FF69FF82FF9BFFB5FFCEFFE7FF0000CC
:104BB000D04B000800000020680000006C010008D5
:104BC000384C000868000020880D000088010008AB
:104BD00000000000000000000100000010000000C4
:104BE0000000000000127A00007807080080000032
:104BF00010000000000000000000000000000000A5
:104C000000000000000000000000000000000001A3
:104C10000000000000000000000000000000000094
:104C200000000000000000000078070800000000FD
:084C300000000000000000007C
:0400000508000131BD
:00000001FF
