:020000040800F2
:10000000080F00201D020008A3300008152C00086E
:10001000A130000827060008174C00080000000067
:10002000000000000000000000000000A7300008F1
:100030008508000800000000A53000089938000875
:1000400037020008370200083702000837020008AC
:10005000370200083702000837020008370200089C
:10006000370200083702000837020008410600087E
:100070004D060008590600086506000871060008CC
:10008000370200083702000837020008493E00081E
:10009000553E00082906000835060008370200080A
:1000A0003702000819390008370200083702000833
:1000B00037020008253900083139000837020008E6
:1000C000370200083702000837020008370200082C
:1000D00037020008313E0008370200083D3E0008A4
:1000E000370200083702000837020008370200080C
:1000F00037020008370200083702000837020008FC
:1001000037020008370200083702000837020008EB
:1001100037020008370200083702000837020008DB
:1001200037020008370200083702000837020008CB
:1001300000F002F800F062F80AA090E8000C824497
:100140008344AAF10107DA4501D100F057F8AFF274
:10015000090EBAE80F0013F0010F18BFFB1A43F0A5
:100160000103184760570000805700000A444FF011
:10017000000C10F8013B13F0070408BF10F8014B06
:100180001D1108BF10F8015B641E05D010F8016B4B
:10019000641E01F8016BF9D113F0080F1EBF10F8AF
:1001A000014BAD1C0C1B09D16D1E58BF01F801CBD2
:1001B000FAD505E014F8016B01F8016B6D1EF9D555
:1001C0009142D6D37047000000230024002500266A
:1001D000103A28BF78C1FBD8520728BF30C148BFAA
:1001E0000B607047642900F06180752900F05E8023
:1001F000002070471FB51FBD10B510BD00F0ADF950
:100200001146FFF7F7FF04F017FD00F0CBF903B438
:10021000FFF7F2FF03BC00F0D3F900000948804764
:1002200009480047FEE7FEE7FEE7FEE7FEE7FEE7D8
:10023000FEE7FEE7FEE7FEE704480549054A064BF0
:100240007047000017390008310100080809002034
:10025000080F0020080B0020080B0020B2F120033B
:100260000AD5C2F1200320FA02F001FA03F321FAC1
:1002700002F140EA0300704721FA03F04FF0000159
:10028000704700000FB41CB5074B06AA7B446946B3
:100290000090059800F049F90020694600F058F9EF
:1002A0001CBC5DF814FB0000C10200002DE9F04108
:1002B0000646002410687529314616A510D0AFF304
:1002C0000080002802DA404213A507E031688A075F
:1002D00001D512A502E0490704D511A5012401E0CA
:1002E000AFF3008000210A2206F1240709E0B0FBE9
:1002F000F2FCB0FBF2F302FB1C00303078541846DD
:10030000491C0028F3D123462A463046BDE8F04177
:1003100000F0ADB8000000002D0000002B00000030
:10032000200000002DE9F0410F460546002028621C
:100330002846E968884770B3252805D0D5E901210A
:100340009047286A401CF2E7E9682846002688475B
:100350006C2804460AD0682C08D04C2C35D06A2C66
:1003600031D0742C31D07A2C2FD016E0E9680646B3
:1003700028468847B042044608D16C2E23D04FF45B
:1003800080662846E9688847044606E06C2E03D05C
:100390004FF4807601E01EE04026E4B1A4F1410074
:1003A000192802D8203446F400663A4621462846E9
:1003B0002E60FFF717FF60B1012808D0FF1D27F05E
:1003C00007070837B4E78026DBE70026D9E73F1D9B
:1003D000AEE72046B2E7286ABDE8F08110B5431CBD
:1003E00002E010F8011B71B18107FAD14FF0013220
:1003F00002C88C1A8C4314EAC211F9D0C01A0A063A
:1004000003D0C01E10BDC01A10BD0A0401D0801E4A
:1004100010BD0902FCD0401E10BD4FF0000200B517
:10042000134694469646203922BFA0E80C50A0E817
:100430000C50B1F12001BFF4F7AF090728BFA0E8C5
:100440000C5048BF0CC05DF804EB890028BF40F891
:10045000042B08BF704748BF20F8022B11F0804FD3
:1004600018BF00F8012B70477047704770472DE99F
:10047000F0470D4699469246044600F1240801686B
:10048000880604D5E06921F01001216000E0012018
:10049000A84201DD471B00E00027A1697A1902EBA1
:1004A0000900081AA0612078C00602D42046AFF3E4
:1004B0000080002608E0D4E901211AF806009047E0
:1004C000206A401C761C20624E45F4DB2078C00672
:1004D0000AD52046AFF3008006E0D4E901213020A0
:1004E0009047206A401C2062381EA7F10107F4DC07
:1004F00007E0D4E9012118F805009047206A401C64
:100500002062281EA5F10105F3DC2046AFF3008030
:100510002078000602D50220BDE8F0870120FBE725
:1005200001694A1C02610878704700B58FB0CDE9B7
:1005300001310021059105497944CDE903101146A7
:100540006846FFF7EFFE0FB000BD0000E5FFFFFFBC
:100550000A6802F8010B0A607047754600F02CF833
:10056000AE4605006946534620F00700854618B0A0
:1005700020B5FFF761FEBDE820404FF000064FF0C8
:1005800000074FF000084FF0000B21F00701AC46C8
:10059000ACE8C009ACE8C009ACE8C009ACE8C009E7
:1005A0008D46704710B50446AFF300802046BDE885
:1005B0001040FFF72CBE000000487047A80800203C
:1005C00001491820ABBEFEE726000200704700007C
:1005D00070B5044600688168C943C90717D18168AE
:1005E00021F00101816001F0F7F805460AE000BF43
:1005F00001F0F2F8401B022804D920688068C0434B
:10060000C00706D020688068C043C007F0D0002033
:1006100070BDA06A40F01000A062E06A40F00100E6
:10062000E062012070BDFEE7014800F012BB00004F
:10063000E8010020014800F00CBB0000E8010020A8
:10064000014800F0AFBD0000A4010020014800F007
:10065000A9BD0000E4040020014800F0A3BD000093
:10066000A0040020014800F09DBD00005C040020B3
:10067000014800F097BD00001804002010B5084A9A
:10068000012802D0022802D006E0042100E0022165
:10069000104601F097F808B1002010BD012010BDF0
:1006A000000C014010B5044600F07CFF2068E060BB
:1006B00010BD00002DE9F04385B0054600F072FF43
:1006C000002427464FF001084FF0FF390E4E12E08C
:1006D00004970097286804A900EBC420CDE902081C
:1006E000684600F0C1FE484600F030F9306920F05D
:1006F00002003061641CA868A042E9D805B0BDE8DA
:10070000F04300F005BF00000020024000F000BFF1
:100710002DE9F0410F460446C16800681646814243
:1007200016D3626801EB46011044814210D80025BF
:100730000CE000BF37F8152000230120E16800F02D
:10074000F1FE10B9E068801CE0606D1CB542F1D389
:10075000BDE8F08110B50021084603F065F80021DE
:10076000BDE81040012003F05FB803F05DB82DE94B
:10077000F04105460C464FF403404FF4044703F0A4
:1007800061F80646384603F05DF8F1B261F31F20C8
:1007900000210A46012606FA02F30746034201D069
:1007A000491CC9B2521CD2B2102AF4D311F0010F65
:1007B00002D00020BDE8F0810DB18108298014B17C
:1007C000C7F3400020700120F4E701F005B801F004
:1007D000A1B8000010B50821084801F0F7FE0C216F
:1007E000064801F0F3FE0021084600F013F800214E
:1007F000BDE81040084600F01FB80000B00200201D
:100800008208034803681A6400688908C163704756
:10081000B002002070B5074D0C4602460221284662
:1008200000F0D5FF22462846BDE87040042100F0C4
:10083000CEBF00000008014070B5074D0C460246CF
:100840000421284600F0C3FF22462846BDE8704038
:10085000082100F0BCBF0000001001400A4601461C
:100860004FF0FF33014802F084B90000D0030020AC
:1008700010B50446FFF7B2FD81B22046BDE8104036
:10088000FFF7ECBF704772B6FEE700000649002094
:10089000C8610648016941F004010161016941F044
:1008A000400101617047000028050020002002403F
:1008B000064A0021D16106490A6942F002020A6132
:1008C0004861086940F04000086170472805002031
:1008D00000200240044B0022DA61044A136943F00D
:1008E00001031361018070472805002000200240A9
:1008F00014480022C168CB06134904D5CA6942F0E6
:100900000202CA611022C3685B0705D5CB6943F0B8
:100910000103CB6142F00402C369DB0707D0CB6956
:1009200043F00403CB61C16921F00101C161A2F56B
:100930008071013901D0C2607047C16921F00101A5
:10094000C1617047002002402805002070B50546AF
:1009500000F042FF0646114C09E0681C07D025B1A3
:1009600000F03AFF801BA84201D9032070BDE06867
:10097000C007F2D1E068800601D52020E060E06881
:10098000C00605D4E069C00702D1E068400703D57E
:10099000FFF7AEFF012070BD002070BD00200240B7
:1009A000F8B50024009490F824202546012A12D09E
:1009B000012280F824204A681F23072A0DD20668E6
:1009C000776B521E02EB820293409F430B68934069
:1009D0001F43776319E00220F8BD06680D2A0AD28A
:1009E000376BD21F02EB820293409F430B68934008
:1009F0001F43376309E0F76A0D3A02EB8202934026
:100A00009F430B6893401F43F7620A6807230668F9
:100A10000A2A0AD3F7680A3A02EB420293409F433C
:100A20008B6893401F43F76008E0376902EB42028E
:100A300093409F438B6893401F4337610A68102A95
:100A400001D0112A20D1124B02689A4217D1936823
:100A50001B0219D4936843F40003936009681029BA
:100A600012D10C490C4A0968B1FBF2F101EB81018A
:100A7000490000E0491E00910029FBD104E0816A91
:100A800041F020018162012480F824502046F8BD05
:100A9000002401403800002040420F002DE9F041C1
:100AA00004004FF000057FD0A06A002628B9E66256
:100AB00084F82460204600F081F82046FFF788FD86
:100AC000A16AC90600D420B1A06A40F01000A0625B
:100AD0006AE0A16A21F4885141F00201A162334920
:100AE00023688B42E16904D1B1F5402F01D14FF465
:100AF0000021277B4FF4807C41EA470261680A436A
:100B0000A168614508D0012906D0002194F814E0BD
:100B1000BEF1010F02D00AE06146F7E7C7B1A76A4C
:100B200047F02007A762E76A47F00107E7625F68BE
:100B300027F469470F435F60236899681C4F394069
:100B400011439960A16861450BD0012909D00CE0DF
:100B5000DFF860E0A7690EEB47370F4347F4006109
:100B6000E5E7218A0D05A5F580152168CB6A23F4F8
:100B700070032B43CB62216889680F4B1940914267
:100B800008D1E662A16A21F0020141F00101A162EF
:100B9000BDE8F081A06A20F0020040F01000A062E1
:100BA000E06A40F00100E0620120F1E7003C014012
:100BB000FDF7E1FF00E0FFFFFE0E1FFF70B586B0FE
:100BC00000260546009601960296039600681B498A
:100BD000884230D11A49886940F400708861886978
:100BE00000F400700490886940F00400886188690E
:100BF000694600F004000490012000900320019059
:100C0000104800F0E3FC114C0F48C4E900068020B6
:100C1000C4E9026040002061800060612020A06182
:100C20004FF44050E061204600F0E0FB08B1FFF7D0
:100C30002AFE2C62656206B070BD000000240140EF
:100C4000001002400008014008000240A4010020FA
:100C500070472DE9F05F0546006800244669D0F82A
:100C600004908768D0F80CB0D0F810A0D0F81880A5
:100C7000F10748D0F90714D001218160B80703D5E6
:100C8000284600F0CDF90CE0780702D54FF4006457
:100C900007E0380702D54FF4805402E0284600F000
:100CA000BEF9F80516D529684FF480708860B8053C
:100CB00003D5284600F0B6F90CE0780502D544F4D7
:100CC000005407E0380502D544F4804402E0284689
:100CD00000F0A7F9F80316D529684FF48030886032
:100CE000B80303D5284600F09FF90CE0780302D53D
:100CF00044F4004407E0380302D544F4803402E0B1
:100D0000284600F090F9300707D55FEACB6004D59C
:100D10002968102044F40074C86070074FF0080779
:100D200007D55FEA0B7004D52868C760284600F035
:100D300071F9B00706D52868C068800702D0284638
:100D400000F069F9700607D55FEACA6004D5296822
:100D5000102044F480640861B00607D55FEA0A7089
:100D600004D528680761284600F056F9F00606D534
:100D700028680069800702D0284600F04EF9B003C9
:100D800008D55FEAC96005D5296810204860284663
:100D900000F044F9F00307D55FEA097004D528682C
:100DA0004760284600F041F9300446D55FEA4970B3
:100DB00040D5F00504D55FEAC87001D044F00104C5
:100DC000B00504D55FEA887001D544F002047005CF
:100DD00004D55FEA487001D544F00404300529D5F4
:100DE00018F0700F26D008F07000402815D006DCEF
:100DF000102809D020280AD0302816D10AE050281F
:100E00000ED0602811D10EE044F008040DE044F04B
:100E100010040AE044F0200407E044F0400404E039
:100E200044F0800401E044F480742868816921F072
:100E300070018161296804204860002C05D0686A2F
:100E4000204368622846FFF703FFBDE8F09F70B5B6
:100E5000040003D094F8200010B104E0012070BD1C
:100E6000204600F081F82068016841F0010101602E
:100E700000F0B2FC0546052604E000F0ADFC401B86
:100E80000A2811D820684068C007F6D02068016899
:100E900021F00201016000F09FFC05460BE000F02C
:100EA0009BFC401B0A2806D9606A40F4003060624F
:100EB00084F82060D2E7206840688007EFD4207E65
:100EC0000128206801683DD021F080010160607E2A
:100ED00001282068016838D021F040010160A07E1F
:100EE00001282068016833D021F020010160E07EF4
:100EF0000128206801682ED041F010010160207F98
:100F000001282068016829D021F008010160607F74
:100F100001282068016824D021F004010160D4E98F
:100F200002010843D4E90412114308436168491ED1
:100F300008432168C86100206062012084F8200015
:100F4000002070BD41F08001C0E741F04001C5E7DD
:100F500041F02001CAE721F01001CFE741F008017C
:100F6000D4E741F00401D9E710B586B00021009123
:100F700001910291039100682349884242D123489C
:100F8000C16941F00071C161C16901F00071049152
:100F9000816941F00401816180691D4C00F0040009
:100FA00004904FF4006000906946204600F00EFB6C
:100FB000A01400900220019003200390694620466F
:100FC00000F004FB00221146132000F071FC1320F6
:100FD00000F060FC00221146142000F069FC14208F
:100FE00000F058FC00221146152000F061FC15208D
:100FF00000F050FC00221146162000F059FC16208B
:1010000000F048FC06B010BD006400400010024033
:10101000000801407047704770477047704770473D
:1010200070477047704770477047704710B590F829
:1010300021100022022905D00421816380F820209C
:10104000012010BD01680B6823F00E030B600168DE
:101050000B6823F001030B6090F84030C46B012152
:1010600001FA03F3636080F8211080F82020104615
:1010700010BD00002DE9F05F90F821100024022936
:1010800003D004218163012485E001680A6822F00D
:101090000E020A6001680A6822F001020A603F4EEF
:1010A0003E4FB215DFF8F4C0DFF8F090DFF8ECA0A7
:1010B000DFF8E8B0DFF8E4E00168783F13011502DB
:1010C000ACF1640CA9F15009AAF13C0AABF1280B70
:1010D000AEF1140E4FF48018B14227D9B9420ED0A8
:1010E000614512D049451DD0514518D0594518D0F9
:1010F000714501D1424615E0294EB14201D101228C
:1011000010E0274E1436B14201D110220AE0244EDD
:101110002836B14206D0224A3C32914201D11A46C9
:1011200000E02A461E49091F0A602BE0B94213D08D
:10113000614517D0494522D051451DD059451DD094
:10114000714501D142461AE0B14202D14FF080729E
:1011500015E0134EB14201D1012210E0104E1436B9
:10116000B14201D110220AE00D4E2836B14206D01C
:101170000B4A3C32914201D11A4600E02A46074907
:1011800080394A60012180F82110002180F8201068
:10119000416B01B188472046BDE8F09F80000240C6
:1011A000080402402DE9F05FC16B0A6801680B6812
:1011B000046C4FF0040808FA04F8844D844E854FFF
:1011C000DFF814C2DFF81492DFF814A2DFF814B2CB
:1011D000DFF814E218EA020F65D05FEA437862D5BF
:1011E0000A68920603D40A6822F004020A60DFF853
:1011F000F0814FF48062016808F1140813011402B1
:10120000414524D9A9420DD0B1420FD0B9421AD0DC
:10121000614515D0494515D0514501D1120312E061
:10122000594501D104220EE0714501D140220AE066
:101230006D4D1435A94206D06B4A2832914201D136
:101240001A4600E022466749091F0A6029E0A942C0
:1012500013D0B14215D0B94220D061451BD04945C9
:101260001BD0514502D14FF4800217E0414502D115
:101270004FF0806212E0594501D104220EE0714521
:1012800001D140220AE0584D1435A94206D0564AF1
:101290002832914201D11A4600E022464B490839D2
:1012A0004A60C16A71E04FF0020808FA04F818EACF
:1012B000020F70D05FEA83786DD50A68920606D473
:1012C0000A6822F00A020A60012180F82110DFF882
:1012D00010814FF40072016808F114081301140220
:1012E000414524D9A9420DD0B1420FD0B9421AD0FC
:1012F000614515D0494515D0514501D1120312E081
:10130000594501D102220EE0714501D120220AE0A7
:10131000354D1435A94206D0334A2832914201D1C5
:101320001A4600E022462F49091F0A6029E0A94217
:1013300013D0B14215D0B94220D061451BD04945E8
:101340001BD0514502D14FF4001217E0414502D1A4
:101350004FF0007212E0594501D102220EE07145B2
:1013600001D120220AE0204D1435A94206D01E4AA0
:101370002832914201D11A4600E022461349083929
:101380004A60002180F82010816A00291CD0BDE845
:10139000F05F0847FFE70825A540154214D01A075B
:1013A00012D50A6822F00E020A6090F84020C36B42
:1013B000012101FA02F25A60816380F821100021B4
:1013C00080F82010016BE0E7BDE8F09F08000240C4
:1013D0001C0002403000024044000240580002401D
:1013E0006C000240080402401C04024030B560B1A9
:1013F0001A4B026814219A4209D2194B1344B3FBC9
:10140000F1F18900016417490AE0012030BD134B56
:101410005B421344B3FBF1F1890001640F490839C1
:10142000C163022180F82110136843F6F0718B43E9
:10143000F0E901142143D0E902452C43214304691A
:1014400021434469214384692143194311600021E8
:101450004163012242770177084630BD080402400B
:10146000F8FFFDBF000002402DE9F0470546264881
:101470000F460126017E01290FD001218146017608
:101480002868DFF888804CF25034022808D0A24641
:101490002046FFF75BFAA8B131E00220BDE8F087F3
:1014A0002046FFF753FA08BB0120FFF7EFF920466B
:1014B000FFF74CFAD8F81010064621F00401C8F8DE
:1014C00010101CE04FF0FF303860AC6811E020468F
:1014D000FFF7EEF95046FFF739FAD8F8101006007A
:1014E00021F00201C8F8101001D03C6007E004F5BB
:1014F0000064D5E9020100EBC120A042E7D8002139
:1015000089F818103046C9E728050020002002405D
:101510000348016941F0800101610020704700002B
:10152000002002402DE9F05F07461C488846002451
:10153000017E15461E46012909D00121814601760A
:101540004CF2503A5046FFF701FA18B122E002205F
:10155000BDE8F09F012F02D0022F00D00427D34610
:10156000DFF83CA0220128463146FEF777FE81B223
:1015700008EB4400FFF7AEF95846FFF7E7F9DAF851
:10158000102022F00102CAF8102018B9641CE4B23D
:10159000BC42E7D3002289F81820D9E728050020AB
:1015A00000200240064900200A69120607D5054AB4
:1015B0004A60054A4A600969090600D5012070475A
:1015C0000020024023016745AB89EFCD2DE9F84F9C
:1015D000DFF8C8910024A9F1040B23460F2709F175
:1015E000040AABF1040ED1E00125A54006EA05028C
:1015F000AA4276D1DFF8A8C14E68A6EB0C08664572
:101600002BD00DDC032E34D005DC36B3012E19D0DF
:10161000022E2FD11BE0112E16D0122E2AD119E046
:10162000B8F5881F19D006DCB8F5803F15D0B8F59D
:10163000801F1FD111E0B8F5001F0ED0B8F5041FB0
:1016400018D10AE0CB6815E0CB681B1D12E0CB680F
:1016500008330FE0CB680C330CE08B682BB1012B07
:101660004FF0080303D0456104E0042302E0056164
:1016700000E00023FF2A01D8064601E000F104063D
:101680004FEA840501D9A5F12005D6F8008007FAB4
:1016900005FC28EA0C0803FA05F548EA0508C6F82F
:1016A00000804D68ED0070D53E4DAE6946F00106F4
:1016B000AE61AD6924F0030605F0010500953A4DD1
:1016C00006EB050CDCF80850A607360F07FA06F8FB
:1016D00025EA0805DFF8D480404503D14FF0000823
:1016E00025E052E0DFF8C880404502D14FF0010804
:1016F0001DE0DFF8C080404502D14FF0020816E03F
:10170000DFF8B480404502D14FF003080FE0DFF866
:10171000AC80404502D14FF0040808E0DFF8A0801B
:10172000404502D14FF0050801E04FF0060808FAE5
:1017300006F848EA0508CCF808804D68D9F800603A
:10174000ED024D4601D5164300E096432E604D68EC
:10175000DAF80060AD02554601D5164300E0964325
:101760002E604D68DBF80060AD035D4601D5164381
:1017700000E096432E604D68DEF80060ED0375468C
:1017800001D5164300E096432E60641C0A68164695
:10179000E2407FF429AFBDE8F88F00000804014063
:1017A000000011100010024000000140000801403C
:1017B000000C0140001001400014014000180140DD
:1017C000001C01408068084000D0012070470AB129
:1017D000016170470904FBE7014880687047000019
:1017E0002C00002002488168027811448160704713
:1017F0002C000020074810B5016841F0100101607D
:10180000032000F075F80F2000F006F800F024F82F
:10181000002010BD0020024070B50D4D04464FF46D
:101820007A712878B1FBF0F00A490968B1FBF0F051
:1018300000F0F6FB48B9102C07D200222146501EBA
:1018400000F036F800206C6070BD012070BD000013
:101850002C000020380000200C4808B5816941F0B8
:1018600001018161816901F001010091C16941F0CB
:101870008051C161C06900F0805000900448416807
:1018800021F0E06141F00071416008BD00100240AC
:1018900000000140002809DB00F01F0201219140F7
:1018A0004009800000F1E020C0F8001170470000FE
:1018B000F0B40E4B1B680C46C3F30223C3F10705BB
:1018C000042D00D90425191D072901D2002300E0A9
:1018D000DB1E012606FA05F1491E214099409E4073
:1018E000761E16403143F0BC03F096B90CED00E0D3
:1018F000064900F0070208684FF6FF03184040EA67
:101900000220034A10430860704700000CED00E01D
:101910000000FA05BFF34F8F05480168054A01F43E
:10192000E06111430160BFF34F8F00BFFDE700008E
:101930000CED00E00400FA052DE9F84305460078B7
:10194000354CC00754D0E0690026C00008D4E069D7
:1019500040F08050E061E069012600F08050009086
:101960002E480168C90512D40168804641F480718F
:101970000160FFF731FF074605E000BFFFF72CFFCE
:10198000C01B642823D8D8F80000C005F6D5206A0B
:1019900010F4407021D0A98801F4407181421CD01C
:1019A000206A1F49012220F440700A6000220A6068
:1019B0002062C00711D0FFF70FFF074641F28838B9
:1019C00008E000BFFFF708FFC11B414502D9032013
:1019D000BDE8F883206A8007F4D5206A696820F49E
:1019E0004070084320621EB1E06920F08050E06141
:1019F0002878800705D56068A96820F4404008432E
:101A000060602878C00605D56068696920F48000A8
:101A1000084360600020DBE70010024000700040D7
:101A2000400442422DE9F0470F46050061D0434E85
:101A3000306800F00700B84209D2306820F0070093
:101A400038433060306800F00700B84251D1286850
:101A50003B4C810712D5400703D5606840F4E06035
:101A600060602878000703D5606840F460506060CB
:101A70006068A96820F0F000084360602878C0071B
:101A800028D06868012810D02168022810D0890762
:101A900000292EDA616821F0030101436160FFF73C
:101AA0009BFE804641F288390DE021688903EFE70B
:101AB0008901EDE7FFF790FEA0EB0801494502D947
:101AC0000320BDE8F0876068696800F00C00B0EBA7
:101AD000810FEFD1306800F00700B8420BD93068B1
:101AE00020F0070038433060306800F00700B8424B
:101AF00001D00120E5E72878400705D56068E9684E
:101B000020F4E060084360602878000706D560682C
:101B1000296920F4605040EAC100606000F038F8A4
:101B20006168084AC1F30311515CC8400649086066
:101B300006480068FFF770FE0020C2E70020024060
:101B400000100240AA500008380000203000002099
:101B50000448054900684968044AC1F30221515C00
:101B6000C84070473800002000100240BA500008FA
:101B70000448054900684968044AC1F3C221515C20
:101B8000C84070473800002000100240BA500008DA
:101B90000E4A51680E4801F00C03042B11D0082B9B
:101BA0000FD10C48C1F38343C903C05C0AD5516807
:101BB000084AC1F34041921E515C054A5043B0FBB4
:101BC000F1F070470449484370470000001002409C
:101BD00000127A009A50000800093D002DE9F84FE4
:101BE000040070D02078C04DC00749D06868C0F3A9
:101BF0008100012807D06868C0F38100022809D15C
:101C00006868C00306D52868800339D56068002855
:101C1000E7D035E06068B0F5803F0BD010B1B0F58B
:101C2000A02F11D0286820F480302860286820F484
:101C3000802002E0286840F480302860606890B11D
:101C4000FFF7CAFD06460AE0286840F480202860B5
:101C5000F0E700BFFFF7C0FD801B642873D8286839
:101C60008003F7D50CE0FFF7B7FD064605E000BF9F
:101C7000FFF7B2FD801B6428F0D828688003F7D4F2
:101C800020789A4E80074FF001094FF0000839D5AF
:101C9000686810F00C0F07D06868C0F38100022854
:101CA00009D16868C00306D42868800714D5206964
:101CB000012808D110E02069B0B1C6F80090FFF704
:101CC0008BFD074605E00AE1FFF786FDC01B0228F1
:101CD000C4D828688007F7D52868616920F0F80023
:101CE00040EAC10028600DE0C6F80080FFF774FDEF
:101CF000074604E0FFF770FDC01B022823D82868C0
:101D00008007F7D4207800072CD57948A169D9B18C
:101D1000C0F80090FFF760FD074604E0FFF75CFDA8
:101D2000C01B02280FD8686A8007F7D571484FF4A6
:101D3000FA510068B0FBF1F0009000BF0098411E1E
:101D40000091FAD20EE080E0C0F80080FFF744FD79
:101D5000074604E0FFF740FDC01B022875D8686AFB
:101D60008007F7D42078400760D5E8690027C000D5
:101D700008D4E86940F08050E861E869012700F084
:101D8000805000905C480168C90513D401688346FF
:101D900041F480710160FFF71FFD824606E000BF3D
:101DA000FFF71AFDA0EB0A0064284ED8DBF800000C
:101DB000C005F5D5E06801280AD008B1052813D080
:101DC000286A20F001002862286A20F0040002E05E
:101DD000286A40F001002862E06841F2883B98B12F
:101DE000FFF7FAFC82460BE0286A40F00400286204
:101DF000EEE700BFFFF7F0FCA0EB0A0159455AD807
:101E0000286A8007F6D50CE0FFF7E6FC824605E07D
:101E1000FFF7E2FCA0EB0A0159454CD8286A80077D
:101E2000F6D41FB1E86920F08050E861E06988B31A
:101E30006968C1F38101022944D00228C6F8608094
:101E400004D0FFF7C9FC044638E034E0FFF7C4FCD7
:101E5000074604E0FFF7C0FCC01B02282BD8286807
:101E60008001F7D4206AB0F5803F05D16868A16889
:101E700020F4003008436860D4E908010843696829
:101E800021F4741108436860C6F86090FFF7A4FC61
:101E9000044606E025E000BFFFF79EFC001B022879
:101EA00009D828688001F7D51BE000BFFFF794FC34
:101EB000001B022802D90320BDE8F88F28688001A2
:101EC000F4D40EE00128F7D06868226A00F480316B
:101ED000914204D1616A00F47010884201D001205F
:101EE000EAE70020E8E7000000100240000042425C
:101EF00080044242380000200070004070B50400A9
:101F000009D0606A002540B125616561A56294F839
:101F1000510040B10CE0012070BD6068B0F5827FD7
:101F2000F4D0E561F2E784F85050204600F040F824
:101F3000022084F851002068016821F0400101600E
:101F4000A088218900F4827001F404410843A1892A
:101F500001F400610843217C01F002010843217D66
:101F600001F001010843218B01F400710843217F36
:101F700001F03801084394F8201001F08001084373
:101F8000218D01F40051084321680860A0690421F3
:101F900001EA1040216848602068C16921F40061AD
:101FA000C1616565012084F85100002070BD00000A
:101FB00030B585B000240094019402940394006825
:101FC0001449884223D11448816941F480518161C8
:101FD000816901F480510491816941F004018161BA
:101FE00080690E4D00F004000490A02000900220B3
:101FF00001900320039069462846FFF7E7FA402046
:10200000CDE90004694628460294FFF7DFFA05B0DF
:1020100030BD0000003001400010024000080140C7
:1020200010B5401EB0F1807F01D3012010BD4FF0EC
:10203000E02460610F21601702F0EEFD0020A06136
:1020400007202061002010BD7047704770B590F8E0
:102050003C20012A2CD0012480F83C40022280F848
:102060003D2003685A689D6822F070060A68324372
:102070005A60104B02689A420ED00F4B9A420BD016
:10208000B2F1804F08D00D4B9A4205D00C4B9A42CA
:1020900002D00C4B9A4204D1496825F080031943C1
:1020A000916080F83D40002180F83C10084670BDEA
:1020B000022070BD002C01400034014000040040AB
:1020C00000080040000C004010B5040003D094F854
:1020D0003D0010B107E0012010BD002084F83C0055
:1020E000204600F01FF8022084F83D00211D2068E2
:1020F00001F024FC012084F8460084F83E0084F8B6
:102100003F0084F8400084F8410084F8420084F8DD
:10211000430084F8440084F8450084F83D00002022
:1021200010BD000008B5234A0168234891420ED132
:10213000816941F4006181618069002200F40060DE
:10214000009011461920FFF7B3FB19202EE0B1F1E2
:10215000804F11D0194A914217D1C16941F0020153
:10216000C161C069002200F00200009002211D2020
:10217000FFF79EFB1D2019E0C16941F00101C1611B
:10218000C06900F00100009008BD0D4A9142FBD1EA
:10219000C16941F00401C161C069002200F004007E
:1021A000009001211E20FFF783FB1E20BDE80840A0
:1021B000FFF770BB002C01400010024000040040FB
:1021C0000008004090F83D10012901D0012070471F
:1021D000022180F83D100168CA6842F00102CA601D
:1021E00000680E4988420ED00D4988420BD0B0F1EC
:1021F000804F08D00B49884205D00B49884202D055
:102200000A49884204D1816801F00701062903D0F8
:10221000016841F00101016000207047002C01407D
:10222000003401400004004000080040000C004061
:1022300070B5044690F83C000025012817D001260F
:1022400084F83C60022084F83D002068826822F017
:10225000770222F47F4282600868502838D00DDC73
:1022600020284FD005DC90B3102811D14AE002207D
:1022700070BD302846D040280AD13BE060282FD0DE
:1022800070280DD0B0F5805F03D0B0F5005F12D09C
:10229000012584F83D60002084F83C00284670BD8C
:1022A000CB68D1E90121206801F0A3FB2068816897
:1022B00041F0770109E0CB68D1E90121206801F004
:1022C00098FB2068816841F480418160E1E719E072
:1022D000CA684968206801F061FC5021206806E066
:1022E000CA684968206801F06AFC6021206801F032
:1022F0008AFBCEE7CA684968206801F04FFC40219C
:102300002068F4E7226801461046F0E770472DE99F
:10231000F04104460068C66805694FF00007A90748
:1023200013D5B10711D5F91E01610120207720686E
:1023300080698007204602D0FFF7E8FF04E000F044
:10234000AFF8204600F041F92777680716D57007E7
:1023500014D521686FF004000861022020772068FE
:10236000806910F4407F204602D0FFF7CFFF04E0E1
:1023700000F096F8204600F028F92777280715D5B1
:10238000300713D521686FF008000861042020771A
:102390002068C0698007204602D0FFF7B7FF04E03D
:1023A00000F07EF8204600F010F92777E80616D5F1
:1023B000F00614D521686FF010000861082020771E
:1023C0002068C06910F4407F204602D0FFF79EFFCE
:1023D00004E000F065F8204600F0F7F82777E807FA
:1023E00008D0F00706D021686FF001000861204690
:1023F00000F046F9280608D5300606D521686FF0AA
:10240000800008612046FFF71FFE680608D57006A9
:1024100006D521686FF040000861204600F060F9A1
:10242000A8060AD5B00608D521686FF0200008611B
:102430002046BDE8F041FFF708BEBDE8F08100008E
:1024400000B585B0002100910191029103910068CF
:10245000B0F1804F1BD10F48816941F008018161C3
:102460008069694600F0080004904FF440600090D5
:102470000220019003900848FFF7A8F80748416838
:1024800021F4407141F0E06141F40071416005B018
:1024900000BD000000100240000C0140000001409F
:1024A000704770B5044690F83C0000260D460128A0
:1024B0000FD0012084F83C006AB1042A1DD0082AFC
:1024C0002FD00C2A3FD00126002084F83C00304653
:1024D00070BD022070BD206801F09EFA20688169FD
:1024E00041F0080181612068816921F00401816166
:1024F000206881692A69114311E0206801F0BCFA63
:102500002068816941F4006181612068816921F45A
:1025100080618161206881692A6941EA02218161C3
:10252000D2E7206801F0DEFA2068C16941F00801B5
:10253000C1612068C16921F00401C1612068C169DD
:102540002A69114311E0206801F000FB2068C1698D
:1025500041F40061C1612068C16921F48061C161F9
:102560002068C1692A6941EA0221C161ACE710B55E
:10257000040003D094F83D0010B107E0012010BD25
:10258000002084F83C00204600F01EF8022084F869
:102590003D00211D206801F0D1F9012084F846009A
:1025A00084F83E0084F83F0084F8400084F841003D
:1025B00084F8420084F8430084F8440084F845001D
:1025C00084F83D00002010BD7047704710B50446E8
:1025D000022249B104290ED0082913D094F84100F1
:1025E000012816D0012010BD94F83E000128F9D131
:1025F00084F83E200FE094F83F000128F2D184F8DF
:102600003F2008E094F840000128EBD184F84020F6
:1026100001E084F841200122206801F0DDF913492E
:102620002068134A884201D0904203D1436C43F49E
:1026300000434364206888420DD090420BD0B0F133
:10264000804F08D00B49884205D00B49884202D000
:102650000A49884204D1816801F00701062903D0A4
:10266000016841F001010160002010BD002C014013
:10267000003401400004004000080040000C00400D
:1026800010B500681349144C884210D101F012FCB7
:102690006068401C606064281AD300206060206875
:1026A000BDE8104000F001010020FEF75EB80B49C4
:1026B00088420DD12068401C206001F09BFC18B1BD
:1026C000BDE8104001F09CBCBDE8104002F05CB8D1
:1026D00010BD0000002C0140000000200008004058
:1026E0007047704770470000F8B5016804460868F5
:1026F000CA684B6910F00F0F4FF0000559D003F076
:10270000010602F49077374365D0C10705D0D105A3
:1027100003D5616C41F001016164410705D5D9071A
:1027200003D0616C41F002016164810705D5D907CE
:1027300003D0616C41F004016164010707D502F028
:102740002001314303D0616C41F008016164616C88
:1027500000293AD0800604D5900602D5204601F023
:102760006FFA20684069616CC0F38010090700D4DB
:1027700060B3204601F03DFA20684069400621D54B
:102780002068143050E8001F21F0400140E800129A
:10279000002AF5D1E06BA8B16D494163E06BFEF70B
:1027A00069FC002811D0E06B416B01B0BDE8F0403E
:1027B000084783060FD593060DD52046BDE8F8409F
:1027C00001F03EBA2046FFF78DFFF8BD2046FFF727
:1027D00089FF6564F8BD266B2023012E7CD1C606D7
:1027E0007AD5D60678D508684868009048694FF0D1
:1027F0000206400640D5E16B086840680004000C02
:10280000E8D0A28D8242E5D9E085886920282DD0C4
:1028100020680C3050E8001F21F4807140E800125D
:10282000002AF5D12068143050E8001F21F0010182
:1028300040E80012002AF5D12068143050E8001F4B
:1028400021F0400140E80012002AF5D184F842301E
:10285000256320680C3050E8001F21F0100140E88B
:102860000012002AF5D1E06BFEF7E0FB6663A08D55
:10287000E18D401A81B22AE0A08DE18D401A81B22B
:10288000E08D0028A6D00029A4D022680C3252E89E
:10289000000F20F4907042E80007002FF5D1206867
:1028A000143050E8002F22F0010240E80027002FEA
:1028B000F5D184F84230256320680C3050E8002FB1
:1028C00022F0100240E80023002BF5D16663204679
:1028D000FFF707FFF8BDFFE705062BD5150629D53D
:1028E00094F841002128F5D1A068B0F5805F01D1AE
:1028F0002069B0B1206A411C2162216800784860DB
:10290000E08C401E0004000CE084E3D12068C16824
:1029100021F08001C1602068C16841F04001C160C0
:10292000D8E7206A0088C0F308004860206A801C4D
:102930002062E5E74006CDD55006CBD5CA682046D3
:1029400022F04002CA6084F8413000F062F9C1E729
:10295000E33B000870B5040004D094F84100002562
:1029600010B106E0012070BD84F84050204600F010
:1029700023F8242084F841002068C16821F4005124
:10298000C160204601F0BEF92068016921F4904140
:1029900001612068416921F02A0141612068C16814
:1029A00041F40051C1606564202084F8410084F83E
:1029B00042006563002070BD2DE9F04F85B0002511
:1029C0000095019502950395044603686148DFF878
:1029D00080C102210322061580274FF020094FF005
:1029E000100A4FF4005B634550D1836943F4804380
:1029F0008361836903F480430493836943F0040390
:102A000083618069DFF8508100F0040004900802BF
:102A1000CDE90001039269464046FEF7D7FDCDE9B6
:102A20000065694640460295FEF7D0FD4C4E4B4886
:102A3000B846C6E90005C6E90257C6F81CB03561BC
:102A4000C6E905595F463046FEF7D0FC08B1FDF7F0
:102A50001AFFE6637462424E404844361438C6E9B1
:102A6000025835617561C6E9000AC6E90657304665
:102A7000FEF7BCFC08B1FDF706FFA66300220121AA
:102A800025207462FEF714FF25205CE0DFF8D4C037
:102A900063455AD1C36943F48023C361C36903F416
:102AA00080230493836943F0100383618069CDE937
:102AB000006100F01000CDE903202B4E694630463E
:102AC000FEF784FDF014CDE9000569463046029515
:102AD000FEF77CFD2548416821F0300141F0E061BE
:102AE00041F0100141601E4E1C4888362838C6E966
:102AF0000005C6E9025735614FF440507561C6E9DB
:102B000006903046FEF772FC08B1FDF7BCFEE663A6
:102B10007462134E1148CC363C38C6E90257356111
:102B20007561C6E9000AC6E9065B3046FEF75EFC41
:102B300008B1FDF7A8FEA6630022012127207462D8
:102B4000FEF7B6FE2720FEF7A5FE05B0BDE8F08F24
:102B500000380140001002400008014058000240C7
:102B6000180400200048004000100140000001400F
:102B700070472DE9F843044690F841009846164600
:102B80000D46202802D00220BDE8F88385B17EB131
:102B900000206064212084F84100FEF71DFEA68419
:102BA0008146E684A0682027B0F5805F02D003E06C
:102BB0000120E9E7206910B12E4600250EE000262D
:102BC0000CE08021204601F0F9F8A8B9C6B116F84A
:102BD000010B21684860E08C401EE084E08C4B468D
:102BE0004FF00002CDF800800028EAD14FF04001FC
:102BF000204601F0E3F840B184F841700320C3E7B8
:102C000035F8020BC0F30800E3E784F841700020B8
:102C1000BAE77047FEE700003EB500241048009474
:102C2000019402940D4984600160047304750125C8
:102C300005614FF460214460C161FDF72FFF08B1C9
:102C4000FDF721FECDE90045694605480294FDF7F0
:102C5000A7FE002801D0FDF716FE3EBD002401406E
:102C6000740100200F4810B50D4901600621416034
:102C700000214FF400228160C0E90312520042613A
:102C8000017641768176C17601774177FEF7DFF8EC
:102C9000002803D0BDE81040FDF7F5BD10BD0000D1
:102CA00000640040E8010020194808B5416941F07E
:102CB000010141614069002200F0010000901146CD
:102CC0000B20FEF7F5FD0B20FEF7E4FD0022114678
:102CD0000C20FEF7EDFD0C20FEF7DCFD0022114676
:102CE0000D20FEF7E5FD0D20FEF7D4FD0022114674
:102CF0000E20FEF7DDFD0E20FEF7CCFD0022114672
:102D00000F20FEF7D5FDBDE808400F20FEF7C2BD3D
:102D1000001002402DE9F04786B0002435480094A9
:102D2000019402940394816941F0200181618169D9
:102D300001F020010491816941F0100181618169F4
:102D400001F010010491816941F004018161816900
:102D500001F004010491816941F0080181618069F9
:102D6000254F00F00800049000220C213846FEF7A1
:102D70002EFDDFF88890002216214846FEF727FD39
:102D8000DFF87CA04FF44058002241465046FEF741
:102D90001EFD0C2001250226CDE90005CDE90246E5
:102DA00069463846FEF712FC062700970396CDE9E0
:102DB000015469464846FEF709FC1020CDE900059C
:102DC0000320CDE9024069464846FEF7FFFB009725
:102DD00069465046CDE90145FEF7F8FBCDF8008085
:102DE0000396CDE9015469465046FEF7EFFB06B065
:102DF000BDE8F087001002400010014000080140CB
:102E0000000C0140114810B50F4901604FF4827168
:102E1000416000214FF40062C0E902120222026107
:102E200001224261520282611022C0E907214162FF
:102E300081620A21C162FFF761F8002803D0BDE872
:102E40001040FDF720BD10BD0030014010020020F1
:102E500010B586B00024184800940194029403949D
:102E600004941449059401604721C0E9011442F219
:102E70000F71C0E903148021C0E90541FFF724F96F
:102E800008B1FDF700FD4FF48050009069460A48F4
:102E9000FFF7CEF908B1FDF7F6FC049404A9064843
:102EA0000594FFF7D3F8002801D0FDF7ECFC06B03D
:102EB00010BD0000002C01406802002010B58EB04B
:102EC00000240794089409940A940B941C216846E2
:102ED0000C94FDF7A2FA21484FF08041C0E900149C
:102EE00040F2FF31C0E9024104618461FFF7ECF870
:102EF00008B1FDF7C8FC4FF48050079007A91748A8
:102F0000FFF796F908B1FDF7BEFC1448FFF72FFB59
:102F100008B1FDF7B8FC0B940BA910480C94FFF70F
:102F200095F808B1FDF7AFFC6020CDE900040294EC
:102F30000822694609480494FFF7B3FA08B1FDF77F
:102F4000A2FC0C2269460548FFF7ABFA08B1FDF771
:102F50009AFC0248FFF774FA0EB010BDB0020020D0
:102F600010B586B00024174800940194029403948D
:102F7000049413490594016040F60F61C0E90114FF
:102F80002321C0E903148461FFF79EF808B1FDF71F
:102F90007AFC4FF48050009069460A48FFF748F9E0
:102FA00008B1FDF770FC049404A906480594FFF7E6
:102FB0004DF8002801D0FDF766FC06B010BD0000FA
:102FC00000040040F802002010B586B00024174825
:102FD00000940194029403940494134905940160AD
:102FE0004721C0E901143121C0E903148021816126
:102FF000FFF76AF808B1FDF746FC4FF480500090E7
:1030000069460A48FFF714F908B1FDF73CFC04943F
:1030100004A906480594FFF719F8002801D0FDF728
:1030200032FC06B010BD0000000800404003002044
:103030000C4810B50A4901604FF4E13141600021AC
:1030400081600C22C160C0E904128161C161FFF797
:1030500081FC002803D0BDE81040FDF714BC10BD72
:1030600000380140880300200C4810B50A4901606F
:103070004FF4E1314160002181600C22C160C0E960
:1030800004128161C161FFF765FC002803D0BDE82F
:103090001040FDF7F8BB10BD00480040D0030020F1
:1030A000FEE7FEE770477047002800DA40427047AD
:1030B000084910B5CA680C69104444F6206290FBB8
:1030C000F2F323440B6190FBF2F302FB1300C860A0
:1030D00010BD0000F4000020074A011E10661046D3
:1030E000836B02DD03F5807302E001DAA3F58073E0
:1030F0001846D36501F02CBD8C0000202DE9F05F4F
:10310000DFF894C100266546DCF838106C6E431A6F
:10311000DCF83C70D5F81C902D694FF4807A04F5EA
:10312000FA72A4F5FA71B8422FD06F695F43DCF8E8
:103130004C3003EBA723AF689F4202DB7F429F42E4
:1031400000DD3B4646F2A81703EB07087F00B845B1
:103150000BD86968A0EB0900814202DB4942814239
:1031600000DD0846CCF8646091E0181BB0F5FA7FEA
:1031700001DD134603E010F5FA7F00DA0B46CCF8C8
:1031800064308CF80B6018467AE06FF4444007EB2B
:1031900000089CF80B0040F2FF7E6FF0FF0B48B177
:1031A000102B0EDB53450CDC8CF80B600A20ACF8BE
:1031B0000C005AE0534501DC5B4556DA01208CF8DF
:1031C0000B00534502DDA3F5807303E05B4527DA6E
:1031D00003F580734FF44860834202DC404283422F
:1031E00000DA03466869E2465843D5F808C0801201
:1031F000844503DBCCF1000C844500DD6046A3B1BF
:1032000003F50063B3F5805F0FD947F23053F04503
:1032100000D25B00002805DB984206DA184604E07D
:103220000023DFE75B429842F8DC46F2A81300EB8C
:10323000030C5B009C450BD86968A7EB0900814231
:1032400002DB4942814200DD0846CAF864601EE0A4
:10325000031BB3F5FA7F01DD104603E013F5FA7F97
:1032600000DA0846CAF864000AE0F0450CD3BCF85E
:103270000C0048B1401EACF80C000020CCF8646093
:10328000BDE8F05F00F046B80020CCF86460BDE80F
:10329000F05FFFF721BF00008C000020084910B547
:1032A0008A6BCC6B104444F6206290FBF2F323440B
:1032B000CB6390FBF2F302FB1300886310BD0000A8
:1032C000F4000020084910B58A6ECC6E104444F614
:1032D000206290FBF2F32344CB6690FBF2F302FBF7
:1032E0001300886610BD0000F4000020084910B5E6
:1032F000CA690C6A104444F6206290FBF2F323443E
:103300000B6290FBF2F302FB1300C86110BD0000DA
:10331000F4000020184930B4CA6A4FF48013801AB0
:10332000984202DC5B42984200DA18468B6A8A6255
:10333000D41A0A694978936943439B12022901D040
:10334000062902D100EB40008312D0694FF480714E
:1033500060438012884202DC4942884200DA084613
:103360005168181A884202DC4942884200DA08464D
:1033700030BCFFF7B1BE00008C0000202DE9F04FFB
:10338000574E00278DB04FF051093C464FF480480E
:10339000A6F5C97536F8141035F81400424600F049
:1033A000CFFD25F81400641CC92CF3DBB5F88E1191
:1033B0002888424600F0FDFD4A4C4FF0010A0028E3
:1033C00003D006DD4FF0010005E047A0C4F808A0D7
:1033D00081E04FF00000E07009EB49004FF001067A
:1033E0004FF0020B00EBD07805EB46004FF4804223
:1033F00030F8021C35F8160000F0DBFD002801DB78
:10340000014600E04142B1EB680F04DD32463CA1C9
:10341000C4F808B00DE0002801DB024600E042429B
:1034200009EBD971B2EB610F07DA32463CA1C4F85F
:1034300008B06846FCF726FF4CE0002803D007DD03
:103440004FF0010006E032463DA1C4F808A0F0E7C5
:103450004FF00000E178884204D032463FA1C4F822
:1034600008A0E6E7761CC82EBEDBD4E904030022E0
:1034700001F0FF0C43F6FF7A4FF480584FF44059A7
:1034800005EB420635F812107688BCF1000F07D024
:1034900049450CDD46450ADA1046AAEB010305E072
:1034A000414504DA4E4502DD10460B467F1C521C96
:1034B000C82AE5DBC4E904030246012F04D0032037
:1034C0003A462FA1A060B4E70020A06034A168466E
:1034D000FCF7D8FE6846FDF7CBF90DB0BDE8F08FDC
:1034E000FA060020600000204572726F723A204494
:1034F0006972656374696F6E207A65726F0D0A0078
:103500004572726F723A20436F6E74696E7569749A
:1035100079206C617267652C20693D25640D0A0075
:103520004572726F723A20436F6E74696E7569747A
:103530007920736D616C6C2C20693D25640D0A0047
:103540004572726F723A205A65726F2064656C74AE
:10355000612C20693D25640D0A0000004572726FE0
:10356000723A20446972656374696F6E206D697385
:103570006D617463682C20693D25640D0A000000AC
:103580004572726F723A205068617365207374657A
:10359000702C206E756D3D256C750D0A00000000C5
:1035A000535F436865636B446174612050415353BA
:1035B0002C207263645F783D256C642C20726364F8
:1035C0005F793D256C640D0A000000000348C16A64
:1035D000816200214166C172818170478C000020A8
:1035E00070B52549254A264C4B4255426642002873
:1035F00021DA884201DD002070BD904205DD1844CB
:103600004FF48371484300150FE0A04206DD2844C3
:10361000C0EB0010C0EBC0001A4904E03044342174
:10362000484318495A3901EB2050164982398842DB
:10363000E2DA084670BD9842DDDBA84205DA0844AC
:103640004FF483714843001510E0B04207DA10448C
:10365000C0EB0010C0EBC0004FF4967104E02044B2
:10366000342148434FF4C37101EB20504FF4D7711C
:103670008842DEDC70BD00006079FEFFE029ECFFCF
:10368000406EDEFFD4FEFFFF2DE9F04F544E8DB0AB
:103690000020B06134465348FDF70CF85148FDF75F
:1036A00001F8E078346900284FF4804A4FF4484B21
:1036B000304636D13AE0C821204600F074FC4A4D2D
:1036C000C82135F81070601C00F06DFC35F8100052
:1036D0005246394600F06DFC07463069844201D1FC
:1036E000756900E00025C830844202D1D6F8148004
:1036F00014E0B84612E0280290FBF7F000EB04203B
:10370000594600F050FCADF8300001220CA93548B4
:10371000FCF7FEFFB169491C6D1CB1614545EADB50
:10372000641C3069C9308442C5DB3FE0C83439E0ED
:10373000C821601C00F037FC2B4DC82135F81070F3
:10374000204600F030FC35F810005246394600F0B3
:1037500030FC0746306900F1C8018C4201D175691F
:1037600000E00025844202D1D6F8148000E0B8467B
:10377000200200F5807912E0280290FBF7F1A9EB16
:103780000100594600F00FFCADF8300001220CA9F1
:103790001448FCF7BDFFB169491C6D1CB16145457A
:1037A000EADB641E3069401E8442C1DC0D48FCF730
:1037B000ADFFF06934460DA103886846B269FCF795
:1037C00061FD6846FDF754F8A069504504D1012019
:1037D00060700DB0BDE8F08F0420A060F9E7000034
:1037E000600000203C00002068050020535F476512
:1037F0006E65726174655461626C6520646F6E659C
:103800002C20726573756C745F6E756D3D256C75DB
:103810002C2063616C695F7461626C655B305D3D37
:1038200025750D0A000000000A46054900280846D3
:1038300002D08914FDF7CBBF4FF40051FAE7000026
:10384000000C014070B50E4D0446002210212846A0
:10385000FDF7BDFF0B490868400603D4086840F037
:1038600040000860CC608868C007FCD0C8680122AE
:1038700084B210212846FDF7AAFF204670BD000043
:10388000000801400030014002480021C165016686
:10389000704700008C000020FDF7A4BF30B595B044
:1038A00028216846FCF7B9FD14210AA8FCF7B5FDEC
:1038B00018210FA8FCF7B1FD01210804CDE9001083
:1038C0000025029502240491CDE907404FF4E01051
:1038D00009906846FEF782F908B172B6FEE70AA9B8
:1038E0000F2081E831004FF48060CDE90D05022101
:1038F0000AA8FEF797F808B172B6FEE74FF4004049
:1039000011900F940FA8FEF717F8002801D072B697
:10391000FEE715B030BD70470148FEF7F8BC000067
:10392000680200200148FEF7F2BC0000F802002007
:103930000148FEF7ECBC000040030020F0B502682F
:10394000204C214D214E224F224B4FF0804CA04263
:1039500009D0984207D0604505D0A84203D0B042B4
:1039600001D0B84204D122F0700E4A6842EA0E0239
:10397000A04209D0984207D0604505D0A84203D0A4
:10398000B04201D0B84203D122F44075CA682A433C
:103990004D6922F080022A4302608A68C2620A6886
:1039A0008262A04201D0984201D1096901630121DC
:1039B00041610169C90703D0016921F00101016179
:1039C000F0BD0000002C0140000400400008004051
:1039D000000C00400034014010B501F01F0301212C
:1039E000046A99408C430462016A9A40114301625F
:1039F00010BD10B5846842EA032224F47F440A43D0
:103A00002243826010BD826822F070020A4342F0B5
:103A10000701816070470000F0B5036A026A22F076
:103A20000102026242688469124E24F073050C6838
:103A30002C4323F002058B682B430D4DA84201D087
:103A4000B04205D123F00807CB683B4323F00403C1
:103A5000A84201D0B04205D14D6922F4407215430D
:103A60008A692A4342608461496841630362F0BD08
:103A7000002C014000340140F0B5026A036A23F0D3
:103A800010030362436884690D6824F4E64444EA41
:103A900005248D6822F0200242EA05120F4D104ED7
:103AA000A84201D0B04206D1CF6822F0800242EA9B
:103AB000071222F04002A84201D0B04207D14D695E
:103AC00023F4406343EA85038D6943EA8503436039
:103AD0008461496881630262F0BD0000002C0140EE
:103AE00000340140F0B5026A036A23F48073036274
:103AF0004368C46922F4007224F073050C68124E06
:103B00002C438D6842EA05220E4DA84201D0B042F6
:103B100006D1CF6822F4006242EA072222F48062D2
:103B2000A84201D0B04207D14D6923F4405343EA83
:103B300005138D6943EA05134360C4614968C16395
:103B40000262F0BD002C01400034014030B5046A2F
:103B5000026A22F4805202624268C3690D6823F44B
:103B6000E64343EA05238D6824F4005444EA05340F
:103B7000084DA84202D0084DA84204D14D6922F454
:103B8000804242EA85124260C3614968016404626E
:103B900030BD0000002C01400034014010B5036A24
:103BA000046A24F001040462846924F0F00444EA05
:103BB000021423F00A020A438461026210BD10B5A8
:103BC000036A046A24F010040462846923F0A003E9
:103BD00024F4704444EA023243EA01118261016232
:103BE00010BD10B5406A0021C185C184FEF77AFD81
:103BF00010BD01680C3151E8002F22F4907241E8A9
:103C00000023002BF5D10168143151E8002F22F078
:103C1000010241E80023002BF5D1016B012909D1F4
:103C200001680C3151E8002F22F0100241E8002316
:103C3000002BF5D1202180F842100021016370474C
:103C400008B590F84210222901D0022008BD8268F0
:103C50004FF480539A4201D1016921B1816A9A429D
:103C60001BD04AB10AE00268816A5268C2F30802B6
:103C70000A80816A891C08E0026972B10268526890
:103C800002F07F020A70816A491C8162C18D491E5F
:103C90000904090CC18503D01BE002685268F1E7F2
:103CA0000168CA6822F02002CA600168CA6822F46A
:103CB0008072CA6001684A6922F001024A612021CB
:103CC00080F8421000214163026B012A03D0FEF705
:103CD0004FFF002008BD016301680C3151E8002F3F
:103CE00022F0100241E80023002BF5D101680A6898
:103CF000D20602D50A6849680091818DFEF7F1FC71
:103D0000E7E7000070B5044600680169E26821F445
:103D10004051114301612169A0680843616908436A
:103D20002168CA6841F20C639A430243CA60206862
:103D30004169A26921F44071114341611E49206823
:103D4000884202D1FDF714FF01E0FDF701FF00EB0F
:103D5000C00101EB0012606864218000B2FBF0F347
:103D6000B3FBF1F36FF018067343B2FBF0F5B2FB4F
:103D7000F0F605EB8305322303EB0515B5FBF1F5F2
:103D8000B6FBF1F605F0F00505EB0615B2FBF0F613
:103D9000B2FBF0F0B0FBF1F06FF01802504306EB0D
:103DA000800003EB0010B0FBF1F0216800F00F0081
:103DB0002844886070BD0000003801402DE9F843B8
:103DC000984617460D460446089E24E0701C22D0F3
:103DD000FDF702FDA0EB0800B0421AD8CEB1206872
:103DE000C168490717D5802D15D0402D13D0016823
:103DF000C94309070FD40168002540680090204698
:103E0000FFF7F7FE0820606484F840500120BDE809
:103E1000F8830320FBE72068006835EA000004D03F
:103E20000020B842D2D00020F1E70120F9E70000DD
:103E30000148FEF759BC0000880300200148FEF746
:103E400053BC0000D00300200148FCF702BF000073
:103E5000E80100200148FCF7FCBE0000E80100205A
:103E60002DE9F0470D4E0124DFF834800025A6F13E
:103E70000907A6F10609A6F1030A2046FCF7FEFB96
:103E800030553D5548F8245009F804500AF80450BC
:103E9000641CE4B2022CF0D9BDE8F0878900002050
:103EA0008C080020411E022901D300207047FCF736
:103EB000E5BB00002DE9F05FFCF787FC1E4F0124F5
:103EC00005464FF00009A24607F1030B07F106086B
:103ED00007F109062046FCF7D1FB315D50B191B9DD
:103EE000164907F804A041F824500BF8049008F88C
:103EF00004900DE039B107F8049018F8041099B94E
:103F00000BF804A010E0395D71B118F8041059B92C
:103F10000A4940F6B83251F82410691A914203D385
:103F200008F804A00BF804903055641CE4B2022C8D
:103F3000D0D9BDE8F09F0000800000208C08002050
:103F4000431A08444FEA600000D55B42B3EB620FAE
:103F500004DDB0EB620F02DBA0EB6200704700EB08
:103F600062007047F0B5048801265310A646C3F1DD
:103F7000000C0DE030F81630A3EB0E071D46B7EB32
:103F8000620F00DDAB1ABC4500DDAB181C44761C8B
:103F90008E42EFDB94FBF1F0002800DA10449042EF
:103FA00000DD801AF0BD084490FBF1F201FB120025
:103FB0007047401AB0EB620F00DD801A5110494281
:103FC000814200DD10447047064AD0690188A1F59E
:103FD0007F43FF3B05D0002903D00121517000F041
:103FE0005BB97047600000200148407870470000CE
:103FF0006000002001480078704700006000002049
:104000002DE9F04700F04EF9DFF880814FF4484584
:10401000002498F802006F005D4E4FF4FA694FF4E7
:10402000804A072825D2DFE800F00413265A697772
:10403000AB0098F8000000281BD04946D8F80C00C7
:1040400000F086FDC8F80C50A8F8044001200EE0EE
:10405000D8F80C004946801CC8F80C0000F078FD28
:10406000D8F80C00B84204D10220C8F80C5088F8E7
:104070000200BDE8F087D8F80C0010F0FF0F20D147
:1040800000F0D8F8B8F8041026F81100491C88B2DE
:10409000A8F80400102817D1D8F80C005246A0F553
:1040A0004840C11700EB1160051210213848FFF796
:1040B00059FF3749203121F81500A8F80440D8F8F5
:1040C0000C00401CC8F80C004946D8F80C0000F061
:1040D0003FFDD8F80C00B842CBD90320C7E7D8F889
:1040E0000C004946401CC8F80C0000F031FDD8F81F
:1040F0000C00B0F5D23FBCD10420B8E7D8F80C00D2
:104100004946401EC8F80C0000F022FDD8F80C000B
:10411000B842AED10520AAE7D8F80C0010F0FF0F86
:104120001FD100F087F8B8F8041026F81100491CD8
:1041300088B2A8F80400102816D1D8F80C0052460E
:10414000A0F54840C11700EB11600612102110487D
:10415000FFF708FF0F4921F81600A8F80440D8F827
:104160000C00401EC8F80C004946D8F80C0000F0BE
:10417000EFFCD8F80C00A842BFF47BAF062076E72E
:10418000BDE8F0470021084600F0E2BC60000020D6
:1041900048050020FA06002010B5124C8EB0A07819
:1041A00006281CD100F028FDFFF7E8F8A06808B940
:1041B000FFF76AFA0020A0702070A06800280ED1D6
:1041C00009480068818800914388028807A101A8F6
:1041D000FCF758F801A8FCF74BFBFCF7F8FA0EB017
:1041E00010BD0000600000203C000020466C6173A0
:1041F0006820636865636B3A205B305D3D25752CF4
:10420000205B315D3D25752C205B325D3D25750DB4
:104210000A000000064841780278114306D10121C6
:104220000170002181708160C16081807047000051
:104230006000002001480088704700004C0000200A
:1042400001484088704700004C00002010B500F085
:1042500029F804484068002803D0BDE8104000F069
:1042600003B810BD4C0000200A4810B5416849B1A0
:1042700000204FF6FF724FF4804300BF31F810402A
:10428000944201D1002010BD401C9842F6D3012079
:1042900010BD00004C00002001494860704700003C
:1042A0004C00002070B50B4C002500210948FCF79C
:1042B0005EFA28B1606840B1218830F8110005E04D
:1042C0006D1CEDB2032DF0D301E020886080608882
:1042D00070BD00004C00002070B5184C064600254B
:1042E0002169421A2046002A806808D00FDD002983
:1042F00007DBFEF7DDFE2069B04212DA1BE0266123
:1043000019E0FEF7D5FE2069002812DA13E00B4809
:1043100080684042002907DCFEF7CAFE2069B042EF
:1043200009DCC4E9035606E0FEF7C2FE2069002856
:1043300001DCE56025612069606170BDF40000204A
:104340000148406970470000F400002003484168BC
:10435000002901D0C968816070470000F400002086
:1043600002490022C1E9032070470000F400002048
:104370002DE9F84F524D4FF00006696CB0EB010883
:104380002846D0F82CB0C46BCBF100072AD0D0F867
:1043900028A0CAF10000814694B32846B8F1000F66
:1043A000016B009140683BDD002C6DDDD0F804907E
:1043B000A14562DB204600F08BFD014600F0A0FD28
:1043C000009900F09DFD00F067FD804520DDA145CE
:1043D00062DD5046FEF762FF6868E96B406888421C
:1043E0003EDD59E0686B41428C4205DB844203DCD0
:1043F000AE63EE632E644FE0002C3EDC44DB4BE00A
:10440000FFE7B8F1000F00DD5046FEF747FF43E03D
:104410002C463846FEF742FFE06B00282ADD3BE0E1
:10442000002C2ADA40684742A7422DDC204600F0E3
:104430004FFD014600F064FD009900F061FD00F0C1
:104440002BFDC8F1000181420DDDA74224DA484668
:10445000FEF724FF6868E96B4068404288421BDB36
:10446000C5E90E6018E02C465846FEF717FFE06BD2
:10447000002811DBA663E6630EE03846FEF70EFF68
:10448000E86B002806DD07E05846FEF707FFE86BFB
:10449000002801DBAE63EE63284644F62063D0E9D2
:1044A0000F120A4492FBF3F46D6C2C4492FBF3F56B
:1044B00003FB1522C0E91024C0E91241BDE8F88FC2
:1044C000F40000200148806C70470000F4000020D8
:1044D0000148C06C70470000F400002010B5074C84
:1044E0006068002809D0806800F014F860684FF414
:1044F0007A71806890FBF1F0606310BDF4000020D9
:10450000034A0023C2E90E31C2E9103070470000AF
:10451000F400002010B5064CA062E06200F0D8FC68
:1045200001464FF07C5000F0F5FB206310BD000009
:10453000F40000200149486070470000F4000020AA
:104540002DE9F047334C0E462246216E0025D76EEA
:104550008E4202D1616E88421ED0A565C4E9186002
:10456000616F884215D0401A400000F0B1FC8146CE
:10457000F01B00F0ADFC8046F01900F0A9FC4146AC
:1045800000F0BEFC494600F0C5FB00F085FC60650C
:1045900000E06565257026E0E06D00EB4001C1EBB1
:1045A000C011A06DB0EBC10F02DB0120207003E051
:1045B0003230A0652078B0B11648002F006D08D0C9
:1045C00009DDC0F10000FEF77DFEE06E002807DD8A
:1045D0000CE0A5660AE0FEF775FEE06E002805DB3C
:1045E000A566E56602E0606DFEF76CFED4E91B018E
:1045F000014444F6206291FBF2F3656F2B4491FB7A
:10460000F2F502FB1511C4E91C13C4E91E30BDE824
:10461000F0870000F40000200148806F7047000020
:10462000F40000200148C06F70470000F400002033
:1046300003494A68002A02D092680A65C865704733
:10464000F4000020044A002393651370C2E91A3174
:10465000C2E91C3070470000F400002070B5184C0F
:1046600006460025216A421A2046002A806908D0A1
:104670000FDD002907DBFEF739FE206AB04212DAAF
:104680001BE0266219E0FEF731FE206A002812DAEC
:1046900013E00B4880694042002907DCFEF726FE44
:1046A000206AB04209DCC4E9075606E0FEF71EFEA8
:1046B000206A002801DCE5612562206A606270BD25
:1046C000F40000200148406A70470000F400002018
:1046D00003484168002901D0896881617047000062
:1046E000F400002002490022C1E9072070470000C1
:1046F000F40000201F4810B50121817200210170D3
:1047000041708170C16301644164C1700171416194
:104710008161C1610162C16201634163816381643E
:10472000C164016541718171C17101724165816529
:104730004172C165016681624166C1728181006911
:10474000002816D00C4942680A6082684A60C26834
:104750008A600069C8600846FFF7ECFEFFF7F6FDC7
:10476000FFF7B6FFFFF7BAFEBDE81040C820FFF71D
:104770005FBF10BD8C00002098080020014908612F
:10478000704700008C0000202DE9F041DFF8948391
:10479000D8F81000002830D0FFF784FDFFF750FD57
:1047A0000546FFF721FC28B9FFF744FD4FF44831D7
:1047B0004843050C98F80A00002400B3D8F810000C
:1047C0000068B0F5C84F07DA00F5C84080B2A842CB
:1047D00009D2A5F5484506E0A0F5C84080B2A84238
:1047E00001D905F54845C8F81450C8F81850C8F85C
:1047F0001C50C8F8205088F80A40BDE8F081D8F86D
:1048000014102846C8E905514FF44842FFF7D1FB80
:10481000D8F824100144C8F82410D8F81C10084413
:10482000C8E90701401AD8F82C2040F2712148430A
:10483000C2EB4212D8F8301002EB4010014448118C
:10484000A1EB4011C8E90B01FEF7CAFEC8F834001D
:10485000D8F81C1001250844C8F8380098F8011051
:1048600098F80000814205D088F80100FFF70CF8A5
:1048700088F80750D8F81010D8F84020886890427F
:1048800002DB4042904201DDC8F840004868D8F899
:104890004410884202DB4042884201DDC8F84400EF
:1048A00098F8080098F8051008430CD1FFF79CFB16
:1048B00048B198F8060058B1FEF7E6FFFEF786FE0D
:1048C00000F034F921E0FEF7DFFFFEF77FFE1AE08B
:1048D00098F80100082814D2DFE800F01304090E4C
:1048E0000404090ED8F84800FEF708FC0DE0D8F8DB
:1048F0004C00FEF70FFD08E0D8F85000FEF7ECFB87
:1049000003E0FEF7C1FF00F077F998F8070058B907
:1049100098F8050098F80310884305D198F8060028
:1049200098F8041088432CD088F80740FEF74EFE14
:1049300088F80840C8F85440C8F8584088F809403A
:1049400098F8010008281CD2DFE800F01B041217B9
:104950000B041217D8F82C10D8F83800FFF7D0FD48
:104960000FE0D8F82C10D8F83800FFF76BFE08E0FD
:10497000D8F82C00FFF7B6FE03E0D8F86000FFF788
:10498000EFFC98F8010008282CD2DFE800F02B0497
:104990001C230F041C23D8F83C00FFF7E9FCFFF7A9
:1049A00091FDC8F84800FFF793FD09E0D8E90F0131
:1049B000FFF7C6FDFFF730FEC8F84800FFF732FEEC
:1049C000C8F84C000EE0D8F84000FFF747FEFFF7AC
:1049D00079FEF5E7D8F84400FFF77EFCFFF7B0FC5E
:1049E000C8F8500098F8030088F8050098F804000B
:1049F00088F80600D8F810004B4E90F8200008B355
:104A000098F80100032801D0072804D1D8F86000E5
:104A1000FEF74AFB40B9D8F86000FEF745FBD8F82E
:104A200010104968884212D1D8F82C00002800DA0A
:104A30004042B0F5205F0CDAD8F85400B04202D3FF
:104A400088F8085005E03230C8F8540001E0C8F892
:104A5000544098F80100032816D0072814D0D8F83D
:104A60006000002800DA4042D8F8101049688842F7
:104A70000AD1D8F85800B04202D388F8095007E0AC
:104A80003230C8F8580003E0C8F8584088F80940A8
:104A9000FFF7AAFA48B198F8010040B198F8081059
:104AA00041B1042088F80200A7E60520FAE788F85B
:104AB0000240A2E698F8091009B10320F2E70226A5
:104AC0004FF400770828F2D2DFE800F00405131D48
:104AD0000505131DEBE7D8E90E104FF48074401A5A
:104AE000FEF7E2FAA0421ADCD8F82C00FEF7DCFA56
:104AF00006E0D8F82C20D8F84010881A00D5501AB3
:104B0000B84209DD0BE0D8F86020D8F84410881AC4
:104B100000D5501A0A2802DC88F802506DE688F8A1
:104B200002606AE68C00002040420F0010B50021B0
:104B30000846FBF765FE01210846FBF76BFE0121E5
:104B4000BDE810400846FBF777BEFBF743BE000008
:104B500070B5274CC0F3090000F58072A51F254BE6
:104B60002080C2F309022A8033F912206A8033F9C7
:104B700010006080002900DC494241F2DB335943D8
:104B8000C1F30B31002A00DC524212B2002800DCD3
:104B9000404203B201FB02F0C0F30F305943A8803A
:104BA000C1F30F31A180FBF72BFEB5F902000028FD
:104BB00012DD4FF0000100BF4FF00100FBF72AFEAD
:104BC000B4F9020000280DDD4FF000014FF00100A4
:104BD000BDE87040FBF730BE4FF00101ECDA4FF05A
:104BE0000000EBE74FF00101F0DA4FF00000EFE7D3
:104BF0005A000020C250000810B500210846FBF7FB
:104C0000FFFD00210846FBF705FE0021BDE810402E
:104C10000846FBF711BEFEE70907090E002804DB72
:104C200000F1E02080F80014704700F00F0000F160
:104C3000E02080F8141D7047FCF7DCFDFEF72EFE27
:104C4000FEF768F8FEF730F8FDF7E6FFFEF70AF822
:104C5000FEF7D8F8FEF7FCF8FEF730F9FEF7B4F9E6
:104C6000FEF7E6F9FEF700FAFEF77AF9FBF772FDB8
:104C700001210020FBF779FDFFF7F2F813A0FBF705
:104C8000F7FDFFF762FFFFF7E1FAFFF79DF9134821
:104C9000FFF774FDFFF72EFD1148FDF793FA114859
:104CA000FDF790FA10A0FBF7E3FD0120FFF7FAF8FB
:104CB00040B10220FFF7F6F820B1FFF7ABFA10A0E1
:104CC000FBF7D6FDFFF768FAFCE700005379737431
:104CD000656D205374617274210D0A000800002074
:104CE000680200204003002054696D6572207469D9
:104CF000636B2073746172746564210D0A00000097
:104D000043616C6920747269676765726564210D1F
:104D10000A0000004FF47F0C1CEAD0121EBF1CEAF0
:104D2000D11392EA0C0F93EA0C0F00F0858090EA01
:104D3000010F48BF42F4807240F4000C41F40000BF
:104D40002CF07F4120F07F4000B58142A2EB0302AE
:104D50000FF2081CACEB504EC0F100009EF800E0D2
:104D60004FEA4E0E00FB0EFC38BF49004FEA2C1CE8
:104D700002F5FA020CFB0EF34FEACE1E4FEA112C9D
:104D80004FEAC1210EEB635E42EB22420EFB0CFCAC
:104D90004FEA1C5300FB03114FEA112C4FEA01317B
:104DA0000EFB0CFC4FEADC4C00FB0C11C14228BF8F
:104DB00009184CEB03335DF804EB10EB410143EBB6
:104DC000C250B2F57C0F38BF704729D512F0F00FF2
:104DD0001CBF00F1C04000F000407047008182839A
:104DE0008485868788898B8C8D8E8F9192939596FA
:104DF00097999A9C9D9FA0A2A3A5A7A8AAACAEB084
:104E0000B2B3B5B7B9BCBEC0C2C5C7C9CCCED1D488
:104E1000D7D9DCDFE2E6E9ECF0F3F7FAFE000000B8
:104E20004FEA400C0CF1807CBCF17E4F28BF7047EC
:104E3000B0F1C04000F02BB990EA010F0CEAD11399
:104E400048BF42F48072624538BF634507D213F40D
:104E50007F0F16D080EA010000F00040704710B5C7
:104E600000F0CFF8097EFC3E00F005B880EA0100B2
:104E700000F00040704780EA010000F0004000F0C0
:104E800006B912F47F0F04BF0248704780EA0100A0
:104E900000F0FDB80000C07F41000B0ED3F19E0270
:104EA00008D950F400034FEA032323FA02F048BF65
:104EB0004042704710B500F0A4F800BF499224802A
:104EC000002070476FF0004282EA20007047000027
:104ED00010F0004148BF4042B0FA80F310FA03F2EC
:104EE000C3F19D030BD051EAC35101EB12205306CD
:104EF00038BF704700F1010008BF20F00100704783
:104F00004FF47F0C1CEAD0121EBF1CEAD11392EAA8
:104F10000C0F93EA0C0F00F0478090EA010F48BF96
:104F200042F480724FF0004C4CEA00204CEA012120
:104F300002EB0302A0FB0113A2F50002002918BF37
:104F400043F001035B0028BF4FEA330342EB2242E8
:104F50005FEA132C4CEBC2502EBFBCEB436FB2F593
:104F60007C0F70474FEA036CBCF1004F08BF20F084
:104F70000100B2F57C0F38BF70470BD582F0FF02FD
:104F800012F5803FC8BF704700F1C040D8BF00F0A5
:104F90000040704700F5000C5FEA4C0C48BF7047BA
:104FA000B0F1C04000F073B890EA010F0CEAD113E1
:104FB00048BF42F48072624538BF634504D280EA3C
:104FC000010000F00040704710B500F01AF800BF73
:104FD0008900013E00F007B800F009B85FEA410C13
:104FE0005FEA1C6C08D080EA010000F050B85FEA6C
:104FF000400C5FEA1C6CF6D14FF00040A0F5800039
:1050000070470EF1020E2EF0030E5EF8044B2442A0
:1050100004D44FEA4102B2F17F4F11D84FEA400366
:10502000B3F17F4F0CD80ED14FEAD07CB2F17F4F55
:105030000CEB4C0C0CF1020C08BF4CEBD17C04E0E7
:105040004FF0080C01E04FEAD17C0CEB4C0324FA42
:1050500003F404F00704B4F1040C06D20EEB840C44
:10506000BDE810404CF0010C6047DFE80CF0070889
:1050700002024FF00040A0F5800010BD084642003B
:1050800018BFD2F1807288BF00F0004010BDFF2130
:1050900041EAD050C005704701020203040506072B
:1050A00008090A0B0C0D0E0F101000000000000084
:1050B00000000102030406070809000000000102C5
:1050C00003040000190032004B0065007E009700C9
:1050D000B000C900E200FB0014012D0146015F0190
:1050E00078019101AA01C301DC01F5010E0227023A
:1050F0004002590272028B02A302BC02D502EE02E8
:1051000006031F0338035003690381039A03B203A4
:10511000CB03E303FC0314042C0444045D04750472
:105120008D04A504BD04D504ED0405051D05340555
:105130004C0564057C059305AB05C205DA05F10550
:1051400008061F0637064E0665067C069306AA0665
:10515000C106D706EE0605071B07320748075E079C
:1051600075078B07A107B707CD07E307F9070E08F7
:1051700024083A084F0865087A088F08A508BA0875
:10518000CF08E408F8080D09220937094B095F091F
:10519000740988099C09B009C409D809EC09FF09F8
:1051A000130A260A3A0A4D0A600A730A860A990AFD
:1051B000AC0ABF0AD10AE40AF60A080B1B0B2D0B36
:1051C0003E0B500B620B740B850B970BA80BB90BA6
:1051D000CA0BDB0BEC0BFC0B0D0C1E0C2E0C3E0C4F
:1051E0004E0C5E0C6E0C7E0C8E0C9D0CAC0CBC0C34
:1051F000CB0CDA0CE90CF80C060D150D230D320D55
:10520000400D4E0D5C0D690D770D850D920D9F0DB6
:10521000AC0DB90DC60DD30DDF0DEC0DF80D040E60
:10522000100E1C0E280E340E3F0E4B0E560E610E45
:105230006C0E770E810E8C0E960EA10EAB0EB50E77
:10524000BF0EC80ED20EDB0EE40EEE0EF70EFF0EF2
:10525000080F110F190F210F290F310F390F410FAF
:10526000480F500F570F5E0F650F6C0F720F790FBD
:105270007F0F850F8B0F910F970F9C0FA20FA70F1A
:10528000AC0FB10FB60FBB0FBF0FC40FC80FCC0FC1
:10529000D00FD40FD70FDB0FDE0FE10FE40FE70FB6
:1052A000EA0FEC0FEF0FF10FF30FF50FF70FF80FF9
:1052B000FA0FFB0FFC0FFD0FFE0FFF0FFF0F00108B
:1052C0000010001000100010FF0FFF0FFE0FFD0F69
:1052D000FC0FFB0FFA0FF80FF70FF50FF30FF10F9D
:1052E000EF0FEC0FEA0FE70FE40FE10FDE0FDB0F1C
:1052F000D70FD40FD00FCC0FC80FC40FBF0FBB0FE9
:10530000B60FB10FAC0FA70FA20F9C0F970F910F05
:105310008B0F850F7F0F790F720F6C0F650F5E0F6C
:10532000570F500F480F410F390F310F290F210F21
:10533000190F110F080FFF0EF70EEE0EE40EDB0E25
:10534000D20EC80EBF0EB50EAB0EA10E960E8C0E71
:10535000810E770E6C0E610E560E4B0E3F0E340E04
:10536000280E1C0E100E040EF80DEC0DDF0DD30DE3
:10537000C60DB90DAC0D9F0D920D850D770D690D04
:105380005C0D4E0D400D320D230D150D060DF80C64
:10539000E90CDA0CCB0CBC0CAC0C9D0C8E0C7E0C0E
:1053A0006E0C5E0C4E0C3E0C2E0C1E0C0D0CFC0BF1
:1053B000EC0BDB0BCA0BB90BA80B970B850B740B13
:1053C000620B500B3E0B2D0B1B0B080BF60AE40A6D
:1053D000D10ABF0AAC0A990A860A730A600A4D0A02
:1053E0003A0A260A130AFF09EC09D809C409B009C8
:1053F0009C09880974095F094B09370922090D09BD
:10540000F808E408CF08BA08A5088F087A086508E4
:105410004F083A0824080E08F907E307CD07B70735
:10542000A1078B0775075E07480732071B070507AB
:10543000EE06D706C106AA0693067C0665064E064A
:1054400037061F060806F105DA05C205AB05930508
:105450007C0564054C0534051D050505ED04D504E2
:10546000BD04A5048D0475045D0444042C041404D7
:10547000FC03E303CB03B2039A03810369035003E4
:1054800038031F030603EE02D502BC02A3028B02FF
:1054900072025902400227020E02F501DC01C3012B
:1054A000AA01910178015F0146012D011401FB0061
:1054B000E200C900B00097007E0065004B0032009A
:1054C00019000000E7FFCEFFB5FF9BFF82FF69FFD9
:1054D00050FF37FF1EFF05FFECFED3FEBAFEA1FE14
:1054E00088FE6FFE56FE3DFE24FE0BFEF2FDD9FD4A
:1054F000C0FDA7FD8EFD75FD5DFD44FD2BFD12FD7C
:10550000FAFCE1FCC8FCB0FC97FC7FFC66FC4EFC9E
:1055100035FC1DFC04FCECFBD4FBBCFBA3FB8BFBB0
:1055200073FB5BFB43FB2BFB13FBFBFAE3FACCFAAD
:10553000B4FA9CFA84FA6DFA55FA3EFA26FA0FFA92
:10554000F8F9E1F9C9F9B2F99BF984F96DF956F95D
:105550003FF929F912F9FBF8E5F8CEF8B8F8A2F806
:105560008BF875F85FF849F833F81DF807F8F2F78B
:10557000DCF7C6F7B1F79BF786F771F75BF746F7ED
:1055800031F71CF708F7F3F6DEF6C9F6B5F6A1F623
:105590008CF678F664F650F63CF628F614F601F62A
:1055A000EDF5DAF5C6F5B3F5A0F58DF57AF567F505
:1055B00054F541F52FF51CF50AF5F8F4E5F4D3F4AC
:1055C000C2F4B0F49EF48CF47BF469F458F447F41C
:1055D00036F425F414F404F4F3F3E2F3D2F3C2F353
:1055E000B2F3A2F392F382F372F363F354F344F34E
:1055F00035F326F317F308F3FAF2EBF2DDF2CEF20D
:10560000C0F2B2F2A4F297F289F27BF26EF261F28A
:1056100054F247F23AF22DF221F214F208F2FCF1C0
:10562000F0F1E4F1D8F1CCF1C1F1B5F1AAF19FF1BB
:1056300094F189F17FF174F16AF15FF155F14BF169
:1056400041F138F12EF125F11CF112F109F101F1CE
:10565000F8F0EFF0E7F0DFF0D7F0CFF0C7F0BFF0F1
:10566000B8F0B0F0A9F0A2F09BF094F08EF087F0C3
:1056700081F07BF075F06FF069F064F05EF059F046
:1056800054F04FF04AF045F041F03CF038F034F07F
:1056900030F02CF029F025F022F01FF01CF019F06A
:1056A00016F014F011F00FF00DF00BF009F008F007
:1056B00006F005F004F003F002F001F001F000F054
:1056C00000F000F000F000F001F001F002F003F053
:1056D00004F005F006F008F009F00BF00DF00FF003
:1056E00011F014F016F019F01CF01FF022F025F064
:1056F00029F02CF030F034F038F03CF041F045F077
:105700004AF04FF054F059F05EF064F069F06FF039
:1057100075F07BF081F087F08EF094F09BF0A2F0B2
:10572000A9F0B0F0B8F0BFF0C7F0CFF0D7F0DFF0DD
:10573000E7F0EFF0F8F001F109F112F11CF125F1B9
:105740002EF138F141F14BF155F15FF16AF174F14D
:105750007FF189F194F19FF1AAF1B5F1C1F1CCF19A
:10576000D8F1E4F1F0F1FCF108F214F221F22DF29B
:105770003AF247F254F261F26EF27BF289F297F25A
:10578000A4F2B2F2C0F2CEF2DDF2EBF2FAF208F3DA
:1057900017F326F335F344F354F363F372F382F310
:1057A00092F3A2F3B2F3C2F3D2F3E2F3F3F304F40D
:1057B00014F425F436F447F458F469F47BF48CF4CB
:1057C0009EF4B0F4C2F4D3F4E5F4F8F40AF51CF551
:1057D0002FF541F554F567F57AF58DF5A0F5B3F59C
:1057E000C6F5DAF5EDF501F614F628F63CF650F6B6
:1057F00064F678F68CF6A1F6B5F6C9F6DEF6F3F6A1
:1058000008F71CF731F746F75BF771F786F79BF758
:10581000B1F7C6F7DCF7F2F707F81DF833F849F8E7
:105820005FF875F88BF8A2F8B8F8CEF8E5F8FBF851
:1058300012F929F93FF956F96DF984F99BF9B2F992
:10584000C9F9E1F9F8F90FFA26FA3EFA55FA6DFAB4
:1058500084FA9CFAB4FACCFAE3FAFBFA13FB2BFBBA
:1058600043FB5BFB73FB8BFBA3FBBCFBD4FBECFBA5
:1058700004FC1DFC35FC4EFC66FC7FFC97FCB0FC78
:10588000C8FCE1FCFAFC12FD2BFD44FD5DFD75FD3D
:105890008EFDA7FDC0FDD9FDF2FD0BFE24FE3DFEF1
:1058A00056FE6FFE88FEA1FEBAFED3FEECFE05FF9B
:1058B0001EFF37FF50FF69FF82FF9BFFB5FFCEFF42
:1058C000E7FF0000E4580008000000207401000019
:1058D0006C0100081459000874010020940D0000A8
:1058E000C8010008C133D0072390014B204E0C2281
:1058F000805A0A1319033904821023127A2C78076C
:10590000082479140116293701162940092D33017D
:04591000A00223C806
:0400000508000131BD
:00000001FF
