:020000040800F2
:10000000000D002049010008DF29000853250008E1
:10001000DD290008D7020008B931000800000000FF
:10002000000000000000000000000000E3290008BC
:100030005703000800000000E1290008E529000836
:100040006301000863010008630100086301000800
:1000500063010008630100086301000863010008F0
:10006000630100086301000863010008F102000851
:10007000FD02000809030008150300082103000819
:10008000630100086301000863010008A131000852
:10009000AD310008D9020008E5020008630100083C
:1000A00063010008652A0008630100086301000875
:1000B00063010008712A00087D2A00086301000816
:1000C0006301000863010008630100086301000880
:1000D0006301000881310008630100088D310008C8
:1000E0006301000863010008630100086301000860
:1000F0006301000863010008630100086301000850
:10010000630100086301000863010008630100083F
:10011000630100086301000863010008892A0008E0
:10012000630100086301000863010008630100081F
:10013000DFF810D000F082F800480047753E000854
:10014000AFF30080000D00200648804706480047B6
:10015000FEE7FEE7FEE7FEE7FEE7FEE7FEE7FEE777
:10016000FEE7FEE7632A0008310100084FF0FF3088
:100170007047202A04DB203A21FA02F00021704760
:1001800021FA02F3D040C2F12002914008431946FF
:10019000704740EA01039B0703D009E008C9121F1A
:1001A00008C0042AFAD203E011F8013B00F8013B31
:1001B000521EF9D27047D2B201E000F8012B491E5D
:1001C000FBD270470022F6E710B513460A460446F4
:1001D0001946FFF7F0FF204610BD2DE9F05F0546F8
:1001E000002092469B4688460646814640241BE0F6
:1001F0002846414647462246FFF7BBFF53465A462C
:10020000C01A914110D311461846224600F028F832
:100210002D1A67EB01084F4622460120002100F00D
:100220001FF817EB00094E41201EA4F10104DFDC8A
:10023000484631462A464346BDE8F09F064C074DE6
:1002400006E0E06840F0010394E8070098471034A6
:10025000AC42F6D3FFF770FF1C4800083C4800088A
:10026000202A04DB203A00FA02F100207047914076
:10027000C2F1200320FA03F31943904070470000B5
:1002800070B5044600688168C943C90717D1816801
:1002900021F00101816000F0FFFE05460AE000BF89
:1002A00000F0FAFE401B022804D920688068C04391
:1002B000C00706D020688068C043C007F0D0002087
:1002C00070BDA06A40F01000A062E06A40F001003A
:1002D000E062012070BDFEE7014800F098B900001F
:1002E00068010020014800F092B900006801002078
:1002F000014800F035BC000024010020014800F056
:100300002FBC000064040020014800F029BC00005C
:1003100020040020014800F023BC0000DC03002082
:10032000014800F01DBC00009803002030B590F893
:1003300040500124AC40C56B6C6004686360436846
:10034000102B036803D099600068C26030BD9A60CA
:100350000068C16030BD704772B6FEE7F8B5002492
:10036000009490F824202546012A12D0012280F81A
:1003700024204A681F23072A0DD20668776B521E75
:1003800002EB820293409F430B6893401F437763C5
:1003900019E00220F8BD06680D2A0AD2376BD21F79
:1003A00002EB820293409F430B6893401F433763E5
:1003B00009E0F76A0D3A02EB820293409F430B6813
:1003C00093401F43F7620A68072306680A2A0AD384
:1003D000F7680A3A02EB420293409F438B689340CE
:1003E0001F43F76008E0376902EB420293409F43E6
:1003F0008B6893401F4337610A68102A01D0112A85
:1004000020D1124B02689A4217D193681B0219D46B
:10041000936843F4000393600968102912D10C49D2
:100420000C4A0968B1FBF2F101EB8101490000E0DF
:10043000491E00910029FBD104E0816A41F02001AE
:100440008162012480F824502046F8BD0024014038
:100450000C00002040420F002DE9F04104004FF055
:1004600000057FD0A06A002628B9E66284F82460DF
:10047000204600F081F82046FFF702FFA16AC90676
:1004800000D420B1A06A40F01000A0626AE0A16A26
:1004900021F4885141F00201A162334923688B4263
:1004A000E16904D1B1F5402F01D14FF40021277B40
:1004B0004FF4807C41EA470261680A43A1686145C4
:1004C00008D0012906D0002194F814E0BEF1010FF4
:1004D00002D00AE06146F7E7C7B1A76A47F02007F4
:1004E000A762E76A47F00107E7625F6827F4694798
:1004F0000F435F60236899681C4F3940114399602E
:10050000A16861450BD0012909D00CE0DFF860E05B
:10051000A7690EEB47370F4347F40061E5E7218AEF
:100520000D05A5F580152168CB6A23F470032B43D4
:10053000CB62216889680F4B1940914208D1E6626D
:10054000A16A21F0020141F00101A162BDE8F08140
:10055000A06A20F0020040F01000A062E06A40F0C3
:100560000100E0620120F1E7003C0140FDF7E1FFFE
:1005700000E0FFFFFE0E1FFF70B586B000260546A7
:10058000009601960296039600681B49884230D176
:100590001A49886940F400708861886900F4007025
:1005A0000490886940F0040088618869694600F019
:1005B000040004900120009003200190104800F0F6
:1005C00069FC114C0F48C4E900068020C4E90260B0
:1005D00040002061800060612020A0614FF4405005
:1005E000E061204600F0E0FB08B1FFF7B5FE2C62A9
:1005F000656206B070BD000000240140001002409A
:1006000000080140080002402401002070472DE945
:10061000F05F0546006800244669D0F804908768BA
:10062000D0F80CB0D0F810A0D0F81880F10748D05E
:10063000F90714D001218160B80703D5284600F0DE
:10064000CDF90CE0780702D54FF4006407E03807D5
:1006500002D54FF4805402E0284600F0BEF9F805B8
:1006600016D529684FF480708860B80503D52846F0
:1006700000F0B6F90CE0780502D544F4005407E028
:10068000380502D544F4804402E0284600F0A7F97A
:10069000F80316D529684FF480308860B80303D575
:1006A000284600F09FF90CE0780302D544F400449A
:1006B00007E0380302D544F4803402E0284600F015
:1006C00090F9300707D55FEACB6004D52968102080
:1006D00044F40074C86070074FF0080707D55FEA5C
:1006E0000B7004D52868C760284600F071F9B00780
:1006F00006D52868C068800702D0284600F069F94E
:10070000700607D55FEACA6004D52968102044F452
:1007100080640861B00607D55FEA0A7004D52868CE
:100720000761284600F056F9F00606D528680069EA
:10073000800702D0284600F04EF9B00308D55FEAE2
:10074000C96005D5296810204860284600F044F9A2
:10075000F00307D55FEA097004D52868476028468A
:1007600000F041F9300446D55FEA497040D5F00504
:1007700004D55FEAC87001D044F00104B00504D587
:100780005FEA887001D544F00204700504D55FEA81
:10079000487001D544F00404300529D518F0700FD5
:1007A00026D008F07000402815D006DC102809D0AB
:1007B00020280AD0302816D10AE050280ED0602810
:1007C00011D10EE044F008040DE044F010040AE0FA
:1007D00044F0200407E044F0400404E044F08004C6
:1007E00001E044F480742868816921F0700181611E
:1007F000296804204860002C05D0686A204368629C
:100800002846FFF703FFBDE8F09F70B5040003D052
:1008100094F8200010B104E0012070BD204600F0E3
:1008200081F82068016841F00101016000F034FCAA
:100830000546052604E000F02FFC401B0A2811D8CD
:1008400020684068C007F6D02068016821F00201E6
:10085000016000F021FC05460BE000F01DFC401B90
:100860000A2806D9606A40F40030606284F820608B
:10087000D2E7206840688007EFD4207E01282068F6
:1008800001683DD021F080010160607E0128206870
:10089000016838D021F040010160A07E0128206865
:1008A000016833D021F020010160E07E012820683A
:1008B00001682ED041F010010160207F01282068DE
:1008C000016829D021F008010160607F01282068BB
:1008D000016824D021F004010160D4E90201084339
:1008E000D4E90412114308436168491E0843216892
:1008F000C86100206062012084F82000002070BDE3
:1009000041F08001C0E741F04001C5E741F020011E
:10091000CAE721F01001CFE741F00801D4E741F028
:100920000401D9E710B586B0002100910191029130
:10093000039100682349884242D12348C16941F0AC
:100940000071C161C16901F000710491816941F0D8
:100950000401816180691D4C00F0040004904FF493
:10096000006000906946204600F094FAA0140090C0
:1009700002200190032003906946204600F08AFA85
:1009800000221146132000F0F3FB132000F0E2FBDD
:1009900000221146142000F0EBFB142000F0DAFBDB
:1009A00000221146152000F0E3FB152000F0D2FBD9
:1009B00000221146162000F0DBFB162000F0CAFBD7
:1009C00006B010BD00640040001002400008014065
:1009D000704770477047704770477047704770475F
:1009E000704770477047704710B590F8211000228B
:1009F000022905D00421816380F82020012010BD48
:100A000001680B6823F00E030B6001680B6823F08C
:100A100001030B6090F84030C46B012101FA03F32D
:100A2000636080F8211080F82020104610BD00007F
:100A30002DE9F05F90F821100024022903D0042151
:100A40008163012485E001680A6822F00E020A60D1
:100A500001680A6822F001020A603F4E3E4FB2155B
:100A6000DFF8F4C0DFF8F090DFF8ECA0DFF8E8B0D2
:100A7000DFF8E4E00168783F13011502ACF1640C83
:100A8000A9F15009AAF13C0AABF1280BAEF1140E02
:100A90004FF48018B14227D9B9420ED0614512D027
:100AA00049451DD0514518D0594518D0714501D13F
:100AB000424615E0294EB14201D1012210E0274EF5
:100AC0001436B14201D110220AE0244E2836B14238
:100AD00006D0224A3C32914201D11A4600E02A4611
:100AE0001E49091F0A602BE0B94213D0614517D097
:100AF000494522D051451DD059451DD0714501D1E0
:100B000042461AE0B14202D14FF0807215E0134E16
:100B1000B14201D1012210E0104E1436B14201D190
:100B200010220AE00D4E2836B14206D00B4A3C3264
:100B3000914201D11A4600E02A46074980394A60AD
:100B4000012180F82110002180F82010416B01B1B3
:100B500088472046BDE8F09F80000240080402401C
:100B60002DE9F05FC16B0A6801680B68046C4FF0F7
:100B7000040808FA04F8844D844E854FDFF814C247
:100B8000DFF81492DFF814A2DFF814B2DFF814E2F1
:100B900018EA020F65D05FEA437862D50A689206C8
:100BA00003D40A6822F004020A60DFF8F0814FF4EF
:100BB0008062016808F1140813011402414524D928
:100BC000A9420DD0B1420FD0B9421AD0614515D01B
:100BD000494515D0514501D1120312E0594501D1C3
:100BE00004220EE0714501D140220AE06D4D14351A
:100BF000A94206D06B4A2832914201D11A4600E040
:100C000022466749091F0A6029E0A94213D0B14270
:100C100015D0B94220D061451BD049451BD0514564
:100C200002D14FF4800217E0414502D14FF08062BB
:100C300012E0594501D104220EE0714501D1402254
:100C40000AE0584D1435A94206D0564A283291423E
:100C500001D11A4600E022464B4908394A60C16A70
:100C600071E04FF0020808FA04F818EA020F70D099
:100C70005FEA83786DD50A68920606D40A6822F086
:100C80000A020A60012180F82110DFF810814FF478
:100C90000072016808F1140813011402414524D9B7
:100CA000A9420DD0B1420FD0B9421AD0614515D03A
:100CB000494515D0514501D1120312E0594501D1E2
:100CC00002220EE0714501D120220AE0354D143593
:100CD000A94206D0334A2832914201D11A4600E097
:100CE00022462F49091F0A6029E0A94213D0B142C8
:100CF00015D0B94220D061451BD049451BD0514584
:100D000002D14FF4001217E0414502D14FF00072BA
:100D100012E0594501D102220EE0714501D1202295
:100D20000AE0204D1435A94206D01E4A28329142CD
:100D300001D11A4600E02246134908394A600021D1
:100D400080F82010816A00291CD0BDE8F05F0847B8
:100D5000FFE70825A540154214D01A0712D50A68E6
:100D600022F00E020A6090F84020C36B012101FAC4
:100D700002F25A60816380F82110002180F820106F
:100D8000016BE0E7BDE8F09F080002401C00024054
:100D90003000024044000240580002406C00024013
:100DA000080402401C04024030B560B11A4B0268CE
:100DB00014219A4209D2194B1344B3FBF1F1890073
:100DC000016417490AE0012030BD134B5B42134414
:100DD000B3FBF1F1890001640F490839C1630221B5
:100DE00080F82110136843F6F0718B43F0E9011489
:100DF0002143D0E902452C4321430469214344693E
:100E00002143846921431943116000214163012278
:100E100042770177084630BD08040240F8FFFDBF65
:100E20000000024070B5044690F82000002501281B
:100E30000CD0012084F8200094F821600020012EBD
:100E400006D084F820000225284670BD022070BD1F
:100E5000022684F82160A0632068066826F0010657
:100E600006602046FFF762FAE06A00282068016801
:100E700002D041F00E0106E021F00401016020687B
:100E8000016841F00A0101602068016841F0010138
:100E90000160D9E72DE9F84FDFF8C8910024A9F1E6
:100EA000040B23460F2709F1040AABF1040ED1E02D
:100EB0000125A54006EA0502AA4276D1DFF8A8C1BD
:100EC0004E68A6EB0C0866452BD00DDC032E34D003
:100ED00005DC36B3012E19D0022E2FD11BE0112EC6
:100EE00016D0122E2AD119E0B8F5881F19D006DCC9
:100EF000B8F5803F15D0B8F5801F1FD111E0B8F5C7
:100F0000001F0ED0B8F5041F18D10AE0CB6815E019
:100F1000CB681B1D12E0CB6808330FE0CB680C33A5
:100F20000CE08B682BB1012B4FF0080303D0456117
:100F300004E0042302E0056100E00023FF2A01D859
:100F4000064601E000F104064FEA840501D9A5F147
:100F50002005D6F8008007FA05FC28EA0C0803FAF9
:100F600005F548EA0508C6F800804D68ED0070D523
:100F70003E4DAE6946F00106AE61AD6924F0030650
:100F800005F0010500953A4D06EB050CDCF808501C
:100F9000A607360F07FA06F825EA0805DFF8D48019
:100FA000404503D14FF0000825E052E0DFF8C8804B
:100FB000404502D14FF001081DE0DFF8C0804045F8
:100FC00002D14FF0020816E0DFF8B480404502D1AC
:100FD0004FF003080FE0DFF8AC80404502D14FF03E
:100FE000040808E0DFF8A080404502D14FF0050872
:100FF00001E04FF0060808FA06F848EA0508CCF8C0
:1010000008804D68D9F80060ED024D4601D51643C1
:1010100000E096432E604D68DAF80060AD02554658
:1010200001D5164300E096432E604D68DBF8006062
:10103000AD035D4601D5164300E096432E604D6832
:10104000DEF80060ED03754601D5164300E09643D7
:101050002E60641C0A681646E2407FF429AFBDE8A2
:10106000F88F000008040140000011100010024039
:101070000000014000080140000C01400010014048
:101080000014014000180140001C01400AB1016138
:1010900070470904FBE700000148806870470000C2
:1010A0000000002002488168027811448160704786
:1010B00000000020074810B5016841F010010160F0
:1010C000032000F075F80F2000F006F800F024F877
:1010D000002010BD0020024070B50D4D04464FF4B5
:1010E0007A712878B1FBF0F00A490968B1FBF0F099
:1010F00000F0E4FB48B9102C07D200222146501E14
:1011000000F036F800206C6070BD012070BD00005A
:10111000000000200C0000200C4808B5816941F057
:1011200001018161816901F001010091C16941F012
:101130008051C161C06900F080500090044841684E
:1011400021F0E06141F00071416008BD00100240F3
:1011500000000140002809DB00F01F02012191403E
:101160004009800000F1E020C0F800117047000045
:10117000F0B40E4B1B680C46C3F30223C3F1070502
:10118000042D00D90425191D072901D2002300E0F0
:10119000DB1E012606FA05F1491E214099409E40BA
:1011A000761E16403143F0BC02F018B80CED00E09A
:1011B000064900F0070208684FF6FF03184040EAAE
:1011C0000220034A10430860704700000CED00E065
:1011D0000000FA052DE9F84305460078354CC007B4
:1011E00054D0E0690026C00008D4E06940F0805087
:1011F000E061E069012600F0805000902E4801680F
:10120000C90512D40168804641F480710160FFF77E
:1012100043FF074605E000BFFFF73EFFC01B642801
:1012200023D8D8F80000C005F6D5206A10F4407025
:1012300021D0A98801F4407181421CD0206A1F4945
:10124000012220F440700A6000220A602062C00778
:1012500011D0FFF721FF074641F2883808E000BFB0
:10126000FFF71AFFC11B414502D90320BDE8F883EF
:10127000206A8007F4D5206A696820F4407008432A
:1012800020621EB1E06920F08050E061287880077C
:1012900005D56068A96820F440400843606028785C
:1012A000C00605D56068696920F480000843606065
:1012B0000020DBE700100240007000404004424282
:1012C0002DE9F0470F46050061D0434E306800F02D
:1012D0000700B84209D2306820F007003843306078
:1012E000306800F00700B84251D128683B4C8107B4
:1012F00012D5400703D5606840F4E060606028784C
:10130000000703D5606840F4605060606068A968B9
:1013100020F0F000084360602878C00728D0686893
:10132000012810D02168022810D0890700292EDA60
:10133000616821F0030101436160FFF7ADFE804663
:1013400041F288390DE021688903EFE78901EDE773
:10135000FFF7A2FEA0EB0801494502D90320BDE832
:10136000F0876068696800F00C00B0EB810FEFD186
:10137000306800F00700B8420BD9306820F0070051
:1013800038433060306800F00700B84201D00120D7
:10139000E5E72878400705D56068E96820F4E06053
:1013A000084360602878000706D56068296920F442
:1013B000605040EAC100606000F038F86168084A97
:1013C000C1F30311515CC840064908600648006833
:1013D000FFF782FE0020C2E700200240001002401A
:1013E000024000080C0000200400002004480549C9
:1013F00000684968044AC1F30221515CC840704743
:101400000C0000200010024012400008044805496A
:1014100000684968044AC1F3C221515CC840704762
:101420000C00002000100240124000080E4A5168D3
:101430000E4801F00C03042B11D0082B0FD10C48DF
:10144000C1F38343C903C05C0AD55168084AC1F39C
:101450004041921E515C054A5043B0FBF1F0704789
:1014600004494843704700000010024000127A000F
:10147000F23F000800093D002DE9F84F040070D04C
:101480002078C04DC00749D06868C0F381000128AA
:1014900007D06868C0F38100022809D16868C003DA
:1014A00006D52868800339D560680028E7D035E084
:1014B0006068B0F5803F0BD010B1B0F5A02F11D00F
:1014C000286820F480302860286820F4802002E01A
:1014D000286840F480302860606890B1FFF7DCFD38
:1014E00006460AE0286840F480202860F0E700BF44
:1014F000FFF7D2FD801B642873D828688003F7D5D6
:101500000CE0FFF7C9FD064605E000BFFFF7C4FD8C
:10151000801B6428F0D828688003F7D420789A4E7E
:1015200080074FF001094FF0000839D5686810F0C6
:101530000C0F07D06868C0F38100022809D16868E1
:10154000C00306D42868800714D52069012808D173
:1015500010E02069B0B1C6F80090FFF79DFD074686
:1015600005E00AE1FFF798FDC01B0228C4D82868EF
:101570008007F7D52868616920F0F80040EAC100CB
:1015800028600DE0C6F80080FFF786FD074604E0FE
:10159000FFF782FDC01B022823D828688007F7D4F4
:1015A000207800072CD57948A169D9B1C0F80090FE
:1015B000FFF772FD074604E0FFF76EFDC01B02282F
:1015C0000FD8686A8007F7D571484FF4FA51006860
:1015D000B0FBF1F0009000BF0098411E0091FAD2DC
:1015E0000EE080E0C0F80080FFF756FD074604E0FB
:1015F000FFF752FDC01B022875D8686A8007F7D430
:101600002078400760D5E8690027C00008D4E86961
:1016100040F08050E861E869012700F080500090B8
:101620005C480168C90513D40168834641F48071A0
:101630000160FFF731FD824606E000BFFFF72CFD99
:10164000A0EB0A0064284ED8DBF80000C005F5D5F1
:10165000E06801280AD008B1052813D0286A20F0D4
:1016600001002862286A20F0040002E0286A40F0A5
:1016700001002862E06841F2883B98B1FFF70CFD59
:1016800082460BE0286A40F004002862EEE700BFC3
:10169000FFF702FDA0EB0A0159455AD8286A8007D6
:1016A000F6D50CE0FFF7F8FC824605E0FFF7F4FC06
:1016B000A0EB0A0159454CD8286A8007F6D41FB11F
:1016C000E86920F08050E861E06988B36968C1F397
:1016D0008101022944D00228C6F8608004D0FFF7B7
:1016E000DBFC044638E034E0FFF7D6FC074604E0B4
:1016F000FFF7D2FCC01B02282BD828688001F7D442
:10170000206AB0F5803F05D16868A16820F40030F8
:1017100008436860D4E908010843696821F474113A
:1017200008436860C6F86090FFF7B6FC044606E020
:1017300025E000BFFFF7B0FC001B022809D828688D
:101740008001F7D51BE000BFFFF7A6FC001B0228B5
:1017500002D90320BDE8F88F28688001F4D40EE098
:101760000128F7D06868226A00F48031914204D1E0
:10177000616A00F47010884201D00120EAE700207D
:10178000E8E70000001002400000424280044242AC
:101790000C0000200070004070B5040009D0606AA1
:1017A000002540B125616561A56294F8510040B102
:1017B0000CE0012070BD6068B0F5827FF4D0E56177
:1017C000F2E784F85050204600F040F8022084F8F8
:1017D00051002068016821F040010160A088218942
:1017E00000F4827001F404410843A18901F400610E
:1017F0000843217C01F002010843217D01F0010131
:101800000843218B01F400710843217F01F0380166
:10181000084394F8201001F080010843218D01F461
:101820000051084321680860A069042101EA1040C2
:10183000216848602068C16921F40061C161656563
:10184000012084F85100002070BD000030B585B043
:10185000002400940194029403940068144988427F
:1018600023D11448816941F480518161816901F477
:1018700080510491816941F00401816180690E4DBC
:1018800000F004000490A0200090022001900320AA
:10189000039069462846FFF7FDFA4020CDE9000491
:1018A000694628460294FFF7F5FA05B030BD0000FE
:1018B00000300140001002400008014010B5401EF9
:1018C000B0F1807F01D3012010BD4FF0E0246061B2
:1018D0000F21601701F082FC0020A0610720206129
:1018E000002010BD7047704770B590F83C20012A69
:1018F0002CD0012480F83C40022280F83D2003686F
:101900005A689D6822F070060A6832435A60104B8C
:1019100002689A420ED00F4B9A420BD0B2F1804F20
:1019200008D00D4B9A4205D00C4B9A4202D00C4B7A
:101930009A4204D1496825F080031943916080F8E8
:101940003D40002180F83C10084670BD022070BD6B
:10195000002C014000340140000400400008004019
:10196000000C004010B5040003D094F83D0010B105
:1019700007E0012010BD002084F83C00204600F064
:101980001FF8022084F83D00211D206801F08CF82A
:10199000012084F8460084F83E0084F83F0084F873
:1019A000400084F8410084F8420084F8430084F841
:1019B000440084F8450084F83D00002010BD00007C
:1019C00008B5234A0168234891420ED1816941F448
:1019D000006181618069002200F40060009011467E
:1019E0001920FFF7C5FB19202EE0B1F1804F11D06F
:1019F000194A914217D1C16941F00201C161C06920
:101A0000002200F00200009002211D20FFF7B0FB31
:101A10001D2019E0C16941F00101C161C06900F0F8
:101A20000100009008BD0D4A9142FBD1C16941F00F
:101A30000401C161C069002200F004000090114659
:101A40001E20FFF795FB1E20BDE80840FFF782BB74
:101A5000002C01400010024000040040000800403B
:101A600090F83D10012901D001207047022180F833
:101A70003D100168CA6842F00102CA6000680E4960
:101A800088420ED00D4988420BD0B0F1804F08D06B
:101A90000B49884205D00B49884202D00A49884246
:101AA00004D1816801F00701062903D0016841F0E3
:101AB0000101016000207047002C0140003401400A
:101AC0000004004000080040000C004070B50446CF
:101AD00090F83C000025012817D0012684F83C60CE
:101AE000022084F83D002068826822F0770222F408
:101AF0007F4282600868502838D00DDC20284FD003
:101B000005DC90B3102811D14AE0022070BD3028C6
:101B100046D040280AD13BE060282FD070280DD055
:101B2000B0F5805F03D0B0F5005F12D0012584F8D6
:101B30003D60002084F83C00284670BDCB68D1E9A8
:101B40000121206801F00BF82068816841F07701DD
:101B500009E0CB68D1E90121206801F000F8206894
:101B6000816841F480418160E1E719E0CA68496811
:101B7000206801F0C9F85021206806E0CA68496869
:101B8000206801F0D2F86021206800F0F2FFCEE773
:101B9000CA684968206801F0B7F840212068F4E776
:101BA000226801461046F0E770472DE9F0410446EF
:101BB0000068C66805694FF00007A90713D5B1078B
:101BC00011D5F91E01610120207720688069800706
:101BD000204602D0FFF7E8FF04E000F0AFF820460F
:101BE00000F041F92777680716D5700714D52168EA
:101BF0006FF004000861022020772068806910F4EB
:101C0000407F204602D0FFF7CFFF04E000F096F8B7
:101C1000204600F028F92777280715D5300713D577
:101C200021686FF008000861042020772068C069EF
:101C30008007204602D0FFF7B7FF04E000F07EF8EF
:101C4000204600F010F92777E80616D5F00614D5DF
:101C500021686FF010000861082020772068C069B3
:101C600010F4407F204602D0FFF79EFF04E000F012
:101C700065F8204600F0F7F82777E80708D0F00766
:101C800006D021686FF001000861204600F046F997
:101C9000280608D5300606D521686FF08000086157
:101CA0002046FFF71FFE680608D5700606D5216896
:101CB0006FF040000861204600F056F9A8060AD5EA
:101CC000B00608D521686FF0200008612046BDE805
:101CD000F041FFF708BEBDE8F081000000B585B017
:101CE000002100910191029103910068B0F1804FB1
:101CF0001BD10F48816941F0080181618069694603
:101D000000F0080004904FF4406000900220019021
:101D100003900848FFF7BEF80748416821F4407176
:101D200041F0E06141F40071416005B000BD000088
:101D300000100240000C014000000140704770B5E7
:101D4000044690F83C0000260D4601280FD00120E3
:101D500084F83C006AB1042A1DD0082A2FD00C2A2E
:101D60003FD00126002084F83C00304670BD0220A0
:101D700070BD206800F006FF2068816941F008010D
:101D800081612068816921F0040181612068816995
:101D90002A69114311E0206800F024FF206881695E
:101DA00041F4006181612068816921F48061816171
:101DB000206881692A6941EA02218161D2E72068AD
:101DC00000F046FF2068C16941F00801C161206848
:101DD000C16921F00401C1612068C1692A69114308
:101DE00011E0206800F068FF2068C16941F40061DB
:101DF000C1612068C16921F48061C1612068C16945
:101E00002A6941EA0221C161ACE710B5040003D0A0
:101E100094F83D0010B107E0012010BD002084F8C7
:101E20003C00204600F01EF8022084F83D00211DF1
:101E3000206800F039FE012084F8460084F83E0056
:101E400084F83F0084F8400084F8410084F84200A0
:101E500084F8430084F8440084F8450084F83D0089
:101E6000002010BD7047704710B50446022249B1EA
:101E700004290ED0082913D094F84100012816D067
:101E8000012010BD94F83E000128F9D184F83E20CD
:101E90000FE094F83F000128F2D184F83F2008E0D9
:101EA00094F840000128EBD184F8402001E084F848
:101EB00041200122206800F045FE13492068134AA2
:101EC000884201D0904203D1436C43F40043436401
:101ED000206888420DD090420BD0B0F1804F08D0DE
:101EE0000B49884205D00B49884202D00A498842F2
:101EF00004D1816801F00701062903D0016841F08F
:101F000001010160002010BD002C0140003401409F
:101F10000004004000080040000C004010B50068BC
:101F20000F49884216D10F4C6078401C6070607871
:101F300004280FD3002060706168A26891420AD221
:101F400060684FF47A71C0F3090001F055FE6068D3
:101F5000401C606010BD2070BDE8104001F03CBE28
:101F600000080040E4000020704770477047000000
:101F7000F8B5016804460868CA684B6910F00F0F8D
:101F80004FF0000559D003F0010602F49077374373
:101F900065D0C10705D0D10503D5616C41F00101C1
:101FA0006164410705D5D90703D0616C41F0020196
:101FB0006164810705D5D90703D0616C41F0040144
:101FC0006164010707D502F02001314303D0616C41
:101FD00041F008016164616C00293AD0800604D5A3
:101FE000900602D5204600F08CFF20684069616CA5
:101FF000C0F38010090700D460B3204600F04CFF06
:1020000020684069400621D52068143050E8001F40
:1020100021F0400140E80012002AF5D1E06BA8B1A0
:102020006D494163E06BFEF703FD002811D0E06BC2
:10203000416B01B0BDE8F040084783060FD5930619
:102040000DD52046BDE8F84000F05BBF2046FFF705
:102050008DFFF8BD2046FFF789FF6564F8BD266B4C
:102060002023012E7CD1C6067AD5D60678D50868FD
:102070004868009048694FF00206400640D5E16B81
:10208000086840680004000CE8D0A28D8242E5D9BF
:10209000E085886920282DD020680C3050E8001F8A
:1020A00021F4807140E80012002AF5D12068143034
:1020B00050E8001F21F0010140E80012002AF5D18C
:1020C0002068143050E8001F21F0400140E8001261
:1020D000002AF5D184F84230256320680C3050E89E
:1020E000001F21F0100140E80012002AF5D1E06B3A
:1020F000FEF77AFC6663A08DE18D401A81B22AE07A
:10210000A08DE18D401A81B2E08D0028A6D0002973
:10211000A4D022680C3252E8000F20F4907042E8FC
:102120000007002FF5D12068143050E8002F22F06E
:10213000010240E80027002FF5D184F842302563E2
:1021400020680C3050E8002F22F0100240E80023F5
:10215000002BF5D166632046FFF707FFF8BDFFE7C8
:1021600005062BD5150629D594F841002128F5D16F
:10217000A068B0F5805F01D12069B0B1206A411C30
:102180002162216800784860E08C401E0004000C49
:10219000E084E3D12068C16821F08001C16020683B
:1021A000C16841F04001C160D8E7206A0088C0F3EF
:1021B00008004860206A801C2062E5E74006CDD513
:1021C0005006CBD5CA68204622F04002CA6084F887
:1021D000413000F0ADF9C1E74F2D000870B50400A3
:1021E00004D094F84100002510B106E0012070BD34
:1021F00084F84050204600F023F8242084F8410061
:102200002068C16821F40051C160204600F0DAFE68
:102210002068016921F4904101612068416921F041
:102220002A0141612068C16841F40051C1606564C0
:10223000202084F8410084F842006563002070BDCE
:102240002DE9F04F85B00025009501950295039585
:10225000044603686148DFF880C1022103220615A5
:1022600080274FF020094FF0100A4FF4005B6345C0
:1022700050D1836943F480438361836903F48043CD
:102280000493836943F0040383618069DFF850811C
:1022900000F0040004900802CDE9000103926946B1
:1022A0004046FEF7F7FDCDE90065694640460295D8
:1022B000FEF7F0FD4C4E4B48B846C6E90005C6E9AE
:1022C0000257C6F81CB03561C6E905595F4630466D
:1022D000FEF76AFD08B1FEF73FF8E6637462424E0E
:1022E000404844361438C6E9025835617561C6E97C
:1022F000000AC6E906573046FEF756FD08B1FEF75C
:102300002BF8A6630022114625207462FEF730FFE9
:1023100025205CE0DFF8D4C063455AD1C36943F49B
:102320008023C361C36903F480230493836943F06A
:10233000100383618069CDE9006100F01000CDE9F0
:1023400003202B4E69463046FEF7A4FDF014CDE97C
:102350000005694630460295FEF79CFD2548416818
:1023600021F0300141F0E06141F0100141601E4E6A
:102370001C4888362838C6E90005C6E90257356189
:102380004FF440507561C6E906903046FEF70CFDEB
:1023900008B1FDF7E1FFE6637462134E1148CC36D5
:1023A0003C38C6E9025735617561C6E9000AC6E9DD
:1023B000065B3046FEF7F8FC08B1FDF7CDFFA663DB
:1023C0000022114627207462FEF7D2FE2720FEF776
:1023D000C1FE05B0BDE8F08F00380140001002409A
:1023E00000080140580002409803002000480040C7
:1023F000001001400000014090F84230202B01D035
:102400000220704721B11AB10023036300F036BEE9
:1024100001207047704770472DE9F843044690F853
:102420004100984616460D46202802D00220BDE8FD
:10243000F88385B17EB100206064212084F84100DA
:10244000FEF72AFEA6848146E684A0682027B0F520
:10245000805F02D003E00120E9E7206910B12E4639
:1024600000250EE000260CE08021204600F04EFE04
:10247000A8B9C6B116F8010B21684860E08C401E6F
:10248000E084E08C4B464FF00002CDF8008000283D
:10249000EAD14FF04001204600F038FE40B184F808
:1024A00041700320C3E735F8020BC0F30800E3E7EF
:1024B00084F841700020BAE770B5044690F84100F6
:1024C000202801D0022070BD49B342B32162A2840A
:1024D000E28400206064212384F84130A56B114B15
:1024E000AB62A56B104BEB62A56B104B2B63A36B20
:1024F0005863256813462A1DA06BFEF793FC2168DC
:102500006FF0400008602068143050E8001F41F070
:10251000800140E80012002AF5D1002070BD0120A2
:1025200070BD00004D2E00088F2E00085F2D0008A2
:1025300000680549884205D10449002081F8060158
:1025400001F00ABC7047000000480040AE060020C1
:102550007047FEE73EB500241048009401940294B1
:102560000D498460016004730475012505614FF411
:1025700060214460C161FDF76FFF08B1FDF7ECFE1B
:10258000CDE90045694605480294FDF7E7FE0028BD
:1025900001D0FDF7E1FE3EBD00240140F400002023
:1025A0000F4810B50D4901600621416000214FF42C
:1025B00000228160C0E90312520042610176417637
:1025C0008176C17601774177FEF71FF9002803D0A5
:1025D000BDE81040FDF7C0BE10BD00000064004023
:1025E00068010020194808B5416941F001014161C5
:1025F0004069002200F00100009011460B20FEF718
:10260000B7FD0B20FEF7A6FD002211460C20FEF7B9
:10261000AFFD0C20FEF79EFD002211460D20FEF7B7
:10262000A7FD0D20FEF796FD002211460E20FEF7B5
:102630009FFD0E20FEF78EFD002211460F20FEF7B3
:1026400097FDBDE808400F20FEF784BD0010024052
:102650002DE9F04786B00024354800940194029497
:102660000394816941F020018161816901F02001B9
:102670000491816941F010018161816901F01001CB
:102680000491816941F004018161816901F00401D3
:102690000491816941F0080181618069254F00F052
:1026A0000800049000220C213846FEF7EFFCDFF80A
:1026B0008890002216214846FEF7E8FCDFF87CA04F
:1026C0004FF44058002241465046FEF7DFFC0C20F4
:1026D00001250226CDE90005CDE9024669463846C6
:1026E000FEF7D8FB062700970396CDE9015469460B
:1026F0004846FEF7CFFB1020CDE900050320CDE9C9
:10270000024069464846FEF7C5FBCDE900746946BC
:1027100050460294FEF7BEFBCDF800800396CDE94B
:10272000015469465046FEF7B5FB06B0BDE8F08798
:10273000001002400010014000080140000C014060
:10274000114810B50F4901604FF4827141600021BA
:102750004FF40062C0E902120222026101224261CA
:10276000520282611022C0E90721416281620A217E
:10277000C162FFF711F8002803D0BDE81040FDF753
:10278000EBBD10BD003001409001002010B586B0B7
:10279000002418480094019402940394049414496A
:1027A000059401604721C0E9011442F20F71C0E9AC
:1027B00003148021C0E90541FFF7D4F808B1FDF703
:1027C000CBFD4FF48050009069460A48FFF77EF930
:1027D00008B1FDF7C1FD049404A906480594FFF76C
:1027E00083F8002801D0FDF7B7FD06B010BD00004A
:1027F000002C0140E801002010B58EB000240794A1
:10280000089409940A940B941C2168460C94FDF7D3
:10281000D9FC21484FF08041C0E9001440F2FF315B
:10282000C0E9024104618461FFF79CF808B1FDF73B
:1028300093FD4FF48050079007A91748FFF746F91A
:1028400008B1FDF789FD1448FFF7DFFA08B1FDF77D
:1028500083FD0B940BA910480C94FFF745F808B1C1
:10286000FDF77AFD6020CDE9000402940822694654
:1028700009480494FFF763FA08B1FDF76DFD0C22D7
:1028800069460548FFF75BFA08B1FDF765FD0248A8
:10289000FFF724FA0EB010BD3002002010B586B04C
:1028A000002417480094019402940394049413495B
:1028B0000594016040F60F61C0E901142321C0E9CD
:1028C00003148461FFF74EF808B1FDF745FD4FF49E
:1028D0008050009069460A48FFF7F8F808B1FDF704
:1028E0003BFD049404A906480594FEF7FDFF00286B
:1028F00001D0FDF731FD06B010BD0000000400401E
:102900007802002010B586B0002417480094019486
:102910000294039404941349059401604721C0E98B
:1029200001143121C0E9031480218161FFF71AF8F5
:1029300008B1FDF711FD4FF48050009069460A4838
:10294000FFF7C4F808B1FDF707FD049404A9064891
:102950000594FEF7C9FF002801D0FDF7FDFC06B085
:1029600010BD000000080040C00200200C4810B557
:102970000A4901604FF4E1314160002181600C227D
:10298000C160C0E904128161C161FFF727FC002822
:1029900003D0BDE81040FDF7DFBC10BD003801409A
:1029A000080300200C4810B50A4901604FF4E131DA
:1029B0004160002181600C22C160C0E90412816184
:1029C000C161FFF70BFC002803D0BDE81040FDF704
:1029D000C3BC10BD0048004050030020FEE7FEE7E6
:1029E00070477047FEF75EBB30B595B0282168464A
:1029F000FDF7E8FB14210AA8FDF7E4FB18210FA856
:102A0000FDF7E0FB01210804CDE900100025029547
:102A100002240491CDE907404FF4E0100990684684
:102A2000FEF72AFD08B172B6FEE70AA90F2081E879
:102A300031004FF48060CDE90D0502210AA8FEF7B0
:102A40003FFC08B172B6FEE74FF4004011900F94BE
:102A50000FA8FEF7BFFB002801D072B6FEE715B045
:102A600030BD70470148FFF7A0B80000E801002022
:102A70000148FFF79AB80000780200200148FFF7EC
:102A800094B80000C0020020054800680169C90729
:102A900005D06FF0010101610248006800477047EE
:102AA0007802002048000020F0B50268204C214D3B
:102AB000214E224F224B4FF0804CA04209D0984229
:102AC00007D0604505D0A84203D0B04201D0B8423B
:102AD00004D122F0700E4A6842EA0E02A04209D0E8
:102AE000984207D0604505D0A84203D0B04201D03B
:102AF000B84203D122F44075CA682A434D6922F0D6
:102B000080022A4302608A68C2620A688262A04226
:102B100001D0984201D10969016301214161016934
:102B2000C90703D0016921F001010161F0BD000076
:102B3000002C01400004004000080040000C004050
:102B40000034014010B501F01F030121046A9940CF
:102B50008C430462016A9A401143016210BD10B5B2
:102B6000846842EA032224F47F440A4322438260B9
:102B700010BD826822F070020A4342F007018160B2
:102B800070470000F0B5036A026A22F00102026297
:102B900042688469124E24F073050C682C4323F0BC
:102BA00002058B682B430D4DA84201D0B04205D1E0
:102BB00023F00807CB683B4323F00403A84201D06D
:102BC000B04205D14D6922F4407215438A692A4307
:102BD00042608461496841630362F0BD002C01409A
:102BE00000340140F0B5026A036A23F01003036267
:102BF000436884690D6824F4E64444EA05248D683A
:102C000022F0200242EA05120F4D104EA84201D0D8
:102C1000B04206D1CF6822F0800242EA071222F0C9
:102C20004002A84201D0B04207D14D6923F440636D
:102C300043EA85038D6943EA8503436084614968FB
:102C400081630262F0BD0000002C014000340140AD
:102C5000F0B5026A036A23F4807303624368C469AF
:102C600022F4007224F073050C68124E2C438D6818
:102C700042EA05220E4DA84201D0B04206D1CF68EB
:102C800022F4006242EA072222F48062A84201D0C4
:102C9000B04207D14D6923F4405343EA05138D69CF
:102CA00043EA05134360C4614968C1630262F0BD31
:102CB000002C01400034014030B5046A026A22F45D
:102CC000805202624268C3690D6823F4E64343EA16
:102CD00005238D6824F4005444EA0534084DA842C5
:102CE00002D0084DA84204D14D6922F4804242EA44
:102CF00085124260C36149680164046230BD00000E
:102D0000002C01400034014010B5036A046A24F02D
:102D100001040462846924F0F00444EA021423F0FC
:102D20000A020A438461026210BD10B5036A046A94
:102D300024F010040462846923F0A00324F4704496
:102D400044EA023243EA01118261016210BD10B50A
:102D5000406A0021C185C184FFF708F910BD70B534
:102D6000446A2068406994F84110C0F3C0100025FF
:102D7000212904D118B1E584204600F0B4F8206878
:102D8000406994F84210C0F38010222904D118B190
:102D9000E585204600F080F8606C40F0100060642B
:102DA0002046FFF7E3F870BD10B50146406A096898
:102DB00009684FF0000289062ED4C28501680C31E3
:102DC00051E8003F23F4807341E80034002CF5D132
:102DD0000168143151E8003F23F0010341E8003459
:102DE000002CF5D10168143151E8003F23F0400375
:102DF00041E80034002CF5D1202180F84210016B0D
:102E0000012909D101680C3151E8003F23F010037A
:102E100041E80034002CF5D14263016B012902D056
:102E2000FFF7F8FA10BD818DFFF79FF810BD10B5C0
:102E3000406A01214163016B012902D0FFF7EBFADF
:102E400010BD818D4908FFF790F810BD10B50146FF
:102E5000406A09680968890616D40021C18401689E
:102E6000143151E8002F22F0800241E80023002BAA
:102E7000F5D101680C3151E8002F42F0400241E8E1
:102E80000023002BF5D110BDFFF752FB10BD10B58C
:102E9000406AFFF75DFB10BD01680C3151E8002F5F
:102EA00022F4907241E80023002BF5D1016814311F
:102EB00051E8002F22F0010241E80023002BF5D158
:102EC000016B012909D101680C3151E8002F22F072
:102ED000100241E80023002BF5D1202180F8421098
:102EE00000210163704701680C3151E8002F22F086
:102EF000C00241E80023002BF5D1202180F84110C9
:102F0000704708B590F84210222901D0022008BD70
:102F100082684FF480539A4201D1016921B1816ADC
:102F20009A421BD04AB10AE00268816A5268C2F331
:102F300008020A80816A891C08E0026972B102688D
:102F4000526802F07F020A70816A491C8162C18D59
:102F5000491E0904090CC18503D01BE002685268B0
:102F6000F1E70168CA6822F02002CA600168CA68F5
:102F700022F48072CA6001684A6922F001024A6143
:102F8000202180F8421000214163026B012A03D006
:102F9000FFF740FA002008BD016301680C3151E8D9
:102FA000002F22F0100241E80023002BF5D1016828
:102FB0000A68D20602D50A6849680091818DFEF739
:102FC000D4FFE7E770B5044600680169E26821F4C0
:102FD0004051114301612169A068084361690843B8
:102FE0002168CA6841F20C639A430243CA602068B0
:102FF0004169A26921F44071114341611E49206871
:10300000884202D1FEF702FA01E0FEF7EFF900EB89
:10301000C00101EB0012606864218000B2FBF0F394
:10302000B3FBF1F36FF018067343B2FBF0F5B2FB9C
:10303000F0F605EB8305322303EB0515B5FBF1F53F
:10304000B6FBF1F605F0F00505EB0615B2FBF0F660
:10305000B2FBF0F0B0FBF1F06FF01802504306EB5A
:10306000800003EB0010B0FBF1F0216800F00F00CE
:103070002844886070BD00000038014038B5816286
:1030800004468285002013466064222284F8422090
:10309000E56B1B4AAA62E56B1A4AEA62E56B1A4ABB
:1030A0002A63E26B50630A462168E06B091DFDF755
:1030B000B9FE2068016840680090206948B1206826
:1030C0000C3050E8001F41F4807140E80012002AE3
:1030D000F5D12068143050E8001F41F0010140E8AC
:1030E0000012002AF5D12068143050E8001F41F08A
:1030F000400140E80012002AF5D1002038BD000050
:10310000A92D00082F2E00085F2D00082DE9F84397
:10311000984617460D460446089E24E0701C22D0AF
:10312000FDF7BAFFA0EB0800B0421AD8CEB1206874
:10313000C168490717D5802D15D0402D13D00168DF
:10314000C94309070FD40168002540680090204654
:10315000FFF7A2FE0820606484F840500120BDE81B
:10316000F8830320FBE72068006835EA000004D0FC
:103170000020B842D2D00020F1E70120F9E700009A
:103180000148FEF7F5BE00000803002010B500F06E
:10319000ADFDBDE810400148FEF7EABE5003002037
:1031A0000148FDF734BA0000680100200148FDF72E
:1031B0002EBA000068010020FEE700000FB4054BA6
:1031C00010B503A9044A029800F028F810BC5DF875
:1031D00014FB00005D3E0008F00000200907090E06
:1031E000002804DB00F1E02080F80014704700F0B4
:1031F0000F0000F1E02080F8141D704702E008C8BD
:10320000121F08C1002AFAD170477047002001E060
:1032100001C1121F002AFBD1704700002DE9FF4FAA
:103220008DB00F460546002606E025280BD0DDE9C7
:103230000F1290476D1C761C28780028F5D111B02C
:103240003046BDE8F08F0024A246A1460122E9499C
:1032500000E0044315F8013F203B02FA03F0084266
:10326000F7D128782A2810D06FF02F022878A0F103
:103270003001092914D80AEB8A0102EB410144F01C
:10328000020400EB010A6D1CF0E701CF5FEA000ABF
:1032900003D544F40054CAF1000A44F002046D1C42
:1032A00028782E2817D115F8010F44F004042A2895
:1032B0000ED06FF02F022878A0F1300109290AD82A
:1032C00009EB890102EB410100EB01096D1CF2E7FA
:1032D00057F8049B6D1C28786C280FD006DC4C280E
:1032E00017D068280DD06A2814D104E0742810D0B3
:1032F0007A280FD10DE044F400140AE044F480145D
:1033000001E044F440146978814202D104F580144C
:103310006D1C6D1C28786E281ED00CDC632830D004
:1033200004DC00288BD0582811D19FE0642867D096
:1033300069280CD164E073282DD004DC6F2872D08A
:10334000702804D194E075286ED078286DD0DDE91E
:103350000F129047761C4BE1C4F30250022806D0AE
:10336000032809D0042801CF09D0066040E101CF2D
:10337000F117C0E900613BE101CF068038E106703A
:1033800036E117F8040B8DF8000000208DF80100DD
:10339000EB46012003E057F804BB4FF0FF30610714
:1033A0004FF0000102D40DE008F1010188464945C3
:1033B0000FDA8045F8DB1BF808100029F4D108E08B
:1033C00008F1010188468142FADB1BF80810002948
:1033D000F6D1DDE90F23AAEB08008146214600F073
:1033E00031F9304400EB080604E0DDE90F121BF868
:1033F000010B9047B8F10108F7D221464846F2E0A8
:103400000A21C4F302524FF0000B0891022A04D0A3
:1034100001CFC117032A09D00AE0FF1D27F00707D3
:10342000F7E8020108E02CE01EE01FE000B2C1173F
:10343000042A01D140B2C117021E71F1000206DA5E
:103440000023D0EB030063EB01012D2202E02205F3
:1034500004D52B228DF82420012203E0E20701D0BD
:103460002022F7E7904653E00A210BE0102109E003
:1034700010214FF0000B44F004044FF008090891AC
:1034800003E008214FF0000B0891C4F30252022A16
:1034900004D001CF0021032A06D006E0FF1D27F04B
:1034A0000707F7E8020103E080B2042A00D1C0B2A6
:1034B0004FF0000822072BD52A78702A07D0DDF8B4
:1034C00020C08CF0100C5CEA0B0C05D00EE0402202
:1034D0008DF82420012208E050EA010306D03023B1
:1034E0008DF824308DF8252002229046089B83F029
:1034F000080353EA0B030BD150EA010201D1620722
:1035000006D530228DF824204FF00108A9F10109D9
:103510002A78582A04D038A20B9208AA0A920BE003
:103520003AA2F9E75B46089AFCF757FE0B9B9B5CB7
:103530000A9A521E0A92137050EA0102F2D10A98B6
:10354000ADEB000000F1200B600702D524F48034BD
:1035500001E04FF00109D94502DDA9EB0B0000E0C5
:10356000002000EB0B0141440890AAEB010AE003A4
:1035700006D4DDE90F232146504600F063F80644E7
:103580004FF0000908E009A911F80900DDE90F1260
:10359000904709F10109761CC145F4DBE0030CD525
:1035A000DDE90F232146504600F04CF8064404E0C4
:1035B000DDE90F1230209047761C0899481E0890CC
:1035C0000029F5DC08E00A980A990078491C0A915C
:1035D000DDE90F129047761CBBF10001ABF1010B46
:1035E000F1DC21465046DDE90F2300F019F80644CE
:1035F0006D1C21E60928010030313233343536376D
:10360000383961626364656600000000303132332E
:1036100034353637383941424344454600000000CE
:103620002DE9F041044600251E461746880404D4BF
:1036300005E039462020B0476D1C641EF9D52846A8
:10364000BDE8F0812DE9F041044600251E46904674
:10365000C80301D5302700E02027880404D505E001
:1036600041463846B0476D1C641EF9D52846BDE872
:10367000F08170B50C460988002505292FD14178C5
:1036800040F2CF760A0281781143C278491C1302B6
:10369000027989B21A43531EB34220D200232380F9
:1036A000012300F8013B2688761C2680560703D0AC
:1036B00003EBD203DEB201E0C2F3C70600F8016BF0
:1036C00023885B1C2380002300F0A4F918B100F0CC
:1036D000EEFB054604E020883044208000E003250E
:1036E000284670BD70B50C460988002505292FD1E4
:1036F000417840F2CF760A0281781143C278491CA2
:103700001302027989B21A43531EB34220D2002316
:103710002380022300F8013B23885B1C238053078E
:1037200004D0012303EBD203DEB201E0C2F3C706EB
:1037300000F8016B23885B1C238000F0B9F918B1F5
:1037400000F0B5FB054604E020883044208000E00E
:103750000325284670BD70B50C460988002605294A
:1037600025D1417805790A0281781143491C6A1EE6
:1037700089B27C2A1BD800222280032200F8012B68
:1037800022880023521C22806A0000F8012B228824
:10379000521C22802A4600F0CBF918B100F087FBBA
:1037A000064605E0208800EB4500208000E0032667
:1037B000304670BD70B50C4609880026052927D112
:1037C000417805790A0281781143C278491C45EA9B
:1037D00002256A1E89B27C2A1AD200222280042283
:1037E00000F8012B2288521C22806A0000F8012B6D
:1037F0002288521C22802A4600F0C6F918B100F037
:1038000056FB064605E0208800EB4500208000E0DE
:103810000326304670BD2DE9F04104460888002794
:103820000D460A2842D3607826790102A078227AD0
:103830000843401C1FFA80F8E07846EA00266079C9
:10384000731E0102A0790843401C81B2E0797C2BF1
:1038500042EA0022607A28D83AB3792A25D8B0EB18
:10386000420F22D1012304F10A0000F061F998B956
:1038700000212980172121702988601C491C29807A
:10388000710000F8011B29880023491C2980324659
:10389000414600F04DF918B100F009FB074605E07C
:1038A000288800EB4600288000E003273846BDE862
:1038B000F081000070B5064C0D4606492288401C78
:1038C000FCF767FC2088401C2880002070BD0000A9
:1038D000CC000020B608002038B50988002405294E
:1038E0000BD141780A0281781143491C027989B2CF
:1038F0001AB9C278FF2A03D012B10324204638BD7A
:1039000000228DF80120C078FF280CD08DF800200F
:1039100001231A46684600F07DF80028EED000F03A
:10392000C6FA0446EAE701208DF80000F0E710B57A
:1039300009880024052902D00324204610BD4178BF
:1039400001230A028178C01C1143491C89B21A461E
:1039500000F0EEF80028F0D000F0A9FA0446ECE7F9
:103960002DE9F0410D4609880024052926D9417822
:1039700043790A0281781143491C8EB2C1780279D9
:1039800042EA0122510704D0012101EBD201C9B260
:1039900001E0C2F3C701571EB7F5F66F0ED2994288
:1039A0000CD101233146801D00F034F818B100F02D
:1039B0007EFA044603E00520288000E00324204628
:1039C000BDE8F08170B50D460988002406291DD395
:1039D00041780A0281781143C278491C13020279A6
:1039E00089B21A434379561E772E0FD85606360EE3
:1039F0009E420BD10123801D00F09AF818B100F00F
:103A000056FA044603E00520288000E003242046FF
:103A100070BD0000F0B5491E89B28C180A2C01D97E
:103A20000120F0BD541EE51704EB5575012404EB8D
:103A3000E5061E4D012B18D1F4B213E010F8016B0E
:103A400000230AE026FA03F707F001076F54491C28
:103A5000521E5B1C89B292B2DBB20AB1082BF1D3C1
:103A6000641EE4B2002CE9D11EE016F0FF061BD064
:103A700000273B4611E000BF15F801E0BEF1000F42
:103A800005D004FA03FC4CEA070C0CF0FF07521EA9
:103A9000491C5B1C92B289B2DBB20AB1082BEBD392
:103AA00000F8017B761EE0E70020F0BDCE0000208C
:103AB000F0B5491E8CB2A1180A2901D90120F0BD28
:103AC000511ECB1701EB5371012505EBE101CEB27D
:103AD00016491BE000273B4611E000BF11F804E047
:103AE000BEF1000F05D005FA03FC4CEA070C0CF000
:103AF000FF07521E641C5B1C92B2A4B2DBB20AB177
:103B0000082BEBD3761E00F8017BF6B2002EE1D134
:103B100000200A5C3AB100220A54401C80B20A28F4
:103B2000F7D30020F0BD0122F6E70000D800002006
:103B300010B5491E89B28C180A2C01D9012010BD7C
:103B4000104C012B09D018E030F8023B5BBA24F886
:103B50001130491C521E89B292B2002AF4D10EE0F3
:103B600034F811301B0A00F8013B14F81130491CDD
:103B7000521E00F8013B89B292B2002AF0D1002017
:103B800010BD0000D6080020491E10B58BB29C184D
:103B900010490A2C0FD9012010BD00BF31F8134085
:103BA000240A00F8014B11F813405B1C521E00F868
:103BB000014B9BB292B2002AF0D1002031F81020C4
:103BC000521C21F81020401C80B20A28F6D3002095
:103BD00010BD0000EA08002010B50021084600F0E2
:103BE000A3F90121084600F06FF90121BDE810405A
:103BF000084600F081B9000070B5274CC0F30900F9
:103C000000F58072A51F254B2080C2F309022A808F
:103C100033F912206A8033F910006080002900DC3B
:103C200049421F4B09B25943C1F30B41002A00DC42
:103C3000524212B2002800DC404203B201FB02F003
:103C4000C0F30F305943A880C1F30F31A18000F0B9
:103C50006BF9B5F90200002812DD4FF0000100BF3A
:103C60004FF0010000F030F9B4F9020000280DDD3A
:103C70004FF000014FF00100BDE8704000F03CB98A
:103C80004FF00101ECDA4FF00000EBE74FF00101DB
:103C9000F0DA4FF00000EFE7160000201A400008AD
:103CA000B03D010010B50D4800F0A8F80C48002404
:103CB00004800C4800F0A2F80A4880F80641A0F5FC
:103CC00080714FF480720848FEF796FB0648006842
:103CD000C16841F01001C16010BD0000A8040020BF
:103CE0001C000020AE0600205003002038B5164905
:103CF00008680268D243D20624D402684068009063
:103D0000C86B00684068114D80B2C0F5807084B205
:103D100028880F498442014401F5837104D9A4EB3A
:103D2000000082B20A480AE00BD2C0F5807082B26D
:103D3000074800F06BF824B122460649044800F019
:103D400065F82C8038BD0000500300201C000020C6
:103D5000A8040020AE05002070B5104C94F80601B0
:103D6000002819D1204600F029F8020014D04FF4A1
:103D70008070824200D90246094908480D4600F089
:103D800020F8020008D0012084F806012946BDE889
:103D900070400448FEF790BB70BD0000AE060020E6
:103DA000B50700205003002000234FF4806219461D
:103DB0000148FCF7DBB90000F0000020B0F8040176
:103DC000704710B5B0F80431934200D21A46002370
:103DD0000BE0B0F80241045DCC5490F80241641C41
:103DE000E4B25B1CA0F802419BB29342F1D3B0F85D
:103DF0000411891AA0F80411104610BD0021A0F882
:103E00000011A0F80211A0F80411704730B5B0F805
:103E10000431C3F580739BB29A4200D91A4600233D
:103E20000BE0B0F80051CC5C445590F80041641CA4
:103E3000E4B25B1CA0F800419BB29342F1D3B0F80E
:103E400004111144A0F80411104630BDFFF7ACFF77
:103E5000FFF728FF00F070F8FEE7000013B54FF001
:103E6000FF33012269460248FEF7D6FA00981CBDCE
:103E700050030020FDF71EF9FEF7B6FDFEF7E8FB44
:103E8000FEF7B0FBFEF766FBFEF78AFBFEF758FC79
:103E9000FEF77CFCFEF7B0FCFEF734FDFEF766FD96
:103EA000FEF780FDFEF7FAFCFFF7D0FFFEE70028E3
:103EB00004D0012803D0072803D004207047022033
:103EC000704706207047000070B50A4D0C4608B1D7
:103ED000012200E0002202212846FDF7D7F80CB1AC
:103EE000012200E000222846BDE870400421FDF7D1
:103EF000CDB800000008014070B50A4D0C4608B16D
:103F0000012200E0002204212846FDF7BFF80CB191
:103F1000012200E000222846BDE870400821FDF79C
:103F2000B5B8000000100140024A13681864106818
:103F3000C16370473002002013A0FFF73FF908214A
:103F40001748FDF791FF0C211548FDF78DFF15A0CF
:103F5000FFF734F94FF47A710020FFF74DFE154C4E
:103F6000012060604FF44841A16020701248FDF7C5
:103F700077FD12A0FFF722F920780028FCD116A0C7
:103F8000FFF71CF9FEE7000054423637483435305D
:103F900020746573742073746172740D0A000000DC
:103FA0003002002050574D20737461727465640DA7
:103FB0000A000000E4000020C0020020526F74617B
:103FC00074696E672031207265766F6C7574696FE5
:103FD0006E2E2E2E0D0A0000446F6E652C206D6F24
:103FE000746F722073746F707065640D0A00000046
:103FF000010202030405060708090A0B0C0D0E0F47
:104000001010000000000000000001020304060779
:10401000080900000000010203040000190032003A
:104020004B0065007E009700B000C900E200FB0075
:1040300014012D0146015F0178019101AA01C3011C
:10404000DC01F5010E0227024002590272028B02C6
:10405000A302BC02D502EE0206031F03380350037D
:10406000690381039A03B203CB03E303FC03140443
:104070002C0444045D0475048D04A504BD04D5041A
:10408000ED0405051D0534054C0564057C05930507
:10409000AB05C205DA05F10508061F0637064E0610
:1040A00065067C069306AA06C106D706EE06050736
:1040B0001B07320748075E0775078B07A107B7077D
:1040C000CD07E307F9070E0824083A084F086508EA
:1040D0007A088F08A508BA08CF08E408F8080D097F
:1040E000220937094B095F09740988099C09B0093D
:1040F000C409D809EC09FF09130A260A3A0A4D0A2D
:10410000600A730A860A990AAC0ABF0AD10AE40A4D
:10411000F60A080B1B0B2D0B3E0B500B620B740B9E
:10412000850B970BA80BB90BCA0BDB0BEC0BFC0B2D
:104130000D0C1E0C2E0C3E0C4E0C5E0C6E0C7E0CF0
:104140008E0C9D0CAC0CBC0CCB0CDA0CE90CF80CF6
:10415000060D150D230D320D400D4E0D5C0D690D34
:10416000770D850D920D9F0DAC0DB90DC60DD30DBC
:10417000DF0DEC0DF80D040E100E1C0E280E340E83
:104180003F0E4B0E560E610E6C0E770E810E8C0E8E
:10419000960EA10EAB0EB50EBF0EC80ED20EDB0EE4
:1041A000E40EEE0EF70EFF0E080F110F190F210F80
:1041B000290F310F390F410F480F500F570F5E0F66
:1041C000650F6C0F720F790F7F0F850F8B0F910F9B
:1041D000970F9C0FA20FA70FAC0FB10FB60FBB0F1D
:1041E000BF0FC40FC80FCC0FD00FD40FD70FDB0FEA
:1041F000DE0FE10FE40FE70FEA0FEC0FEF0FF10F07
:10420000F30FF50FF70FF80FFA0FFB0FFC0FFD0F71
:10421000FE0FFF0FFF0F0010001000100010001025
:10422000FF0FFF0FFE0FFD0FFC0FFB0FFA0FF80F34
:10423000F70FF50FF30FF10FEF0FEC0FEA0FE70F8A
:10424000E40FE10FDE0FDB0FD70FD40FD00FCC0F31
:10425000C80FC40FBF0FBB0FB60FB10FAC0FA70F26
:10426000A20F9C0F970F910F8B0F850F7F0F790F68
:10427000720F6C0F650F5E0F570F500F480F410FF5
:10428000390F310F290F210F190F110F080FFF0ED2
:10429000F70EEE0EE40EDB0ED20EC80EBF0EB50EFC
:1042A000AB0EA10E960E8C0E810E770E6C0E610E6B
:1042B000560E4B0E3F0E340E280E1C0E100E040E22
:1042C000F80DEC0DDF0DD30DC60DB90DAC0D9F0D26
:1042D000920D850D770D690D5C0D4E0D400D320D63
:1042E000230D150D060DF80CE90CDA0CCB0CBC0CEB
:1042F000AC0C9D0C8E0C7E0C6E0C5E0C4E0C3E0CB1
:104300002E0C1E0C0D0CFC0BEC0BDB0BCA0BB90BB3
:10431000A80B970B850B740B620B500B3E0B2D0BF0
:104320001B0B080BF60AE40AD10ABF0AAC0A990A69
:10433000860A730A600A4D0A3A0A260A130AFF0916
:10434000EC09D809C409B0099C09880974095F09F6
:104350004B09370922090D09F808E408CF08BA0803
:10436000A5088F087A0865084F083A0824080E083F
:10437000F907E307CD07B707A1078B0775075E07A6
:10438000480732071B070507EE06D706C106AA062F
:1043900093067C0665064E0637061F060806F105DD
:1043A000DA05C205AB0593057C0564054C053405AB
:1043B0001D050505ED04D504BD04A5048D04750493
:1043C0005D0444042C041404FC03E303CB03B20394
:1043D0009A0381036903500338031F030603EE02A7
:1043E000D502BC02A3028B027202590240022702CC
:1043F0000E02F501DC01C301AA01910178015F0100
:1044000046012D011401FB00E200C900B000970035
:104410007E0065004B00320019000000E7FFCEFF70
:10442000B5FF9BFF82FF69FF50FF37FF1EFF05FFAF
:10443000ECFED3FEBAFEA1FE88FE6FFE56FE3DFEE8
:1044400024FE0BFEF2FDD9FDC0FDA7FD8EFD75FD1E
:104450005DFD44FD2BFD12FDFAFCE1FCC8FCB0FC47
:1044600097FC7FFC66FC4EFC35FC1DFC04FCECFB61
:10447000D4FBBCFBA3FB8BFB73FB5BFB43FB2BFB6A
:1044800013FBFBFAE3FACCFAB4FA9CFA84FA6DFA5D
:1044900055FA3EFA26FA0FFAF8F9E1F9C9F9B2F934
:1044A0009BF984F96DF956F93FF929F912F9FBF8EE
:1044B000E5F8CEF8B8F8A2F88BF875F85FF849F887
:1044C00033F81DF807F8F2F7DCF7C6F7B1F79BF7FA
:1044D00086F771F75BF746F731F71CF708F7F3F645
:1044E000DEF6C9F6B5F6A1F68CF678F664F650F667
:1044F0003CF628F614F601F6EDF5DAF5C6F5B3F557
:10450000A0F58DF57AF567F554F541F52FF51CF515
:104510000AF5F8F4E5F4D3F4C2F4B0F49EF48CF4A4
:104520007BF469F458F447F436F425F414F404F4F5
:10453000F3F3E2F3D2F3C2F3B2F3A2F392F382F312
:1045400072F363F354F344F335F326F317F308F3EC
:10455000FAF2EBF2DDF2CEF2C0F2B2F2A4F297F28E
:1045600089F27BF26EF261F254F247F23AF22DF2E6
:1045700021F214F208F2FCF1F0F1E4F1D8F1CCF1FF
:10458000C1F1B5F1AAF19FF194F189F17FF174F1D4
:104590006AF15FF155F14BF141F138F12EF125F15E
:1045A0001CF112F109F101F1F8F0EFF0E7F0DFF0A2
:1045B000D7F0CFF0C7F0BFF0B8F0B0F0A9F0A2F09C
:1045C0009BF094F08EF087F081F07BF075F06FF047
:1045D00069F064F05EF059F054F04FF04AF045F0A5
:1045E00041F03CF038F034F030F02CF029F025F0B8
:1045F00022F01FF01CF019F016F014F011F00FF07B
:104600000DF00BF009F008F006F005F004F003F0EF
:1046100002F001F001F000F000F000F000F000F016
:1046200001F001F002F003F004F005F006F008F0EC
:1046300009F00BF00DF00FF011F014F016F019F076
:104640001CF01FF022F025F029F02CF030F034F0AF
:1046500038F03CF041F045F04AF04FF054F059F09A
:104660005EF064F069F06FF075F07BF081F087F038
:104670008EF094F09BF0A2F0A9F0B0F0B8F0BFF08B
:10468000C7F0CFF0D7F0DFF0E7F0EFF0F8F001F18E
:1046900009F112F11CF125F12EF138F141F14BF144
:1046A00055F15FF16AF174F17FF189F194F19FF1B5
:1046B000AAF1B5F1C1F1CCF1D8F1E4F1F0F1FCF1DE
:1046C00008F214F221F22DF23AF247F254F261F2BA
:1046D0006EF27BF289F297F2A4F2B2F2C0F2CEF25D
:1046E000DDF2EBF2FAF208F317F326F335F344F3B5
:1046F00054F363F372F382F392F3A2F3B2F3C2F3CF
:10470000D2F3E2F3F3F304F414F425F436F447F4AB
:1047100058F469F47BF48CF49EF4B0F4C2F4D3F44E
:10472000E5F4F8F40AF51CF52FF541F554F567F5B5
:104730007AF58DF5A0F5B3F5C6F5DAF5EDF501F6E8
:1047400014F628F63CF650F664F678F68CF6A1F6E8
:10475000B5F6C9F6DEF6F3F608F71CF731F746F7BB
:104760005BF771F786F79BF7B1F7C6F7DCF7F2F75F
:1047700007F81DF833F849F85FF875F88BF8A2F8D8
:10478000B8F8CEF8E5F8FBF812F929F93FF956F92F
:104790006DF984F99BF9B2F9C9F9E1F9F8F90FFA61
:1047A00026FA3EFA55FA6DFA84FA9CFAB4FACCFA73
:1047B000E3FAFBFA13FB2BFB43FB5BFB73FB8BFB6B
:1047C000A3FBBCFBD4FBECFB04FC1DFC35FC4EFC4A
:1047D00066FC7FFC97FCB0FCC8FCE1FCFAFC12FD17
:1047E0002BFD44FD5DFD75FD8EFDA7FDC0FDD9FDD2
:1047F000F2FD0BFE24FE3DFE56FE6FFE88FEA1FE7E
:10480000BAFED3FEECFE05FF1EFF37FF50FF69FF27
:1048100082FF9BFFB5FFCEFFE7FF00003C4800088A
:1048200000000020F4000000FC31000830490008BE
:10483000F40000200C0C00000C3200080100000005
:10484000100000000000000000127A0000000000CC
:104850000000000000000000000000000200000056
:104860000000000000000000000000000000000048
:104870000000000000000000000000000000000038
:10488000000000000000000011000000B538000822
:1048900004000000B5370008030000005737000887
:1048A00010000000C5390008060000002F3900087C
:1048B00017000000173800080100000073360008D8
:1048C00005000000D93800080F0000006139000819
:1048D00002000000E53600080000000000000000B3
:1048E00000000000000000000000000000000000C8
:1048F00000000000000000000000000000000000B8
:1049000000000000000000000000010101010000A3
:10491000000001010101010100000000010100008F
:104920000000000000000000000000000000000087
:0400000508000131BD
:00000001FF
